:400000000010002011000000DD020000DD02000010B500F0F7FC00F069F9C04610B51D4C12232360182000F065FC802252001A4B1A608023DB051949196019490A60194AF2
:400040001A6080214901184A1160184A1A60E0210901174A1160174A1A602022164B1A602132164B1A600232154B1A60013A154B1A6015490B2000F085FB0B2000F076FBC1
:400080000022124B1A60002000F0C4FC1123236010BDC046300010400003004040FF00800403004041FF00800C03004043FF00800803004042FF008028000340300100406B
:4000C0000401004000010040A90A00000C02064010B572B6114A124B1A60EE22114B1A600022114B1A602032104B1A60104A114B1A600223104A1360104A1360BC33104A17
:400100001360104A136003220F4B1A6021320F4B1A60FFF783FF00F06FF810BDEE009900000002400003024004013F4000000440B61D030008000440000104401801044029
:400140000002044018020440000304400803044010B5064C2378002B07D1054B002B02D0044800E000BF0123237010BD3001002000000000F40E0000084B10B5002B03D06B
:400180000749084800E000BF07480368002B00D110BD064B002BFBD09847F9E70000000034010020F40E0000A80000200000000010B500F0F9F900F007FA00F039FA00F0AD
:4001C0006BFA00F0D9F900F0D5FC10BD10B562B6FFF7EEFFFEE7C046064B1B68002803D080221206134301E05B005B08014A13607047C04680033A4010B580231B06134AC3
:4002000013601349134A1160A0218905124A1160124A13601249134A1160134A136080225204124B1A600222114B1A600132114B1A60114A114B1A60F122114B1A60D13A46
:40024000104B1A600120FFF7C7FF10BD0000304080000801800030408800304000003140020004008000314000003840100038404001384008013F400100008000023F4073
:4002800004023F40000E3F40002802D0012804D006E01022034B1A6002E00222014B1A607047C04614003840012808D0002802D0022808D00CE00222064B1A6008E004225A
:4002C000044B1A6004E00823034A1360014A13607047C0468C0030409400304010B500F0DDFD03680C2B00D1FEE7FEE770B50F4E0F4D13E029686B68AC68002202E001C908
:4003000001C30432A242FAD1E868002202E0002102C304328242FAD11035013E002EE9D100F0C2FDFFF752FFFEE7C04601000000580F000010B500230AE0032B03D89A00EB
:400340000849505800E008489900084A88500133282BF2D9FFF7BCFE80229205044B1A6010BDC04600000000DD0200000000002008ED00E00A4B1B688268F0210A40402A5F
:4003800001D0002A04D1074A13400122134304E001229343802292051343014A1360704730003A40FFFFFFDF10B5040000F092F9A08E002100F09AF9FF2000F07DF9A36843
:4003C000194A1268002A02DA8022520300E000221343164A1360164BE2681A60154BA2691A60154BE2691A60144B22691A60144B62691A60134A00211160134B1960A16AF0
:400400001160626A1A600122104B1A60002306E09A000F498C46624400211160013362689342F5D310BDC04680033A4000003A4004003A4018003A401C003A4010003A40F3
:4004400014003A4028023A4038023A4018023A4080003A40F0B5474680B42D4B1B79002B38D051E0EA00521BD3002A4AD318DB685B070FD5EA00521BD300264AD3189B6898
:40048000E02212011340934204D163002249234A995203E063000021204A99521D4B9846EF007B1BDE004644F16A1D4BC818490000F008FC00B2A3001A4A98507F1BFB00FF
:4004C00042469A587368D318013B9C4200D10135013401E000250024002CC3D003210F2000F062F910490F2000F04CF9084B5B79002B09D10122064B5A71064C2000FFF74F
:4005000053FF226A094B1A6004BC9046F0BDC0464C010020F80E000000F8FFFF8001002000007102840100209D05000020003A4010B50D4B1B68002B0CDB0C4B1B68002BB1
:40054000FBDB094A1368802109060B4313600A2000F03CFA064B1A68D3009B1AD800054BC018FFF707FF10BD00003A40A0023A404C010020F80E000010B5074B1B79DB075C
:4005800006D4FFF767FF044A117901230B431371FFF7CEFF10BDC0464C010020014B1A681A60704710023A4010B5002404E02000FFF77AFE0134E4B2022CF8D9FF22014B17
:4005C0001A7010BDAC00002010B5002404E02000FFF75AFE0134E4B2012CF8D9FF22014B1A7010BDAD0000200222064B1A6080221206054B1A600422044B1A60013A044B57
:400600001A607047540100200000304004003040080F3040044A1168044B1B680B43802109010B4313607047040030405401002010B5064B1B79002B04D1FFF7D5FF01221F
:40064000024B1A71FFF7E6FF10BDC046540100200222064B1A6080221206054B1A600022044B1A600332044B1A6070475C0100200000314004003140080F3140044A1168BA
:40068000044B1B680B43802109010B4313607047040031405C01002010B5064B1B79002B04D1FFF7D5FF0122024B1A71FFF7E6FF10BDC0465C0100208023DB051B68002B3A
:4006C000FADB0002024B18438023DB0518607047410000808023DB051B68002BFADB024A8023DB051A6070474100004010B5064A13680724234000021843CB00FF211940C2
:400700000143116010BDC046040300400C4B1B689B001C22134018330A4A1268920803210A40D34008490868084A02400A60084A944663441B78DBB2064A13607047C0467E
:40074000080F03402800034000000640FFFFFFBFCDF1FF0F0C0F0340034B18688023DB05184000D001207047000006401F2318401E3B8340014A13607047C04600E100E0FF
:4007800001BE704770B504000D00182802D90020FFF7F6FF1034A40080239B059C4664442068256070BDC04670B504000E00032902D90020FFF7E4FF182C02D90020FFF706
:4007C000DFFF03252540ED00063500F04AFAA408A400074B9C46644421680323AB4099430B003100A9401943216000F03EFA70BD00E400E010B5040006E0084B586800F0C3
:4008000027FA074B9C46644480231B029C42F4D8024B9868604300F01BFA10BDB00000200080FFFF70B582B000F0E2F800284DD000F017FA0500264B1A6892001C231A40B7
:400840001832244B1B689B0803210B40DA400021214B1960214C2168214B0B4021494A438021C9018C466244D20B013A5205520D1343A0225203134323601B4B1B680193F2
:40088000302000F0F5F9194A13688021C9050B4313602668164B1E40002407E00120FFF7A9FF1034A30533430C4A1360EE2CF5D90120FFF79FFFFF239B051E43074B1E602A
:4008C000019A094B1A60280000F0CFF902B070BD080F0340280003400C0F03400800064000F800C040420F003000104000000640FFFF3FC0F0B583B0040018280BD01C2818
:4009000009D0202807D0242805D0282803D02C2801D0302849D100F0A4F90190FFF71CFF002803D0FFF7F2FE012600E00026214A136807218B4313601F4BE3181B78DBB2D3
:400940001E4A13601E4A13688B4313601D4803687F22934319001C4BE3181B7813400B430360322000F074F9182C16D9114F3B680725AB431A0023001C3B9B082B40134328
:400980003B60322000F064F93A68AA432300183B9B082C001C4014433C60012E01D1FFF741FF019800F061F902E00020FFF7E8FE03B0F0BD080F0340CDF1FF0F0C0F0340FE
:4009C000100F0340180F0340B4F1FF0F10B5034B1B7B584300F03CF910BDC046B0000020024B1868800F80077047C0460C020640034B1B68002B01DA012000E000207047C9
:400A000000000640014A024B1A6070476588EDAC3800034010B50400FFF7E2FFA0421AD0144A136803218B431360134B1B689B0F01D17C2001E086204000FFF7C7FF00F090
:400A400010F90D4A13689B009B08A40FA4071C43146000F00AF9074B1B6803229343064A1268920F01D1023200E001221343014A136010BD140206400C02064010B504009B
:400A800000F0EFF8054B1C4005490B68054A134023430B600B6800F0E8F810BD0404040010020640FBFBFBFF10B5244B1B685B0715D5234B1B685B070ED5224B596904208F
:400AC00001401F4C22688A4322605A6982435A619B68002B00D098470420FFF7CFFF174B1B685B0518D5164B1B685B0510D5154B59698022D2001140114802688A43026035
:400B00005969114A0A405A61DB68002B00D098478020C000FFF7B2FF084B1B685B030CD5074B1B685B0304D5064B1B69002B00D098478020C002FFF7A1FF10BD1002064082
:400B4000C400002064010020FFFBFFFF10B500F075F810BD10B500F01DF810BD10B5044A1368802109060B431360FFF7EFFF10BD0000084010B5064B1B78002B04D1FFF7F7
:400B8000E9FF0122024B1A70FFF7E8FF10BDC0467C010020154A164B1A600023154A13601549164A1160164A16490A6007201649086016490B6006381549086015490A60FB
:400BC000154A13600421154A1160154A1360154A1360154A1360154A1360154A1360154A13601268144B1A807047C0460B000002000008404000084001000A00480008409A
:400C00000700008000030840040308401003084044000840000208400402084050000840880E0840C80E0840480F0840080F0840C80F0840880F08407E010020024B1A88F6
:400C4000024B1A607047C0467E010020880F08400230800803D001300238FCD1C046C0467047EFF3108072B6704780F31088704770B50400FFF7F5FF0500102C05D8104A4C
:400C8000136803218B43136016E0202C07D80C490B6803229343023A13430B600CE0302C07D807490B6803229343013A13430B6002E00020FFF764FD2800FFF7D6FF70BD19
:400CC0003000104003460B437FD4002243088B4274D303098B425FD3030A8B4244D3030B8B4228D3030C8B420DD3FF22090212BA030C8B4202D31212090265D0030B8B4293
:400D000019D300E0090AC30B8B4201D3CB03C01A5241830B8B4201D38B03C01A5241430B8B4201D34B03C01A5241030B8B4201D30B03C01A5241C30A8B4201D3CB02C01A17
:400D40005241830A8B4201D38B02C01A5241430A8B4201D34B02C01A5241030A8B4201D30B02C01A5241CDD2C3098B4201D3CB01C01A524183098B4201D38B01C01A52417D
:400D800043098B4201D34B01C01A524103098B4201D30B01C01A5241C3088B4201D3CB00C01A524183088B4201D38B00C01A524143088B4201D34B00C01A5241411A00D2CE
:400DC00001465241104670475DE0CA0F00D04942031000D34042534000229C4603098B422DD3030A8B4212D3FC22890112BA030A8B420CD3890192118B4208D389019211D5
:400E00008B4204D389013AD0921100E08909C3098B4201D3CB01C01A524183098B4201D38B01C01A524143098B4201D34B01C01A524103098B4201D30B01C01A5241C30802
:400E40008B4201D3CB00C01A524183088B4201D38B00C01A5241D9D243088B4201D34B00C01A5241411A00D20146634652415B10104601D34042002B00D549427047634674
:400E80005B1000D3404201B5002000F005F802BD0029F8D016E770477047C046014B18687047C046280100200E4B70B500251E000D4CE41AA410A54204D0AB00F358984760
:400EC0000135F8E700F036F8084B00251E00084CE41AA410A54204D0AB00F35898470135F8E770BD400F0000400F0000400F0000480F00000000000000000000010000000C
:400F0000C00E2050880004906A000200020002000002000E00000000010000000000000000000000B0040000010000000100000043000000F8B5C046F8BC08BC9E46704717
:400F40007901000035030000F8B5C046F8BC08BC9E46704751010000680F0000A8000020880000005800000000000000FFFF0000010000000000E02EC05D00001800000046
:400F800000366E01040404000000000000000000000000000000000000000000000000000000000000000000300F0000000000000000000000000000000000000000000041
:400FC00000000000000000000000000000000000000000000000000000000000000000000000000000000000C8000020000000000000000000000000000000000000000009
:4010000000000000000000000000000000000000000000000000000000000000000000000000000000000000000000000000000000000000000000000000000000000000B0
:401040000000000000000000000000000000000000000000000000000000000000000000000000000000000000000000000000000000000000000000000000000000000070
:401080000000000000000000000000000000000000000000000000000000000000000000000000000000000000000000000000000000000000000000000000000000000030
:4010C00000000000000000000000000000000000000000000000000000000000000000000000000000000000000000000000000000000000000000000000000000000000F0
:0200000490303A
:02000000A188D5
:0200000490402A
:200000000000000000000000000000000000000000000000000000000000000000000000E0
:0200000490501A
:0C00000000021C2021AC00011C24C334B1
:0200000490600A
:0100000001FE
:00000001FF