:400000000010002011000000C9020000C902000010B500F043FB00F077F9C04610B51D4C12232360182000F0B1FA802252001A4B1A608023DB051949196019490A60194A77
:400040001A60E0210901184A1160184A1A6080214901174A1160174A1A602022164B1A602132164B1A600132154B1A600132154B1A6015490B2000F0D1F90B2000F0B8F940
:400080000022124B1A60002000F010FB1123236010BDC046300010400003004040FF00800403004041FF00800803004042FF00800C03004043FF0080280003403001004020
:4000C0000801004004010040410700000C02064010B572B6104A114B1A60EE221206104B1A6000220F4B1A6020320F4B1A600F4A0F4B1A60A0230F4A13600F4A1360C02236
:400100000E4B1A60902212040D4B1A60FFF786FF00F0A0F810BDC046EE009900000002400003024004013F4000000440361027000800044000020440180204400003044002
:400140000803044010B5064C2378002B07D1054B002B02D0044800E000BF0123237010BD300100200000000098200000084B10B5002B03D00749084800E000BF07480368A7
:40018000002B00D110BD064B002BFBD09847F9E7000000003401002098200000A80000200000000010B58AB062B6022109A800F035FE00F051FE00F01DFE00F069FF00F0FB
:4001C000FBFC00F073FD00F061FE00F0AFFB022000F0C0FB002000F0D9FB040000F0FEFC21B2002000F022FC0400FA21890001F00DFA020064235B424343E31800D55B4266
:4002000008AC227063700949684601F021FB684600F0AAFE064800F0A7FE228809AB1A8000F01AFE00F0E6FDCFE7C0469C200000B0200000064B1B68002803D080221206CB
:40024000134301E05B005B08014A13607047C04680033A4010B580231B060F4A13600F490F4A11608021C9000E4A11600E4A13600E4A0F4B1A6003220E4B1A600E4A0F4BC6
:400280001A60F1220E4B1A60D13A0E4B1A600120FFF7D0FF10BDC0460000304010000020800030409000304000003840010000011000384008013F400100008000023F402B
:4002C00004023F40000E3F4010B501F08BFA03680C2B00D1FEE7FEE710B50300084A1068C318084A9A1A802A02DC054A136005E001F078FA0C2303600120404210BDC04667
:40030000AC000020B801002070B50F4E0F4D13E029686B68AC68002202E001C901C30432A242FAD1E868002202E0002102C304328242FAD11035013E002EE9D101F058FAAA
:40034000FFF730FFFEE7C046010000009021000010B500230AE0032B03D89A000849505800E008489900084A88500133282BF2D9FFF7AEFE80229205044B1A6010BDC04691
:4003800000000000C90200000000002008ED00E00C4B1B689B001C22134018330A4A1268920803210A40D34008490868084A02400A60084A944663441B78DBB2064A1360CE
:4003C0007047C046080F03402800034000000640FFFFFFBFCDF1FF0F0C0F0340034B18688023DB05184000D001207047000006401F2318401E3B8340014A13607047C04687
:4004000000E100E01F2318401E3B8340014A13607047C04680E100E001BE704770B504000D00182802D90020FFF7F6FF1034A40080239B059C4664442068256070BDC046C2
:4004400070B504000E00032902D90020FFF7E4FF182C02D90020FFF7DFFF03252540ED00063500F02EFEA408A400074B9C46644421680323AB4099430B003100A94019433E
:40048000216000F022FE70BD00E400E010B5040006E0084B586800F00BFE074B9C46644480231B029C42F4D8024B9868604300F0FFFD10BDB00000200080FFFF70B582B06B
:4004C00000F0E2F800284DD000F0FBFD0500264B1A6892001C231A401832244B1B689B0803210B40DA400021214B1960214C2168214B0B4021494A438021C9018C466244ED
:40050000D20B013A5205520D1343A0225203134323601B4B1B680193302000F0D9FD194A13688021C9050B4313602668164B1E40002407E00120FFF7A9FF1034A30533438D
:400540000C4A1360EE2CF5D90120FFF79FFFFF239B051E43074B1E60019A094B1A60280000F0B3FD02B070BD080F0340280003400C0F03400800064000F800C040420F0058
:400580003000104000000640FFFF3FC0F0B583B0040018280BD01C2809D0202807D0242805D0282803D02C2801D0302849D100F088FD0190FFF712FF002803D0FFF7E8FE86
:4005C000012600E00026214A136807218B4313601F4BE3181B78DBB21E4A13601E4A13688B4313601D4803687F22934319001C4BE3181B7813400B430360322000F058FD0B
:40060000182C16D9114F3B680725AB431A0023001C3B9B082B4013433B60322000F048FD3A68AA432300183B9B082C001C4014433C60012E01D1FFF741FF019800F045FD2B
:4006400002E00020FFF7E8FE03B0F0BD080F0340CDF1FF0F0C0F0340100F0340180F0340B4F1FF0F10B5034B1B7B584300F020FD10BDC046B0000020024B1868800F800762
:400680007047C0460C020640034B1B68002B01DA012000E00020704700000640014A024B1A6070476588EDAC3800034010B50400FFF7E2FFA0421AD0144A136803218B4333
:4006C0001360134B1B689B0F01D17C2001E086204000FFF7C7FF00F0F4FC0D4A13689B009B08A40FA4071C43146000F0EEFC074B1B6803229343064A1268920F01D10232CF
:4007000000E001221343014A136010BD140206400C02064010B5040000F0D3FC054B1C4005490B68054A134023430B600B6800F0CCFC10BD0404040010020640FBFBFBFF71
:4007400010B5244B1B685B0715D5234B1B685B070ED5224B5969042001401F4C22688A4322605A6982435A619B68002B00D098470420FFF7CFFF174B1B685B0518D5164BCD
:400780001B685B0510D5154B59698022D2001140114802688A4302605969114A0A405A61DB68002B00D098478020C000FFF7B2FF084B1B685B030CD5074B1B685B0304D531
:4007C000064B1B69002B00D098478020C002FFF7A1FF10BD10020640C40000204C010020FFFBFFFF0A4B1B688268F0210A40402A01D0002A04D1074A13400122134304E08C
:4008000001229343802292051343014A1360704730003A40FFFFFFDF8000114B9C4660440268104B1A420BD00F4B1A68D3009A1AD3000E4AD318DB681B070DD400200EE00A
:40084000094B1A68D3009A1AD300084AD318DB685B0703D4002002E0012000E00120704780003A400001000164010020B4200000024A13685B005B081360704700003A4036
:4008800010B5040000F0E0F9A08E002100F0E8F9FF2000F0CBF9A368194A1268002A02DA8022520300E000221343164A1360164BE2681A60154BA2691A60154BE2691A6074
:4008C000144B22691A60144B62691A60134A00211160134B1960A16A1160626A1A600122104B1A60002306E09A000F498C46624400211160013362689342F5D310BDC046FD
:4009000080033A4000003A4004003A4018003A401C003A4010003A4014003A4028023A4038023A4018023A4080003A40074B1B685B0306D5054A1368802149020B43136017
:4009400002E00122024B1A607047C04604003A4024003A400100431E012B11D8094A0A4B1B6801201840013A002803D18B0701D5002AF4D1002804D00122034B1A6000E062
:4009800000207047FFFFFF0310023A4070B50500144B1A68D3009A1AD300134AD3185B68834202D80020FFF737FD0E4B1A68D3009A1AD3000C4AD3185B689D4207D2AB00DF
:4009C0000A4A944663441C682404240C00E000242800FFF721FF012801D120B200E0200070BDC04664010020B420000080013A4070B50C000A4B19680A4ECB005D1AEA0025
:400A000095592D18B2185368984202D30020FFF703FD6D00044BE85A00B2201A00B270BD64010020B42000008801002070B5154B1D68154EEB005C1BE20094592418B218CA
:400A4000D3689B071BD4FFF7D3FF10494143002806DDA3000E4A9B58D80FC3185B1006E0A3000B4A9A58D30F9A18521053425818A400074BE15800F0C9FD00B200E000207D
:400A800070BDC04664010020B4200000102700008C010020F0B5474680B42D4B1B79002B38D051E0EA00521BD3002A4AD318DB685B070FD5EA00521BD300264AD3189B6856
:400AC000E02212011340934204D163002249234A995203E063000021204A99521D4B9846EF007B1BDE004644F16A1D4BC818490000F08CFD00B2A3001A4A98507F1BFB0034
:400B000042469A587368D318013B9C4200D10135013401E000250024002CC3D003210F20FFF78EFC10490F20FFF778FC084B5B79002B09D10122064B5A71064C2000FFF79E
:400B40009FFE226A094B1A6004BC9046F0BDC04664010020B420000000F8FFFF88010020000071028C010020210C000020003A4010B50D4B1B68002B0CDB0C4B1B68002B9F
:400B8000FBDB094A1368802109060B4313600A20FFF768FD064B1A68D3009B1AD800054BC018FFF71FFE10BD00003A40A0023A4064010020B420000010B5074B1B79DB07E4
:400BC00006D4FFF767FF044A117901230B431371FFF7CEFF10BDC0466401002010B50C4B1B685B0312D50A4A11680A4B0B401360094B1A68D3009A1AD300084AD3181B6B1F
:400C00009B0703D5FFF734FEFFF7D6FF10BDC04604003A40FFFFFEFF64010020B4200000014B1A681A60704710023A408023DB051B68002BFADB0002024B18438023DB05E4
:400C400018607047410000808023DB051B68002BFADB024A8023DB051A6070474100004010B5064A13680724234000021843CB00FF2119400143116010BDC046040300406F
:400C800010B50A20FFF7B4FB10BDC04610B500F01DF810BD10B5044A1368802109060B431360FFF7EDFF10BD0000094010B5064B1B78002B04D1FFF7E9FF0122024B1A70BE
:400CC000FFF7E8FF10BDC0466C01002010B500241B4B1C601B4A1C4B1A601C4B1C4A13601C4A14601C491D4A11601D4A13601D4B1C600A20FFF786FB03210A20FFF7A0FB11
:400D000019490A20FFF78AFB184B1C60184B1C604C22FF32174B1A60174B1C60174B1C60174B1C603C3AFF3A164B1A70164B1C70164B1C60164B1C60164B1C7010BDC046D8
:400D40000000094077080040600009400701008000030940040309401000FE0010030940000209400402094025110000C80E0940880E0940480F0940080F0940C80F094046
:400D8000880F0940900100209901002094010020A80100209801002010B50E4A13685B005B08136000230C490B600C490B600C4804680C49214001600B490B600B490B60F0
:400DC00010210B4B19701368802109060B43136010BDC04600000940680009406C00094060000940FF5CFFFF880F0940C80F09409001002010B50A20FFF704FB064A147802
:400E00000F231C4013780D218B4313700A20FFF7EFFA200010BDC0469901002070B504000D0000280ED00A20FFF7ECFA064B1C60064B1D600023064A1360064A13600A20B4
:400E4000FFF7D6FA70BDC046A0010020B001002094010020A40100200022014B1A6070479401002010B500F075F810BD10B500F01DF810BD10B5044A1368802109060B4307
:400E80001360FFF7EFFF10BD0000084010B5064B1B78002B04D1FFF7E9FF0122024B1A70FFF7E8FF10BDC04674010020154A164B1A600023154A13601549164A1160164A42
:400EC00016490A6007201649086016490B6006381549086015490A60154A13600421154A1160154A1360154A1360154A1360154A1360154A1360154A13601268144B1A807F
:400F00007047C0460B000002000008404000084001000A00480008400700008000030840040308401003084044000840000208400402084050000840880E0840C80E084048
:400F4000480F0840080F0840C80F0840880F084076010020024B1A88024B1A607047C04676010020880F084070B50500002402E000F0B4FA0134285D0028F9D170BDC04648
:400F800004490868044B1B680322134003430B607047C046040030407801002030B5204C204B216819400304F022120313400B4323601D4C25681D4929401A4011430D003F
:400FC0005A0C07211140032213405A1E4B005B189B189B00164A9B58F02212051A402B0013432360002804D180225205114B1A6003E080225205104B1A60094B1B685A0C82
:4010000007211140032003405A1E4B005B189B189B00074A9B580340084A136030BDC04678010020FFFFF0FF04003040FFFFF0F0EC2000008400304080003040080F3040BF
:4010400010B50E4A0E4B1A600E4A1368802109060B4313600C4B19680C4A0A401A601A68802109010A431A601B689B0701D0FFF787FF0920FFF792FF10BDC0460100090057
:40108000780100200000304004003040FBF7FFFF10B5064B1B79002B04D1FFF7D1FF0122024B1A71FFF76CFF10BDC046780100200230800803D001300238FCD1C046C046BA
:4010C0007047EFF3108072B6704780F31088704770B50400FFF7F5FF0500102C05D8104A136803218B43136016E0202C07D80C490B6803229343023A13430B600CE0302C92
:4011000007D807490B6803229343013A13430B6002E00020FFF780F92800FFF7D6FF70BD3000104010B5CA4B1B68002B00D09847C84B1B68DB0702D50022C74B1A60C74BBF
:401140001B789B0622D4C64B1A680223FF331A421CD0C24B1B78DB070AD5C24A137802218B431370117809230B43DBB213700AE0BC4A137820218B431370117870235B42CE
:401180000B43DBB213700022B44B1A70B34B1B789B0600D55AE1B14B1B78DB0600D453E1AF4B1B689B0740D50222AF4B1A60AF490B681D321A40096880231B020B4000D040
:4011C00001239B18AA4A1278D2B2934206D2A54A117804230B43DBB2137006E0A44A12789B1AA4490A68D31A0B60A24B1A68A24B1A600023A14A13609D4A1370A04B1A6874
:40120000802149020A431A6019689E4A0A401A60944A137802218B431370117801230B43DBB2137010228D4B1A708D4B1B681B0739D508228C4B1A60934B1B689B040CD46C
:4012400014E0924B1A68924909688A1891490968C9B211701A6801321A608F4B1B68DB06EFD1894A11688D4B0B4013608C4B1B689B0605D57B4A117840230B43DBB21370F3
:401280000022884B1A60884A854B1A60754A137820218B431370117810230B43DBB213706E4B10221A706E4B1B685B0648D501227E4B1A607E4B1B68DB0610D50F326F4B0B
:4012C0001A606D4B1A686B4B1A60664A117802230B43DBB213701222604B1A7025E0754B1B686A4A12689B1A072B03D804226D4B1A6011E0082B06D1634A1368A021090266
:401300000B43136008E0604A1368802189010B4313600822634B1A60524A117820230B43DBB2137011224D4B1A70634A4E4B1A60624A116808230B4313600122604B1A606D
:40134000604B1B681B072AD55A4B1B684F4A1068181A0838082802D9002408200EE001240CE04A4B1A684A4909688A1849490968C9B211701A6801321A6001380028F0D110
:40138000002C08D0404A1368802109020B4313600022444B1A600822414B1A6025E0494B1B685B0721D53B4B1B68384A1168414A126891420DD20121414A1160334A116819
:4013C000334800684118DBB20B7013680133136008E002223A4B1A60224A117840230B43DBB2137004222E4B1A60374B1B68DB0620D42BE01F4B1A68344B1B689A420CD220
:401400001C4B1A68324909688A181278D2B231490A601A6801321A600CE0FF222D4B1A60134B1B78DBB20A2B04D8114A13780133DBB213700D4B1B681F221340082BD9D110
:401440000F3A254B1A6001E0FFF7A6FC10BDC046700100208C0E0940880E0940900100204C0F094099010020400F09400802094098010020A401002094010020880F09408D
:4014800004020940FFFFFEFF60000940A8010020AC0100204003094008030940FF5FFFFFC00F0940C80F0940ED0F0000800E0940640009409C010020FF0F0000480F094044
:4014C0006C000940CC0F09408C0F0940B0010020A001002040020940800F0940044B1B681F221340082BF9D0024B18607047C0460802084040020840002243088B4274D3F9
:4015000003098B425FD3030A8B4244D3030B8B4228D3030C8B420DD3FF22090212BA030C8B4202D31212090265D0030B8B4219D300E0090AC30B8B4201D3CB03C01A5241AC
:40154000830B8B4201D38B03C01A5241430B8B4201D34B03C01A5241030B8B4201D30B03C01A5241C30A8B4201D3CB02C01A5241830A8B4201D38B02C01A5241430A8B4283
:4015800001D34B02C01A5241030A8B4201D30B02C01A5241CDD2C3098B4201D3CB01C01A524183098B4201D38B01C01A524143098B4201D34B01C01A524103098B4201D3B7
:4015C0000B01C01A5241C3088B4201D3CB00C01A524183088B4201D38B00C01A524143088B4201D34B00C01A5241411A00D20146524110467047FFE701B5002000F0F0F85E
:4016000002BDC0460029F7D076E7704703460B437FD4002243088B4274D303098B425FD3030A8B4244D3030B8B4228D3030C8B420DD3FF22090212BA030C8B4202D312121B
:40164000090265D0030B8B4219D300E0090AC30B8B4201D3CB03C01A5241830B8B4201D38B03C01A5241430B8B4201D34B03C01A5241030B8B4201D30B03C01A5241C30AFB
:401680008B4201D3CB02C01A5241830A8B4201D38B02C01A5241430A8B4201D34B02C01A5241030A8B4201D30B02C01A5241CDD2C3098B4201D3CB01C01A524183098B42B9
:4016C00001D38B01C01A524143098B4201D34B01C01A524103098B4201D30B01C01A5241C3088B4201D3CB00C01A524183088B4201D38B00C01A524143088B4201D34B0052
:40170000C01A5241411A00D201465241104670475DE0CA0F00D04942031000D34042534000229C4603098B422DD3030A8B4212D3FC22890112BA030A8B420CD389019211C6
:401740008B4208D3890192118B4204D389013AD0921100E08909C3098B4201D3CB01C01A524183098B4201D38B01C01A524143098B4201D34B01C01A524103098B4201D328
:401780000B01C01A5241C3088B4201D3CB00C01A524183088B4201D38B00C01A5241D9D243088B4201D34B00C01A5241411A00D20146634652415B10104601D34042002BA7
:4017C00000D54942704763465B1000D3404201B5002000F005F802BD0029F8D016E770477047C046014B18687047C046280100200E4B70B500251E000D4CE41AA410A54200
:4018000004D0AB00F35898470135F8E700F0AEFC084B00251E00084CE41AA410A54204D0AB00F35898470135F8E770BD78210000782100007821000080210000002310B58E
:401840009A4203D0CC5CC4540133F9E710BD00000EB410B59DB002A9029008610B48822488604861012040421FABC881084804CBA400006801938C8100F06EF80023029AFD
:4018800013701DB010BC08BC03B01847FFFFFF7F28010020F0B58E6885B007000C00039201939E4243D890238A89DB001A423ED003250969236801985B1A029363695D432B
:4018C000EB0F5D19029B6D1001331B18AB4200D91D00530510D52900380000F037FB061E14D0029A2169FFF7A9FFA289194B134080221343A38112E02A00380000F086FBC5
:40190000061E0CD12169380000F0D4FA0C23402201203B60A38940421343A38117E0029B2661F61826606561019EED1AA560019BB34200D21E0032000399206800F0A5FA2B
:401940000020A3689B1BA36023689E19266005B0F0BDC0467FFBFFFFF0B59FB0029005938B890F0016001B0610D50B69002B0DD1402100F0EBFA38603861002804D10C236E
:40198000029A01381360D8E040237B61002306AD6B6120336B761033AB7634002378002B03D1A31B049312D003E0252BF9D00134F4E7A31B320039000298FFF76BFF431C1B
:4019C00000D1B4E06A69049B944663446B612378002B00D1ABE00122002352426A6002A95432521801342B60EB60AB601370AB65534E21780522300000F03CFA002807D003
:401A00000123801B83402A68013413432B60EFE72B68DA0604D55322202102A8121811701A0704D553222B2102A81218117022782A2A03D0099B00200A210EE0059A111DD4
:401A400012680591002A01DB099204E05242EA60022213432B6001340BE02278303A092A04D84B4301349B180120F6E7002800D0099323782E2B1ED163782A2B0AD1059B25
:401A800002341A1D1B680592002B01DA01235B42079310E000230A201A0001346B6021783039092904D84243013452180123F6E7002B00D00792234E21780322300000F0CF
:401AC000D9F9002806D04023801B83402A68013413432B60217806221B48661C297600F0C9F9002812D0194B002B06D10722059B073393430833059314E005AB00933A0029
:401B0000134B2900029800E000BF07E005AB00933A000F4B2900029800F08AF80390039B013304D06B69039A9B186B6135E7BB890B985B0601D5012040421FB0F0BDC0466A
:401B4000362100003C210000402100000000000095180000F7B5170001938A680B6900900C00934200DA130022003B6043321278002A01D001333B6023689B0602D53B685C
:401B800002333B60062523681D401ED0230043331B785A1E9341226892061CD53020E1184331087021005A1C45310978A2184332023311700FE0220001231932019900986F
:401BC000089EB047431C0ED00135E3683A689B1A9D42F0DBDAE72200019943320098089DA847431C02D10120404220E006232068E1683A6803400025042B03D18D1AEB43BA
:401C0000DB171D40A3682269934201DD9B1AED180027BD420AD0220001231A3201990098089EB047431CDED00137F2E70020FEBDF0B58BB006920A0043320793059004923C
:401C40000A7E0C00109B6E2A00D1ABE011D8632A22D009D8002A00D1B5E0582A00D0C5E045310A70814A4FE0642A1DD0692A1BD0BCE0732A00D1AAE009D86F2A29D0702ADD
:401C800000D0B3E0202209680A43226037E0752A1FD0782A33D0A9E00E001A684236111D196013683370A4E021681A68080606D4490604D5111D19600023D55E02E0111DF3
:401CC00019601568002D3BDA2D23049A6D42137036E021681A68080606D4490604D51568111D1960ADB202E0111D196015685F4B227E039308276F2A1DD00A271BE02200EF
:401D00007821453211705A4A19680392081D226818600D68100602D4500600D5ADB2D30702D520231A4322601027002D03D1202322689A4322602300002243331A7002E0E8
:401D40000A274A4B03936368A360002B09DB0422216891432160002D05D1049E002B11D07BE0002D79D0049E28003900FFF74AFC039B013E5B5C280033703900FFF7BCFB20
:401D8000051EF1D1082F09D12368DB0706D563682269934202DC3023013E3370049B9B1B23612BE009681A68080607D4490605D5111D19601368A28A1A8004E0111D19604B
:401DC000136862691A600023049E236116E01A68111D1960166800216268300000F04AF8002801D0801B6060636803E0260042363270012323610023049A1370079B09AA6D
:401E000000932100069B0598FFF7A4FE431C02D10120404227E02369320006990598079DA847431CF4D0236800259B070FD4099BE068984217DA180015E022000123193202
:401E400006990598079EB047431CE1D00135E368099A9B1A9D42F0DBE9E72600039B42361B7833708EE70BB0F0BDC0464721000058210000C9B28218904204D003788B42EE
:401E800002D00130F8E70020704710B5884202D98B18984201D3002305E09B1A013A08D3995C8154FAE7934203D0CC5CC4540133F9E710BD70B50500002944D00C1F23684A
:401EC000002B00DAE418280000F0D8F81E4A13681100002B02D16360146031E0A3420DD92268A018834203D118685B688218226063600C6024E0A24203D813005A68002AC9
:401F0000F9D11E689819A0420BD12168711858181960824214D110685268411819605A600EE0A04202D90C232B6009E021686018824203D1106852684118216062605C600F
:401F4000280000F09CF870BD84010020032370B5CD1C9D43083506000C2D01D20C2501E0002D01DBA94202D90C23336048E0300000F084F8234B1C681A002100002913D0E0
:401F80000B685B1B0DD40B2B02D90B60CC181EE08C4202D1636813601AE04B6863600C0016E00C004968E9E7174C2368002B03D1300000F051F820602900300000F04CF8B8
:401FC000431C18D00323C41C9C43A0420DD12560300000F054F8200007220B30231D9043C31A0ED05A42E2500BE0211A300000F033F8431CEBD10C233000336000F03FF83F
:40200000002070BD8401002080010020F8B506000C001500002904D11100FFF797FF040018E0002A03D1FFF745FF2C0012E000F027F885420ED929003000FFF787FF071E95
:4020400007D021002A00FFF7F9FB21003000FFF731FF3C002000F8BD002370B5064C050008002360FEF738F9431C03D12368002B00D02B6070BDC046B401002070477047C2
:402080000B1F1A68101F002A04DA891804390B68D01804387047000000000000566F6C74616765203D20256C642E252E326C64000A0D00000000000001000000C00E2050F4
:4020C000B90004906A000200020002000002000E00000000010000000000000000000000B004000001000000010000000200000F0200000F0200000F020000080200000914
:40210000020000090100000302000005020000040100000002000002020000030100000002000000020000010100000001000000010000004300232D302B2000686C4C0042
:402140006566674546470030313233343536373839414243444546003031323334353637383961626364656600000000F8B5C046F8BC08BC9E4670476D01000051030000CF
:40218000F8B5C046F8BC08BC9E46704745010000A0210000A8000020880000008800000000000000B8010020010000000000E02EC05D00001800000000366E0104040400AC
:4021C000000000000000000000000000000000000000000000000000000000000000000034210000000000000000000000000000000000000000000000000000000000008A
:402200000000000000000000000000000000000000000000000000000000000000000000C800002000000000000000000000000000000000000000000000000000000000B6
:40224000000000000000000000000000000000000000000000000000000000000000000000000000000000000000000000000000000000000000000000000000000000005E
:40228000000000000000000000000000000000000000000000000000000000000000000000000000000000000000000000000000000000000000000000000000000000001E
:4022C00000000000000000000000000000000000000000000000000000000000000000000000000000000000000000000000000000000000000000000000000000000000DE
:40230000000000000000000000000000000000000000000000000000000000000000000000000000000000000000000000000000000000000000000000000000000000009D
:0200000490303A
:02000000546B3F
:0200000490402A
:200000000000000000000000000000000000000000000000000000000000000000000000E0
:0200000490501A
:0C00000000021C2021AC00011C2A761715
:0200000490600A
:0100000001FE
:00000001FF