:400000000010002011000000750900007509000010B500F099FE00F0CDFCC04610B51D4C12232360182000F007FE802252001A4B1A608023DB051949196019490A60194A05
:400040001A60E0210901184A1160184A1A6080214901174A1160174A1A602022164B1A602132164B1A600132154B1A600132154B1A6015490B2000F027FD0B2000F00EFD8C
:400080000022124B1A60002000F066FE1123236010BDC046300010400003004040FF00800403004041FF00800803004042FF00800C03004043FF00802800034030010040C7
:4000C0000801004004010040ED0D00000C02064010B572B6134A144B1A60EE221206134B1A600022124B1A602032124B1A60124A124B1A60FF23124A1360124A13609E222C
:4001000011490A6011490A60114A136090221204104B1A603F22104B1A60FFF77FFF00F011F910BDEE009900000002400003024004013F4000000440B6112700080004404B
:400140000001044018010440000204401802044000030440080304401803044010B5064C2378002B07D1054B002B02D0044800E000BF0123237010BD300100200000000082
:40018000785D0000084B10B5002B03D00749084800E000BF07480368002B00D110BD064B002BFBD09847F9E70000000034010020785D0000A80000200000000000028A000E
:4001C0000E4BD358C822D2019A18904203DC0C4A9A18904203DA8B00084A985005E0C01A001118188B00054A98508900034BCB581A12DB1101200340D01870474C0100209B
:40020000009CFFFFF0B595B062B6202104A801F079F901F095F901F061F900F0B3FE01F0B7FA01F0E9FA00F033FE01F039F801F0B1F801F09FF9202000F046FE00F056FFD2
:40024000022000F067FF002000F080FF070001F039F8012001F0E0FA00F058FE00F04EFE002547E0ECB2200000F02EFE00F03EFF022000F04FFF002000F068FF060001F0BF
:4002800021F8F01B2100FFF799FF03900134E4B2200000F019FE00F029FF022000F03AFF002000F053FF060001F00CF8F01B2100FFF784FF00B26B460C21595E01F0D4F97C
:4002C00001F0E8F90CAA06235355691C54335354EA0F5219521001320F4C0093543B0F49200005F025F9200001F0B2F90C4801F0AFF902351F2DB5DD20220CA904A805F09B
:400300000DF901F01DF901F0E9F800F00FFEFA20400000F011FC9CE71C020020805D0000985D0000064B1B68002803D080221206134301E05B005B08014A13607047C046FE
:4003400080033A4010B580231B06184A13601849184A11601849194A116090210904184A1160184A13601849184A1160184A13601849194A11608021184A11601849194ADD
:4003800011600121184A1160184A13600322184B1A60184A184B1A60F122184B1A60D13A174B1A600120FFF7BDFF10BD00003040800008008000304009000400880030405D
:4003C000900030400000314060020400880031400000384002000001100038401800384020000002280038404001384000003A4008013F400100008000023F4008023F4092
:40040000000E3F40202800D993E08000494B1B589F460422484B1A608BE0484A116870230B43136085E00422434B1A6081E0434A1368E021C9000B4313607AE004223E4BA2
:400440001A6076E03D4A1368E021C9010B4313606FE00422384B1A606BE0384A1368E021C9020B43136064E00422334B1A6060E0324A116807230B4313605AE004222E4B7C
:400480001A6056E080222E4B1A6052E004222A4B1A604EE040222A4B1A604AE00422264B1A6046E02022264B1A6042E00422224B1A603EE01022224B1A603AE004221E4B94
:4004C0001A6036E008221E4B1A6032E004221A4B1A602EE004221A4B1A602AE00422164B1A6026E00222164B1A6022E00422124B1A601EE00122124B1A601AE004220E4BB5
:400500001A6016E004220F4B1A6012E004220A4B1A600EE00822084B1A600AE00422064B1A6006E00222044B1A6002E00222024B1A6070479C5D0000900030400003024015
:400540009000314088003040202800D990E08000484B1B589F460422474B1A6088E0474A136870218B43136082E00422424B1A607EE0424A1168424B0B40136078E0042253
:400580003D4B1A6074E03D4A11683E4B0B4013606EE00422384B1A606AE0384A11683A4B0B40136064E00422334B1A6060E0334A136807218B4313605AE004222E4B1A604F
:4005C00056E08022314B1A6052E004222A4B1A604EE040222D4B1A604AE00422264B1A6046E02022294B1A6042E00422224B1A603EE01022254B1A603AE004221E4B1A6047
:4006000036E00822214B1A6032E004221A4B1A602EE004221D4B1A602AE00422164B1A6026E00222194B1A6022E00422124B1A601EE00122154B1A601AE004220E4B1A6067
:4006400016E00422124B1A6012E004220A4B1A600EE00822084B1A600AE00422064B1A6006E00222044B1A6002E00222024B1A607047C046205E00009400304000030240BC
:40068000FFF8FFFFFF8FFFFFFFFFF8FF940031408C003040202800D9A8E08000544B1B589F4680229200534B1A609FE080229201504B1A609AE08022D2004E4B1A6095E018
:4006C000802292014B4B1A6090E080221201494B1A608BE080229201464B1A6086E080225201444B1A6081E080229201414B1A607CE0802252003F4B1A6077E080229201F7
:400700003C4B1A6072E0802212033B4B1A606DE080229201374B1A6068E080221202364B1A6063E080229201324B1A605EE00222324B1A605AE0802292012E4B1A6055E0D9
:4007400004222E4B1A6051E080229201294B1A604CE080229202284B1A6047E080229201244B1A6042E080229201234B1A603DE0802292011F4B1A6038E0802252021E4B8C
:400780001A6033E0802292011A4B1A602EE080225201194B1A6029E080229201154B1A6024E0174B8022D2011A608022D2031A601CE0802292010F4B1A6017E08022920227
:4007C0000F4B1A6012E0802292010A4B1A600DE0802252020A4B1A6008E080229201054B1A6003E080225202054B1A607047C046A45E000000033A409000314088003140BD
:4008000090003040202800D9A8E08000544B1B589F4680229200534B1A609FE080229201504B1A609AE08022D2004E4B1A6095E0802292014B4B1A6090E080221201494B0F
:400840001A608BE080229201464B1A6086E080225201444B1A6081E080229201414B1A607CE0802252003F4B1A6077E0802292013C4B1A6072E0802212033B4B1A606DE01C
:4008800080229201374B1A6068E080221202364B1A6063E080229201324B1A605EE00222324B1A605AE0802292012E4B1A6055E004222E4B1A6051E080229201294B1A6042
:4008C0004CE080229202284B1A6047E080229201244B1A6042E080229201234B1A603DE0802292011F4B1A6038E0802252021E4B1A6033E0802292011A4B1A602EE0802227
:400900005201194B1A6029E080229201154B1A6024E0174B8022D2011A608022D2031A601CE0802292010F4B1A6017E0802292020F4B1A6012E0802292010A4B1A600DE03F
:40094000802252020A4B1A6008E080229201054B1A6003E080225202054B1A607047C046285F000004033A40940031408C0031409400304010B504F0A5FD03680C2B00D18F
:40098000FEE7FEE710B50300084A1068C318084A9A1A802A02DC054A136005E004F092FD0C2303600120404210BDC046AC0000206002002070B50F4E0F4D13E029686B68BD
:4009C000AC68002202E001C901C30432A242FAD1E868002202E0002102C304328242FAD11035013E002EE9D104F072FDFFF70AFCFEE7C04601000000DC60000010B5002392
:400A00000AE0032B03D89A000849505800E008489900084A88500133282BF2D9FFF758FB80229205044B1A6010BDC04600000000750900000000002008ED00E00C4B1B6880
:400A40009B001C22134018330A4A1268920803210A40D34008490868084A02400A60084A944663441B78DBB2064A13607047C046080F03402800034000000640FFFFFFBF1D
:400A8000CDF1FF0F0C0F0340034B18688023DB05184000D001207047000006401F2318401E3B8340014A13607047C04600E100E01F2318401E3B8340014A13607047C04652
:400AC00080E100E001BE704770B504000D00182802D90020FFF7F6FF1034A40080239B059C4664442068256070BDC04670B504000E00032902D90020FFF7E4FF182C02D998
:400B00000020FFF7DFFF03252540ED00063500F098FEA408A400074B9C46644421680323AB4099430B003100A9401943216000F08CFE70BD00E400E010B5040006E0084B75
:400B4000586800F075FE074B9C46644480231B029C42F4D8024B9868604300F069FE10BDB00000200080FFFF70B582B000F0E2F800284DD000F065FE0500264B1A68920067
:400B80001C231A401832244B1B689B0803210B40DA400021214B1960214C2168214B0B4021494A438021C9018C466244D20B013A5205520D1343A0225203134323601B4B2D
:400BC0001B680193302000F043FE194A13688021C9050B4313602668164B1E40002407E00120FFF7A9FF1034A30533430C4A1360EE2CF5D90120FFF79FFFFF239B051E434D
:400C0000074B1E60019A094B1A60280000F01DFE02B070BD080F0340280003400C0F03400800064000F800C040420F003000104000000640FFFF3FC0F0B583B004001828D0
:400C40000BD01C2809D0202807D0242805D0282803D02C2801D0302849D100F0F2FD0190FFF712FF002803D0FFF7E8FE012600E00026214A136807218B4313601F4BE31853
:400C80001B78DBB21E4A13601E4A13688B4313601D4803687F22934319001C4BE3181B7813400B430360322000F0C2FD182C16D9114F3B680725AB431A0023001C3B9B0834
:400CC0002B4013433B60322000F0B2FD3A68AA432300183B9B082C001C4014433C60012E01D1FFF741FF019800F0AFFD02E00020FFF7E8FE03B0F0BD080F0340CDF1FF0FB4
:400D00000C0F0340100F0340180F0340B4F1FF0F10B5034B1B7B584300F08AFD10BDC046B0000020024B1868800F80077047C0460C020640034B1B68002B01DA012000E0AC
:400D40000020704700000640014A024B1A6070476588EDAC3800034010B50400FFF7E2FFA0421AD0144A136803218B431360134B1B689B0F01D17C2001E086204000FFF72C
:400D8000C7FF00F05EFD0D4A13689B009B08A40FA4071C43146000F058FD074B1B6803229343064A1268920F01D1023200E001221343014A136010BD140206400C020640C7
:400DC00010B5040000F03DFD054B1C4005490B68054A134023430B600B6800F036FD10BD0404040010020640FBFBFBFF10B5244B1B685B0715D5234B1B685B070ED5224BC3
:400E00005969042001401F4C22688A4322605A6982435A619B68002B00D098470420FFF7CFFF174B1B685B0518D5164B1B685B0510D5154B59698022D2001140114802683A
:400E40008A4302605969114A0A405A61DB68002B00D098478020C000FFF7B2FF084B1B685B030CD5074B1B685B0304D5064B1B69002B00D098478020C002FFF7A1FF10BD68
:400E800010020640C4000020CC010020FFFBFFFF10B5002407E02000FFF756FB2000FFF7B1FC0134E4B2202CF5D9FF22014B1A7010BDC046C800002010B50400FFF7A2FA25
:400EC0002000FFF7E7FB10BD10B50400FFF7E0FF2000FFF7F1FF014B1C7010BDC8000020044A1368802109060B431360F022024B1A60704700023F4004023F40024A116867
:400F000001230B431360704704023F4010B5064B1B78002B04D10122034B1A70FFF7E0FFFFF7ECFF10BDC046E4010020024A136801218B431360704704023F400222064B83
:400F40001A6080221206054B1A600422044B1A60013A044B1A607047E80100200000304004003040080F3040044A1168044B1B680B43802109010B431360704704003040D7
:400F8000E801002010B5064B1B79002B04D1FFF7D5FF0122024B1A71FFF7E6FF10BDC046E80100200A4B1B688268F0210A40402A01D0002A04D1074A13400122134304E0AA
:400FC00001229343802292051343014A1360704730003A40FFFFFFDF8000114B9C4660440268104B1A420BD00F4B1A68D3009A1AD3000E4AD318DB681B070DD400200EE043
:40100000094B1A68D3009A1AD300084AD318DB685B0703D4002002E0012000E00120704780003A4000010001F0010020AC5F0000024A13685B005B081360704700003A40AB
:4010400010B5040000F074F9A08E002100F07CF9FF2000F05FF9A368194A1268002A02DA8022520300E000221343164A1360164BE2681A60154BA2691A60154BE2691A60F0
:40108000144B22691A60144B62691A60134A00211160134B1960A16A1160626A1A600122104B1A60002307E09A000F498C466244802149001160013362689342F4D310BD72
:4010C00080033A4000003A4004003A4018003A401C003A4010003A4014003A4028023A4038023A4018023A4080003A40074B1B685B0306D5054A1368802149020B43136050
:4011000002E00122024B1A607047C04604003A4024003A400100431E012B11D8094A0A4B1B6801201840013A002803D18B0701D5002AF4D1002804D00122034B1A6000E09A
:4011400000207047FFFFFF0310023A4070B50500144B1A68D3009A1AD300134AD3185B68834202D80020FFF7ADFC0E4B1A68D3009A1AD3000C4AD3185B689D4207D2AB00A2
:401180000A4A944663441C682404240C00E000242800FFF721FF012801D120B200E0200070BDC046F0010020AC5F000080013A40F0B5474680B4214B1B79002B20D039E08B
:4011C000630000211E4A99521E4B9846FE00F31BDD004544E96A1C4BC818490002F070F900B2A300194A9850F61BF30042469A586B68D318013B9C4200D10137013401E00C
:4012000000270024002CDBD003210F20FFF76EFC0F490F20FFF758FC084B5B79002B09D10122064B5A71074C2000FFF709FF226A084B1A6004BC9046F0BDC046F001002079
:401240002C020020AC5F000000007102300200200913000020003A4010B50D4B1B68002B0CDB0C4B1B68002BFBDB094A1368802109060B4313600A20FFF74AFD064B1A6894
:40128000D3009B1AD800054BC018FFF78BFE10BD00003A40A0023A40F0010020AC5F000010B5074B1B79DB0706D4FFF781FF044A117901230B431371FFF7CEFF10BDC04667
:4012C000F001002010B50C4B1B685B0312D50A4A11680A4B0B401360094B1A68D3009A1AD300084AD3181B6B9B0703D5FFF7A0FEFFF7D6FF10BDC04604003A40FFFFFEFF01
:40130000F0010020AC5F0000014B1A681A60704710023A408023DB051B68002BFADB0002024B18438023DB0518607047410000808023DB051B68002BFADB024A8023DB050E
:401340001A6070474100004010B5064A13680724234000021843CB00FF2119400143116010BDC0460403004010B50A20FFF796FB10BDC04610B500F01DF810BD10B5044A3A
:401380001368802109060B431360FFF7EDFF10BD0000094010B5064B1B78002B04D1FFF7E9FF0122024B1A70FFF7E8FF10BDC046F801002010B500241B4B1C601B4A1C4B68
:4013C0001A601C4B1C4A13601C4A14601C491D4A11601D4A13601D4B1C600A20FFF768FB03210A20FFF782FB19490A20FFF76CFB184B1C60184B1C604C22FF32174B1A60F8
:40140000174B1C60174B1C60174B1C603C3AFF3A164B1A70164B1C70164B1C60164B1C60164B1C7010BDC0460000094077080040600009400701008000030940040309403C
:401440001200FE00100309400002094004020940A5180000C80E0940880E0940480F0940080F0940C80F0940880F0940340200203D020020380200204C0200203C020020D0
:4014800010B50E4A13685B005B08136000230C490B600C490B600C4804680C49214001600B490B600B490B6010210B4B19701368802109060B43136010BDC0460000094053
:4014C000680009406C00094060000940FF5CFFFF880F0940C80F09403402002010B50A20FFF7E6FA064A14780F231C4013780D218B4313700A20FFF7D1FA200010BDC04617
:401500003D02002070B504000D0000280ED00A20FFF7CEFA064B1C60064B1D600023064A1360064A13600A20FFF7B8FA70BDC046440200205402002038020020480200203F
:401540000022014B1A6070473802002010B500F075F810BD10B500F01DF810BD10B5044A1368802109060B431360FFF7EFFF10BD0000084010B5064B1B78002B04D1FFF755
:40158000E9FF0122024B1A70FFF7E8FF10BDC04600020020154A164B1A600023154A13601549164A1160164A16490A6007201649086016490B6006381549086015490A606C
:4015C000154A13600421154A1160154A1360154A1360154A1360154A1360154A1360154A13601268144B1A807047C0460B000002000008404000084001000A004800084090
:401600000700008000030840040308401003084044000840000208400402084050000840880E0840C80E0840480F0840080F0840C80F0840880F084002020020024B1A8867
:40164000024B1A607047C04602020020880F084070B50500002402E000F000FB0134285D0028F9D170BDC04610B50200084B5943002805DA404280B24008434218B201E000
:4016800080B240084018110001F01AFF10BDC046983A0000F8B503F0DFFD00F0EDFA03F067FE03F011FE04000D001B4A1B4B02F0A3FF1B4A1B4B02F04FF806000F00002240
:4016C000194B2000290000F05FFB184A184B02F093FF02000B003000390002F03DF803F047FE03F0F1FD02000B000020114902F05FFB114A114B03F0F9F90022104B02F016
:401700007BFF00220F4B02F027F803F031FE02F001F800B2F8BDC046570817298EA7303FB69E68F13E9B503F000008406BFA7BDC5285ECBD0000F03F66666666661271405C
:40174000000059400000E03F0222064B1A6080221206054B1A600022044B1A600332044B1A607047040200200000304008003040140F3040044A1168044B1B680B43802175
:4017800009010B4313607047080030400402002010B5064B1B79002B04D1FFF7D5FF0122024B1A71FFF7E6FF10BDC046040200200222064B1A6080221206054B1A60002231
:4017C000044B1A600332044B1A6070470C0200200000314008003140140F3140044A1168044B1B680B43802109010B4313607047080031400C02002010B5064B1B79002B39
:4018000004D1FFF7D5FF0122024B1A71FFF7E6FF10BDC0460C02002004490A68D2B204239A4380001840104308607047000004400230800803D001300238FCD1C046C0468C
:401840007047EFF3108072B6704780F31088704770B50400FFF7F5FF0500102C05D8104A136803218B43136016E0202C07D80C490B6803229343023A13430B600CE0302C0A
:4018800007D807490B6803229343013A13430B6002E00020FFF716F92800FFF7D6FF70BD3000104010B5CA4B1B68002B00D09847C84B1B68DB0702D50022C74B1A60C74BA2
:4018C0001B789B0622D4C64B1A680223FF331A421CD0C24B1B78DB070AD5C24A137802218B431370117809230B43DBB213700AE0BC4A137820218B431370117870235B4247
:401900000B43DBB213700022B44B1A70B34B1B789B0600D55AE1B14B1B78DB0600D453E1AF4B1B689B0740D50222AF4B1A60AF490B681D321A40096880231B020B4000D0B8
:4019400001239B18AA4A1278D2B2934206D2A54A117804230B43DBB2137006E0A44A12789B1AA4490A68D31A0B60A24B1A68A24B1A600023A14A13609D4A1370A04B1A68EC
:40198000802149020A431A6019689E4A0A401A60944A137802218B431370117801230B43DBB2137010228D4B1A708D4B1B681B0739D508228C4B1A60934B1B689B040CD4E5
:4019C00014E0924B1A68924909688A1891490968C9B211701A6801321A608F4B1B68DB06EFD1894A11688D4B0B4013608C4B1B689B0605D57B4A117840230B43DBB213706C
:401A00000022884B1A60884A854B1A60754A137820218B431370117810230B43DBB213706E4B10221A706E4B1B685B0648D501227E4B1A607E4B1B68DB0610D50F326F4B83
:401A40001A606D4B1A686B4B1A60664A117802230B43DBB213701222604B1A7025E0754B1B686A4A12689B1A072B03D804226D4B1A6011E0082B06D1634A1368A0210902DE
:401A80000B43136008E0604A1368802189010B4313600822634B1A60524A117820230B43DBB2137011224D4B1A70634A4E4B1A60624A116808230B4313600122604B1A60E6
:401AC000604B1B681B072AD55A4B1B684F4A1068181A0838082802D9002408200EE001240CE04A4B1A684A4909688A1849490968C9B211701A6801321A6001380028F0D189
:401B0000002C08D0404A1368802109020B4313600022444B1A600822414B1A6025E0494B1B685B0721D53B4B1B68384A1168414A126891420DD20121414A1160334A116891
:401B4000334800684118DBB20B7013680133136008E002223A4B1A60224A117840230B43DBB2137004222E4B1A60374B1B68DB0620D42BE01F4B1A68344B1B689A420CD298
:401B80001C4B1A68324909688A181278D2B231490A601A6801321A600CE0FF222D4B1A60134B1B78DBB20A2B04D8114A13780133DBB213700D4B1B681F221340082BD9D189
:401BC0000F3A254B1A6001E0FFF75AFC10BDC046FC0100208C0E0940880E0940340200204C0F09403D020020400F0940080209403C0200204802002038020020880F09408D
:401C000004020940FFFFFEFF600009404C020020500200204003094008030940FF5FFFFFC00F0940C80F0940ED0F0000800E09406400094040020020FF0F0000480F0940CD
:401C40006C000940CC0F09408C0F0940540200204402002040020940800F0940044B1B681F221340082BF9D0024B18607047C0460802084040020840F0B5474680B48CB006
:401C800004000D0000F03CFA3A4B06001B780F005BB2984601330FD022002B002000290003F078FA002807D1002200232000290001F01CFD002805D0300039000CB004BC4D
:401CC0009046F0BD2C4B0A90039343460494059506940795002B1AD1E022284B120608920993200000220023290001F0E5FC002838D00223029302A801F03EFA002817D0C4
:401D00000A9B0193002B18D1089E099FD4E700221B4B20000892099329000022002301F0CBFC00280FD0022302934346022BE2D103F0C8FB22230360E2E703F0C3FB0A9BA2
:401D400001930360E0E7012302934346022B0BD103F0B8FB212303600A4801F00FFA08900991CDE70123029302A801F005FA0028F2D1EDE7C9000020E45F0000FFFFEFC7E9
:401D80000000F0FFE85F0000F0B55F464D4656464446F0B491B01F0004000D00160000F0B1FBCF4B029003919B461B785BB2994601334FD032003B003000390003F0EAF984
:401DC0000090002846D122002B002000290003F0E1F900228246002834D100232000290001F06AFC00283AD0002200233000390001F062FC0590002800D174E006AB984637
:401E0000012342460693B74B5360434652469C60DD601A621E615F614246002300249361D4614B46002B00D194E00023AE4C009301940098019911B03CBC90469946A246CD
:401E4000AB46F0BD00233000390001F035FC002800D0EBE0029B039C00930194E9E70298039901F07FF98146002800D186E0029803990022002301F01FFC0028EAD02000D1
:401E8000290001F06FF9029A039B009201930028CFD03000390001F065F9029A039B009201930028C5D006AB98460423424606938C4B9460D560536000230024136200233B
:401EC0009361D4615B461B78166157615BB2022B04D0404601F050F9002840D103F0F2FA222303603BE03000390001F03BF9029A039B0092019300289BD0002200233000B7
:401F0000390001F0DFFB002800D192E706AB9846012342460693734B53604346059A9C60DD601A621E615F615B461B785BB2002B0BD0002042466D499061D161022B09D1FB
:401F400003F0C0FA2123036009E04246002300249361D461404601F00FF90028F0D043461B6A002B04D003F0ADFA43461B6A03604346DC699B69009301945AE72000290029
:401F800001F0F0F8002800D171E73000390001F0E9F8002800D16AE7029803990B00020003F0F8F806AB984600287AD10323424606934C4B106253605B461B789460D560EA
:401FC0005BB2166157619946002B48D1E0224146474B12068A61CB61200000220023290001F070FB002800D173E70022414B3000390002F001FB04000D0001F0C5F8020035
:402000000B002000290001F057FB002805D1E022394B120641468A61CB615B461B785BB299464B46022B00D053E757E706AB98460123424606932B4B536043469C60DD60EA
:402040000024009A284D1A621E615F619C61DD614B4600940195022B00D07BE7E9E600224146264B20008A61CB6100220023290001F028FB0028D4D000221E4B30003900BB
:4020800002F0BAFA04000D0001F07EF802000B002000290001F010FB0028BED10022134BB8E70123424606930E4B536043464A469C60DD601A621E615F6100245B461C5744
:4020C000002C00D141E7002300221900100001F06FFE43469861D961022C00D130E739E7C9000020EC5F00000000F03F0000F0FFFFFFEF470000E03FFFFFEFC70000F07F35
:40210000F0B557464E464546E0B4DA4A88B00B00914255DC4A005208024300D1EFE0002900DA79E1D44B002202F066FA3625D34C0B006D42A34247DC1A151B031B0B984639
:40214000CF4C8023A446CF4C5B0344442340CE4C624452195C4045461B1599462543CA4B29009144002202F0C1FC434602331B0306000F001B0B0022022B2FDC002301F021
:402180009BFA002800D1C1E04B46002B00D14CE1484603F01FF8BD4ABD4B04000D0002F02BFABC4A06000F00BB4B2000290002F023FA02000B003000390001F0CDFA07E0D9
:4021C000AE4C0025A342B7DD02000B0001F0C4FA08B01CBC90469946A246F0BD8023DB0501F0BAFA02000B003000390001F0E0FD040048460D0002F0EDFF22000290039180
:402200002B00200029000494059502F0F5F904000D00A24B020043449A460B000094019502F0EAF904000D009D4A9E4B02F0E4F99D4A9E4B01F090FA22002B0002F0DCF998
:402240009B4A9C4B01F088FA22002B0002F0D4F9994A9A4B01F080FA009A019B02F0CCF9974A00900191974B2000290002F0C4F9954A964B01F070FA22002B0002F0BCF907
:40228000934A944B01F068FA22002B0002F0B4F90B0002000098019901F05EFA0D0041468D4B04005B1A51460B43002B54DD00228A4B3000390002F09FF932003B0002F02C
:4022C0009BF94B460A00010000910192002B72D1130029000200200001F03EFA049A059B02F08AF902000B000098019902F0FEFB02000B003000390002F0F8FB68E70022EC
:4023000000230020764901F053FD61E7754A764B3000390002F070F902000B0000206F4902F0E4FB320004000D003B003000390002F062F90B0002002900200002F05CF947
:402340004B4604000D00002B72D102000B003000390002F0CBFB3BE74B46002B00D1C5E002980399494A4A4B02F046F92200009001912B003000390002F0B8FB049A059B81
:4023800002F03AF9434A04000D0002980399424B02F032F902000B002000290002F0A6FB32003B0002F0A2FB02000B000098019902F09CFB0CE7354A354B0298039902F0B3
:4023C0001BF9009A019B069007912000290001F0C3F9049A059B02F00FF92E4A04000D00029803992C4B02F007F902000B002000290001F0B1F902000B000098019902F0ED
:4024000075FB32003B0002F071FB02000B000698079902F06BFBDBE602000B0002F066FB0022002301F0C4FCD2E600200021CFE6484602F0CFFE154A154B0090019102F0D9
:40244000DBF8144A0290039100980199124B02F0D3F802000B002000290002F047FB32003B0002F043FB02000B000298039902F03DFBADE6FFFF0F0000005043FFFFEF7F86
:4024800001FCFFFF645F09000000F03F0000E0FE422EE63F763C7935EF39EA3D86EBF9FF44523EDF12F1C23FDE03CB966446C73F599322942449D23F935555555555E53F72
:4024C0009FC678D0099AC33FAF788E1DC571CC3F04FA97999999D93F51B806000000E03F000050C3555555555555D53F22002B003000390002F0FAFA049A059B02F07CF86C
:40250000F6E6C046F0B556464D4644465F46F0B41C001300670091B07F080093019406000D0080468946A2463B4332D06E4B6C0064089C4229DC26D09F4226DC6A4B9F4299
:4025400000D189E000239B464B46002B00DA87E0002A2FD1644B9F4200D19FE0634B9F425DD08023DB059A4501D100F0C1FB604B9A451FD14B46002B1CDB3000290000F004
:40258000F7FC060007E000280DD05A4BE01830430BD100265549300011B03CBC90469946A246AB46F0BDA742C8DD534800F0E6FD0600F0E73000290000F0D0FD4346002BBF
:4025C0001DD0EB0F013B98465B464246134379D04A4B9F4200DC9FE0494B9F4201DC00F0CEFB484B9C4279DD5346002B79DD464A464B1000190001F0FFFF0600CBE7002C38
:4026000004D03A4AAB009B089342DAD15346002B00DAADE34B46002B0DDB0600BBE753462900002BB7DA32002B0000202F4901F0BFFB0600AFE72F4B9C465B4664441C433C
:4026400001D100F02BFC5B460600012BA3D180231B069C4661449EE7002A00D172E794E72B4B9F422BDC274B9F4200DC70E729493B158C466344142B01DC00F0F2FB34211E
:40268000CB1A0099D94008009840824200D05FE70123194001335B1A9B4659E7154BE018064300D175E7174B9C4200DC51E35346002B16DB009B019C1E0021006BE70223C1
:4026C0009B4645E732002B003000290002F00EFA02000B0001F06CFB06005CE75346002B85DB0026002156E70000F07F0000F03F0000E03F000010C0E85F00000000E041D2
:402700000000F043FFFFEF3F9C7500883CE4377EFFFF3F4301FCFFFFE84B00229C4206DC0022E74B01F068FF35220C005242E54D2315AC46634499462403E34DE34B240B03
:40274000914425439C4209DDE14B9C4200DCA9E301239C46DF4BE1449C466544002300240022089309940C930D940024D64B06920793069A079B29000A900B9102F0B6F96C
:40278000069A079B06000F000A980B9900F0E4FF02000B000020CC4901F00AFB0A00010013000E910F9202003900300001F024FF0A000100802004910592130000228021E7
:4027C0000003844602920393002289056D100D4365442B190298039914001D0001F00CFF02000B003000390002F080F9069A079B06000F002000290002F078F902000B0024
:402800000A980B9902F072F9029A039B01F0F4FE02000B003000390002F068F90E9A0F9B01F0EAFE049D059E069007912A0033002800310001F0E0FE06000F00A64AA74BF6
:4028400001F0DAFEA64AA74B00F086FF32003B0001F0D2FEA44AA54B00F07EFF32003B0001F0CAFEA24AA34B00F076FF32003B0001F0C2FEA04AA14B00F06EFF32003B009C
:4028800001F0BAFE9E4A9F4B00F066FF320004000D003B003000390001F0AEFE02000B002000290001F0A8FE029E039F04000D000498059932003B0000F04EFF069A079B5E
:4028C00001F09AFE22002B0000F046FF32000A900B913B00300039000296039701F08CFE0022894B04000D0000F036FF0A9A0B9B00F032FF00260F0032000B0002980399D5
:4029000001F07AFE0022029003917F4B3000390002F0ECF822002B0002F0E8F802000B000A980B9902F0E2F8049A059B01F064FE320004000D00069807993B0001F05CFE07
:4029400002000B002000290000F006FF04000D0002000B000298039900F0FEFE0026E0226A4B120630000F0001F046FE029A039B049005913000390002F0B8F802000B00E7
:402980002000290002F0B2F8614A604B01F034FE604A04000D00604B3000390001F02CFE02000B002000290000F0D6FE0C9A0D9B00F0D2FE060048460F0002F00BFC040007
:4029C0000D000498059932003B0000F0C5FE089A099B00F0C1FE22002B0000F0BDFE002022002B000290039102F080F8089A099B02F07CF8049A059B02F078F802000B002D
:402A00003000390002F072F8049005915B464246013B134300D197E100232B4C069307940098019900260B0032000F0002F05EF8029A039B01F0E0FD009A019B04000D009A
:402A40000498059901F0D8FD02000B002000290000F082FE04000D00029803993B0032000494059501F0C8FD009001910B0002002900200000F070FE284B81460F008A4605
:402A8000994200DC3CE1264BCB18034300D0DBE104980599234A244B00F05EFE009A019B04000D004846390002F020F802000B002000290000F01AFE3E0037E0FFFF0F00E2
:402AC0000000404301FCFFFF0000F03F8E98030079B60B000000F0FFEF4E454A287ECA3F65DBC9934A86CD3F01411DA96074D13F4D268F515555D53FFFAB6FDBB66DDB3FB6
:402B0000033333333333E33F0000084009C7EE3FFD033ADCF5015B14E02F3EBEFFFF8F40000070BFFE822B654715973C002800D08AE18022E74B52039C46130036156644F5
:402B40003341E549DB195E001C001B038C461B0B13431422760DE14F66443741961B334198465346BC4300202100002B00DAA9E102000B000098019901F0B8FF0B000090E1
:402B8000019102000498059900F0E6FD43461B05994600200022D24B06000F0001F02CFD009A019B029003913000390001F09EFF02000B000498059901F098FFC94ACA4B14
:402BC00001F01AFDC94A04000D00C94B3000390001F012FD02000B002000290000F0BCFD04000D0002000B000298039900F0B4FD029A039B06000F0001F078FF02000B0074
:402C00002000290001F072FF3200009001913B003000390001F0F0FC04000D00B54AB64B01F0EAFCB54AB64B01F060FF22002B0001F0E2FCB34AB44B00F08EFD22002B00FC
:402C400001F0DAFCB14AB24B01F050FF22002B0001F0D2FCAF4AB04B00F07EFD22002B0001F0CAFC02000B003000390001F03EFF04000D0002000B003000390001F0BCFC12
:402C80008023029003910022DB052000290001F02DFF02000B000298039901F089F8009A019B04000D003000390001F0A5FC009A019B00F051FD02000B002000290001F031
:402CC00015FF32003B0001F011FF02000B000020924901F00BFF4B465B181A15002A00DCF4E01900069A079B01F086FC060052E4320030002B00290001F07EFC06004AE4E3
:402D0000874B4E0076089E4200DCBFE0854BCB1803430CD1009A019B01F0E8FE02000B000498059900F0D8FC002800D101E7069807997D4A7D4B01F05FFC7B4A7B4B01F036
:402D40005BFC0600FFF727FC0023794C0693079466E65346002B00DBC3E4009B019C802212061E009446230063441900FFF713FC02000B000020694901F01AF84AE46D4B95
:402D80009C4200DCAAE4654B9C4201DDFFF72CFC0022624B01F0AAFEC022674BD20504000D0001F029FC654A06000F00644B2000290001F021FC002202900391614B200069
:402DC000290001F019FC02000B005F485F4901F08DFE22002B0001F00FFC02000B0000205B4901F083FE2200049005912B002000290001F001FC02000B000498059901F05A
:402E0000FBFB544A4C4B01F0F7FB02000B000298039901F06BFE02000B0004000D003000390000F099FC002210003B0032000290039101F05BFE02000B002000290001F085
:402E400055FE04900591E1E5434A444B0698079901F0D2FB404A414B01F0CEFB0600FFF79AFB002A01D0FFF7A5FB1432D31A3A001A41110099408F4201D0FFF76FFB01232D
:402E800013400222D31A9B46FFF768FB304B9E4200DD4EE60023994698467AE602000B00FFF714FC80232E4CDB05089309942D4B2D4C00220C930D9480242C4BE402069294
:402EC000079356E443465B42984651E6424600F0FDF907E702FCFFFF01FCFFFFFFFF0F00432EE63FEF39FAFE422EE63F396CA80C615C20BED0A4BE726937663EF16BD2C549
:402F000041BDBB3E2CDE25AF6A56113F93BDBE166CC1663F3E5555555555C53F0000F03FFFCB904000346F3F59F3F8C21F6EA5010000F0BFFEFFEF3F4715F73F44DF5DF803
:402F40000BAE543E0000D03F555555555555D53F0000E03FFE822B659C7500883CE4377E03B8E23F06D0CF43EBFD4C3E0000F83FF0B556464D4644465F46754BF0B40A006A
:402F80000D00190083B0060004002940994200D1BAE0002D00DC94E02D1500D1A3E06D4B12039C468023120B5B0365441A43EB0700D581E06B109846E30F9B189B1880229E
:402FC00016210026002764009203B818984202DC87181B1AB618E00F5B0001391B18640052080029F1D1002201929446802212062020914609E09F4241D0E10FC918013885
:40300000CB186400520800281ED0614651189F42F1DA8D18AC46CD0FED07BA464D4539D0DB1B8C42BF417F42DB1B641A019901388B46934459460191E10FC9185746CB1825
:40304000640052080028E0D123432BD1019B5B08414972108C466244F10702D5802109060B43414609058D181E002F003000390003B03CBC90469946A246AB46F0BDA1424E
:403080000ED88D18AC46CD0FED074D4548D09A460023CAE76546002DC2DB7D1CAA46BFE73B00AAE7019B01333ED0019A01239446134063445B08CBE7E30F52009A18640015
:4030C00078E76B005B0803432F00002BCED00025002A31D1E20A153D6405002AFAD080235B031A4223D180200023400300E00B005200591C0242FAD02020401AED1A23009E
:40310000C3408C401A434AE702002B00290001F073FA32002B0000F01FFB06000F00A5E76546002DB9DAB2E70136002390E7012320205B420021E1E73B000200390001F050
:40314000D5FC02000B0000F033FE06000F008DE70000F07F01FCFFFF0000E03F49004B0819007047034B48009C4640086044C00F7047C04600001080002070470020014911
:403180007047C0460000F87FF0B5474680B4CB0F98464A4C4B005B0D1E1982B007000A00132E35DC002E57DB454B040033411F000F4007430D00002F24D05B081C000C408D
:4031C00020430027002807D0132E00D172E08022D202324199430A434346DE00394B11009E1934687568380022002B0000F0B4FA009001910098019922002B0001F076FC7D
:4032000004000D002000290002B004BC9046F0BD332E0CDD80230400DB000D009E42F1D102000B0000F098FA04000D00EAE7264C0D00A446012463446442DC40A4466146CB
:4032400004000142DED049080142C5D08027FF051F4188430743BFE74B005B08034304000D00002BCED00B031B0B03435A42134380221B0B120313404A0C520413431900E5
:403280004346104ADB00D3181C685D6822002B0000F062FA009001910098019922002B0001F024FC42464B005B08D607334304001D00A7E780273F0689E7C04601FCFFFF3C
:4032C000FFFF0F00F05F0000EDFBFFFF4B0070B55B0D14000A00002B1AD14B005B08034315D00022224B01F087F9224B0A009C4222DB4B005B0D363B1F4DE318AB4220DCE1
:40330000002B0DDD1D4C1B0522401A43110070BD1B4DAB42F0D102000B0000F01DFAF6E71D00353518DA174B02009C420ADC0B001548164900F032F8134A144B01F05CF967
:40334000E5E702000B001248124900F027F8104A104B01F051F9DAE7084C363322401B051343190000220C4B01F046F9CFE7C04600005043B03CFFFFFE070000FFFF0F80DD
:40338000FF07000050C3000059F3F8C21F6EA5019C7500883CE4377E0000903C30B54A00DB0FDB0752081A43110030BD002243088B4274D303098B425FD3030A8B4244D354
:4033C000030B8B4228D3030C8B420DD3FF22090212BA030C8B4202D31212090265D0030B8B4219D300E0090AC30B8B4201D3CB03C01A5241830B8B4201D38B03C01A5241A0
:40340000430B8B4201D34B03C01A5241030B8B4201D30B03C01A5241C30A8B4201D3CB02C01A5241830A8B4201D38B02C01A5241430A8B4201D34B02C01A5241030A8B4266
:4034400001D30B02C01A5241CDD2C3098B4201D3CB01C01A524183098B4201D38B01C01A524143098B4201D34B01C01A524103098B4201D30B01C01A5241C3088B4201D35B
:40348000CB00C01A524183088B4201D38B00C01A524143088B4201D34B00C01A5241411A00D20146524110467047FFE701B5002000F0F0F802BDC0460029F7D076E770479B
:4034C00003460B437FD4002243088B4274D303098B425FD3030A8B4244D3030B8B4228D3030C8B420DD3FF22090212BA030C8B4202D31212090265D0030B8B4219D300E01F
:40350000090AC30B8B4201D3CB03C01A5241830B8B4201D38B03C01A5241430B8B4201D34B03C01A5241030B8B4201D30B03C01A5241C30A8B4201D3CB02C01A5241830A9B
:403540008B4201D38B02C01A5241430A8B4201D34B02C01A5241030A8B4201D30B02C01A5241CDD2C3098B4201D3CB01C01A524183098B4201D38B01C01A524143098B425C
:4035800001D34B01C01A524103098B4201D30B01C01A5241C3088B4201D3CB00C01A524183088B4201D38B00C01A524143088B4201D34B00C01A5241411A00D201465241E5
:4035C000104670475DE0CA0F00D04942031000D34042534000229C4603098B422DD3030A8B4212D3FC22890112BA030A8B420CD3890192118B4208D3890192118B4204D3E3
:4036000089013AD0921100E08909C3098B4201D3CB01C01A524183098B4201D38B01C01A524143098B4201D34B01C01A524103098B4201D30B01C01A5241C3088B4201D3DD
:40364000CB00C01A524183088B4201D38B00C01A5241D9D243088B4201D34B00C01A5241411A00D20146634652415B10104601D34042002B00D54942704763465B1000D3AF
:40368000404201B5002000F005F802BD0029F8D016E770477047C0468446101C62468C46191C634600E0C0461FB500F03BFF002801D40021C8421FBD10B500F08FFE4042AA
:4036C000013010BD10B500F02DFF002801DB002010BD012010BDC04610B500F023FF002801DD002010BD012010BDC04610B500F0B5FE002801DC002010BD012010BDC046FA
:4037000010B500F0ABFE002801DA002010BD012010BDC0464302590A4300C20F1B0E00207E2B0EDD9D2B0DDC802000040143952B0BDC9620C31AD9400B005842002A00D122
:4037400018007047034BD018FBE7963B99400B00F3E7C046FFFFFF7FF8B556465F464D464446F0B40F00FD0FAA4609037C002E005F00450F490A7F0D2943C5001803BC4601
:40378000400A570F640DDB0F3843D2009A4500D1AAE06646A61B002E00DCFFE06346002B39D10300134300D0D9E06B0709D00F232B40042B05D02B1DAB42AD416D42491941
:4037C0001D000B0200D482E0CA4B01349C4200D1FEE00A005646C84BED081A405007640552020543120B640D002112030B0D1B056405120B1A436308C04CF60714401C4328
:40380000640064083443280021003CBC90469946A246AB46F8BDB74B9C42C6D080231B041843382E00DDEBE01F2E00DD1EE120239B1B9C4603006746BB40984613004746EF
:40384000F3403B436746BA40571EBA4113430200F240EB1A9D42B6411D008A1A7642911B0B0231D54A02560A002E00D1B4E0300001F00AFE0300083B1F2B00DDB5E0202237
:403880002900D21AD1409E400A009D4032439C4200DDB1E01C1B631C1F2B00DDD5E0202114002800C91A8C40D8408D400443DA40681E854111002543002476E74146314317
:4038C00000D134E2310045466B0700D06FE756464807ED08C9080543864B9C4235D00A036405120B640D7FE76346E31A9B46002B00DC8BE06746002F3CD07E4FBC4200D1F9
:4039000053E780273F0438435B46382B00DCF7E00243501E82410020D2B253194218AB4289411D00494289180B02CDD5714B01349C4200D13DE101206F4A6B080A402840E5
:403940001843D507054351082FE72B000B4300D1CBE180231B030B431A03120B44E7013E002E6DD1AE1AB5429B41091A5B42C91A350075E70700174300D116E701235B4285
:403980009C46E3445B46002B00D0E0E0AA18AA429B4109185B4259181500C5E7002E75D1661C7605760D012E00DCF3E0AE1AB0464545BF410E1A7F42F61B370200D48FE098
:4039C000551BAA42B641411A76428E1B9A464BE756460022002507E7280001F055FD20300300083B1F2B00DC49E72A002838824000259C4200DC4DE73F49E41A1140D4E68E
:403A00000243501E8241D3B2002222E7002B00D0F3E0631C9C465B055B0D012B00DC9FE0344B9C4500D1C3E0AA180918AA42804140424118CD075208154349086446B4E688
:403A40002C4B9C4200D0ECE6AFE611001F3CE1400C00202B00D17FE04021CB1A9A4015436A1E95410021254300242DE733000700203BDF403B00202E70D04027BE1BB04062
:403A80000243501E824113430022E2E6002C4FD0184CA44500D1ABE08024240476422143382E00DDDFE01F2E00DD43E12027BC1BA1460C004F46BC40A0462C004746F440AF
:403AC0003C434F46BD406F1EBD41F1402C43151BAA429241411A5242891A64469A46BFE641464546314300D0BEE6002600240025F2E6C046FF070000FFFF7FFFFFFF0F8084
:403B00001F2B59DC2027FF1ABC46070063469F405B46B9461700DF40B8464F4643461F4363469A40531E9A415B463A43D840F4E60C002C435CD0F643002E55D1551BAA4252
:403B4000A441411A6442091B9A46644688E6964FBC4200D0D8E628E6002280E700208FE70B002B43002C00D0C2E0002B00D101E10300134300D118E6AB18AB42B6410918C0
:403B8000764271180A0200D409E1884A1D00114064460AE6002C5BD10E002E4300D08AE00100114300D1C2E0010015009A46FCE56446002100258FE620235B429C46DC4429
:403BC00063460700DF405B46BC46202B00D1ACE040235F46DB1B98400243501E8241634613431A00002098E66F4CA44500D057E70100150064469A46D7E5002C39D10C0058
:403C00002C436ED0DB43002B1AD0674CA44568D0382B00DDA4E01F2B00DDAEE020240F00E41AA740B9462F00DF40B846A3464F46444627435C46A5406C1EA541D9403D43D2
:403C4000AD1895429B4109185B42591864466BE60C002C4315D1010011437BD0010015009A46514CA1E50D43691E8D410021ECB22DE74D4CA44534D0802424045B422143BD
:403C8000C6E7040014434ED0ED084C072C438025C9082D03294208D0C6082E4205D1D208410711430C009A463100620FC900E50011433D4C79E50600164300D175E5AE1AEB
:403CC000B0464545BF410E1A7F42F61B370200D4F4E5551BAA42B641411A7642891B9A4663E50100150064465FE5002200257BE5002B3BD00300134315D0ED084B072B435E
:403D00008025C9082D03294207D0C4082C4204D141070B002100D2081343C9005A0F1143DD00214C41E5204C3FE5002054E700260025D1E534000F00203CE7403C00202EB6
:403D40002BD04027BE1BB1400D43691E8D4100212C43BCE6802100260903134C0025BBE50D43691E8D410021EDB269E7010015000D4C1AE50100150017E51C000F00203C8D
:403D8000E7403C00202B0CD04027FB1A99400D43691E8D410021254352E70021D4E71D0092E50021F3E7C046FF070000FFFF7FFFF0B556464D4644465F46F0B41D000E03F5
:403DC0004C00CB0F87B0070092468146360B640D98466AD06D4B9C4235D08022430F12041343F6001E43C3009946694B00279C460023644402932B0368001B0BED0F514696
:403E00009B46400D009500D178E0604B98426CD05B46DA004B0F802109040B4313439B465346D9005A4B9C46002360444246201A6A40924601901F430F2F00D9B0E0554892
:403E4000BF00C0598746374300D088E0002399460233082700260293CDE74346B34649460093029B009A9246022B00D0BFE1002153460122002689461A40444B00213603B1
:403E80000C0D2405360B2643434C1B0526401E437600D207760816434846310007B03CBC90469946A246AB46F0BD330003434FD0002E00D1BCE1300001F0E6FA03000B3B53
:403EC0001C2B00DDADE11D220100D31A08393A008F408E40DA40B9461643304B00279C46002360444442029385E753465A4613432CD1002300219B46023397E70B4320D0E5
:403F00005B46002B00D19EE1584601F0BDFA03000B3B1C2B00DD8FE102005946083A91408B461D21CB1A5146D9400B0059460B4351469B469140194B9C466044404200231A
:403F400074E7002300219B4601336FE703236DE70023994601330427002602934BE703230C27029347E70122D51A382D00DCB0E153461A4000210023002689467EE70023BB
:403F80008026994600223603004B77E7FF07000001FCFFFF00600000FFFF0F80F30300005E4500D972E100D16DE1019B4D46013B01930023340002935B461E020B0E1E4380
:403FC0000B020393330C994633041B0C494620000093FFF7EBF9009B370043430600494620009846FFF768FA2C0C09040C43A04509D9E419731EA74200D95CE1A04500D89E
:4040000059E1023EE4194346E41A49462000FFF7CDF90300009A80465343494620009B46FFF74AFA2A040904120C0A4393450DD94346D219013B974200D93AE1934500D8C3
:4040400037E102235B429C46D219E0445B46D21A4346360433439B460399180C0B0C1D00059309045B46090C0C001B041B0C4443049159436B4368431B190D0CEB189C42EE
:4040800003D980246402A44660441C0C09041B04090C20185D18824200D2DEE000D1D7E0161A029B9C465D1BAC459B415B42F61AB74200D106E149463000FFF777F9009B88
:4040C00004004343494630009846FFF7F5F92E0C09040E43B04509D9F619631EB74200D9F3E0B04500D8F0E0023CF6194346F31A494618000293FFF759F9009B06004343E6
:40410000494602989846FFF7D7F92D0409042D0C0D43A84509D9ED19731EAF4200D9D6E0A84500D8D3E0023EED192404210043463143049E059A3000ED1A0B040C0C1B0C3B
:4041400058436643534354439A19030C9B189E4203D980225202944664441A0C00041B04000C14191B18A54250D34DD001231943964A019B94466344002B00DCF3E64A079B
:4041800009D00F220A40042A05D00A1D8A42894149428B4411005A46D20108D55A468C4B1A4093468022D2009446019B6344894A934200DD5BE65A46C908500708435602C4
:4041C000514601225B058146360B5B0D0A4055E680231B031E4211D05A461A420ED15E461E433603360B2A0089467B4B46E6032B00D1E1E0012BBBD11A40BBE61E4336035C
:40420000360B4246744B39E6002BB1D07D194A1EAF4252D91100A542A8D1039A9A42A5D1A6E703003E00283B9E400023994654E601F02AF9203041E603005246283B9A4003
:404240000021934677E6504601F01EF920305EE6029B0026AB4200D323E7039E0299B44661448846B045B6415B467642F619B218013B0291974213D290424FD800D18EE09C
:40428000161A9B460DE7894500D28EE674084B46F60735005B081D434B46DB0702938BE69742EDD10399029CA142E5D93E1A9B46F7E69846CAE61E00A5E6AC423ED874D063
:4042C000110053E70121494252E71C000EE71E002BE71F2D3CDC20230A0058465B1B9840EA4099400243481E81415E461143EE404B0709D00F230B40042B05D00B00191D2C
:4043000099429B415B42F61833023CD55346012200211A40002601238946AFE502235B429C46039CE344A446029B63449846A045B6417642F6190293B218B1E603988A1E9F
:4043400041008142B6417642F619AD19039161E71F225242D31A5A46DA401300202D29D040225846551BA8400143481E814107200B4318400026002809D00F2200261A409B
:404380001900042ABBD10B0070077602360BDB0803439946012253461A4000236EE502998D42BBD89B4600267BE603989842C5D3110032E70020D7E780265B4636031E4300
:4043C0003603360B009A8946034B57E5FF030000FFFFFFFEFE070000FF070000F0B55F4656464D464446F0B41F035C00DB0F9A46194B0E034D00C90F8046360B6D0D8B466D
:4044000091463F0B640D9D4219D0134B9C421BD00123A54206D018003CBC90469946A246AB46F0BDBE42F6D1C845F4D1D34510D0002DF0D1304303005A1E9341EBE731008B
:4044400001230143E7D1E0E73A430123002AE2D1DEE70023DFE7C046FF070000F0B55F46444656464D46F0B41F033C0B2C4F0E034D00A3465C008446360B6D0DC90F9046BC
:40448000640DDB0FBD422BD0254FBC422ED0002D0ED130430700814678427841002C17D15F463A4314D14B460020002B0AD006E0002C02D15846024301D099421AD0012324
:4044C000484218433CBC90469946A246AB46F0BD0028F2D058425841012240421043F1E737000743D0D002204042EBE75F461743CDD0F8E7A542E2DC05DB5E45DFD808D0EE
:4045000000205E45DED248424841012340421843D8E7C445D3D80020C445F4D3D2E7C046FF070000F0B55F464D4644465646F0B41C03240BA4462F4C0F034D005E00C90FDD
:4045400080463F0B6D0D8B469146760DDB0FA54220D0284CA64222D0002D12D1384344424441002E20D0002C0DD05C42634101245B421C4320003CBC90469946A246AB46B1
:40458000F0BD002E17D05B4519D05B465C4201231C43EFE7390002240143EBD1D9E7614602241143E6D1D7E761460A43DBD100240028DFD0E9E761460A43E4D1E5E7B5428C
:4045C00003DD01225C421443D4E7B542CDDB6745DBD809D000246745CCD259464C426141012449420C43C5E7C845CED80024C845F3D3BFE7FF070000F0B55F4656464D467A
:404600004446F0B40D0399464E002B0B87B00700924680469B46760DCC0F002E69D06D4B9E4235D05B468022DD001204430F13432B439B46C3009846674B00279C4600230E
:40464000664401934A4615035000D20F53462D0B400D914600D176E05E4A90426CD080225B0F120413435C4AED0094461D4353460022DB00604449463618701C6140029036
:4046800017430F2F00D9AFE05448BF00C759BF465B461F4300D088E000239B469846023308270193CEE74946022A6AD0032A00D109E2012A00D0BBE1114000220023002580
:4046C0009046CCB200212D030A0D12052D0B1543434A1B0515401D436D00E4076D0825434046290007B03CBC90469946A246AB46F0BD034352D05B46002B00D18AE1584619
:4047000000F0C2FE03000B3B1C2B00DD7BE11D22D31A3A0001005D46DA4008398D4013008F402B439B46B8462E4B00279C46002360444642019385E752462A432CD10025A7
:404740000023022297E752462A4321D0002D00D154E1280000F098FE03000B3B1C2B00DD46E11D21CB1A51460200D9405346083A954093400D431B4A9446604440420022DA
:4047800079E7012400220C40124B0025904699E70025002301226EE703226CE700239B4698460133042701934CE703230C27019348E700238025984600242D03054B81E720
:4047C0005D464346019A6FE75D4643462100019A6AE7C046FF07000001FCFFFF40600000FFFF0F80F30300004246120C91461A0C9446424617044A461B041B0C5A43604600
:4048000090464A4642431000039262461C003F0C7A437C4342440192220C9246019A5244904506D98246802040028046C24450460390100C049048462404240C12041219E3
:4048400005922A0C2D042D0C68432C00824648467C4350438146200C8046574357444744BA4503D9802040028046C144380C3F04B84648442404240C01900498A044404483
:4048800004905846000C814658460404200C8246070048465F434C464343604660436446834650464443380C8446E4186444A34203D980235B029C46E34448463F04230CB5
:4048C0003F0C2404E419574668436F4384464D46504655434243380C814662444A445B44944503D9802040028446654403983F04834604983F0C8446E344C345804140428C
:404900008246100484460198674484466744A344BC46A345A4419946D44464428742BF41D4458041E144A04699459B417F424042C8440743120CBA18A045A4415F423B002E
:4049400064422343D71843467D19DB0D6D021D435B465A02059B1A43531E9A415B46DB0D1A4343465B021343EA0107D501225C0813402343EA07029E13436D08574AB21830
:40498000002A4BDD580709D00F201840042805D0181D98429B415B42ED180300E80104D54F4A15408022D200B2184E48824200DDE7E60124DB08680718436D025305804604
:4049C0002D0B5B0D0C407DE6802259461203114208D0154206D115432D0398462D0B4C46414B6FE65D4615432D032D0B3E4B69E603005546283B9D400023BCE6504600F044
:404A000043FD2030A8E60300283B9F400023BB46984689E600F038FD203073E60124A61A382E07DD00220C4000230025904649E6029EA3E71F2E20DC20222C001800921B44
:404A4000F040944093400443581E83411C43F540630709D00F232340042B05D023001C1D9C4292415242AD182B021FD5012400220C4001230025904624E61F202C0040423E
:404A8000821AD440202E1CD04022961BB5402B43581E83410720234318400025002809D00F2200251A401C00042AD8D1230068076D022D0B0124DB08034398460C400023DA
:404AC00000E60025E3E780220124120315432D0398462D0B0C40044BF4E5C046FF030000FFFFFFFEFE070000FF070000F0B557464E464546E0B40E001100F20F9246C50033
:404B0000420F180337037400400A4E0F7F0A3043CF4E17435A00640D520DDB0FC900B24200D1E5E001267340A61AB446534500D1AFE0002E00DC0DE1002A3AD103000B43D0
:404B400000D0E4E06B0709D00F232B40042B05D02B1DAB42AD416D427F191D003B0200D488E0BB4B01349C4200D110E13A00B94B51461A4001235007ED0852026405054336
:404B8000120B640D0B400021280012030D0D120B64052D0515436208AF4CDB072C401443640064081C4321001CBC90469946A246F0BDA74B9C42C5D080231B0418436346ED
:404BC000382B00DDFDE01F2B00DD30E1624620239B1A02009A40664690460A009940F24046464B1E99413243114363460200DA40691A8D429B410D00BA1A5B42D71A3B0216
:404C000035D57A02530A98464346002B00D1C4E0404600F039FC0300083B1F2B00DDC5E020222900D21A4746D1409F400A009D403A439C4200DDC0E01C1B631C1F2B00DD5D
:404C4000E4E0202114002800C91AD8408C408D400443DA40681E854117002543002471E7424663461A4300D14CE2674645466B0700D069E7012351467807ED08FA080B40E4
:404C8000054373498C4238D012036405120B640D79E7002E00DC9AE0002A47D06C4A944200D14FE78022120410436246382A00DC08E10143481E81410022C9B24919D21926
:404CC000A942BF410D007F42BF183A0200D442E15F4A0134944200D14EE101205D4A69083A4028400843D507054357089A4629E706000E4300D017E714E72900114300D1F6
:404D0000F9E1802109030A431203120B3BE701235B429846C4446346002B72D1691A8D429B413F1A5B42FF1A0D0068E702000A4300D107E7012252429046C4446246002A7F
:404D400000D0E6E06918A942B6413F187642F7190D00BAE7002E00D080E0621C5205520D012A00DCF9E06A1A91464D45B6413A1A7642921B9046120200D499E04D1BA942D4
:404D80008941C71B49427A1A90469A463CE752460123002513400022F5E6280000F074FB20300300083B1F2B00DC39E72A002838824000259C4200DC3EE7264FE41A1740A1
:404DC000C0E60143481E81410022C9B210E7002E00D0F1E0621C94465205520D012A00DCA0E01B4A944500D1C5E06918A94292413F185242D2194908D5070D43570864465A
:404E0000A0E6134B9C4200D0D9E69BE611001F3CE1400C00202B00D180E04021CB1A9A4015436A1E95410027254300241FE763460200203BDA406346202B71D04023664698
:404E40009B1B98400143481E814111430022CFE6FF070000FFFF7FFFFFFF0F80002C48D0CA4CA24200D1A2E07442A1468024240427434C46382C00DDDBE01F2C00DD44E1BF
:404E80004E462024A41B3E00A640A246B0464C462E00E640B4464646644626435446A5406C1EA54134002C434D46EF400D1B28E04A4643464D461A4300D0A5E600230024AB
:404EC0000025DEE61F2A5ADC66462022921B060096409146B04662460E00D640424616434A4691404A1E9141020060463143C240E4E63C002C435AD0F443A146002C52D194
:404F00004D1BA9428941C71B49427F1A14009A4675E69E4A944200D0C7E613E600227FE700208FE7002C00D0C8E03B002B4300D10FE103000B4300D104E66918A9429B414B
:404F40003F185B42DF193B0200D41AE1904B0D001F406446F6E59A4689E63A002A43002C5CD1002A75D102000A4300D1CAE007000D009A46E6E564460022002581E6624625
:404F80000600203AD6406246B046202A00D1B7E040226646921B904001434246481E8141114300228AE6794CA24200D061E707000D0014009A46C5E5002C41D13C002C436A
:404FC00078D0F443A146002C20D0704CA24271D04C46382C00DDB2E01F2C00DDBCE02026341BA2463C005646B4404E46A0462C00F440A446444666463443A4465446A54002
:4050000064466E1EB54125434C46E7406D188D4289413F184942CF19140056E6002A2FD102000A4300D184E007000D009A46574C88E53D436F1EBD41ECB200270D1B60E7FA
:40504000524CA24236D0744280263604A1463743BEE702000A4300D174E56A1A90464545B6413A1A7642921B9446120200D4F7E54D1BA9428941C71B49427F1A9A4661E518
:4050800002000A433AD0ED087C072C438025FA082D032A4208D0C7082F4205D145072C003A009A46C9080C43670FD200E5001743364C47E507000D00140043E53A002A43A1
:4050C00043D002000A4319D0ED087C072C438025FA082D032A4207D0C6082E4204D147073C003200C9080C43D700620FE50017439A46264C26E50022002544E5234C21E5AC
:40510000002049E700230025BBE54C463E00203CE6404C46B446202C31D040244E46A61BB7403D436C1EA54164462C4300270D1BE7E6802200231203144C0025A1E53D43D2
:405140006F1EBD410027EDB260E707000D000F4CF8E407000D00F5E44E463C00203EF440A0464C46202C0ED040244E46A41BA7403D436F1EBD4144460027254346E7002745
:40518000CFE70D0073E50027F2E7C046FF070000FFFF7FFF70B50E4E0C031D0349005B00240B490D2D0B5B0DB14204D0084900208B4208D070BD04430120002CFAD104491D
:4051C00000208B42F6D115432800451EA841F1E7FF07000070B5002830D0C317C4185C40C50F200000F050F9174B184A1B1AD21A1F2A18DD164AD21A9440002224035B0599
:40520000240B5B0D0021100024030A0D1205240B1443104A1B0514401C436400ED0764082C43210070BD210091400A000B21081AC4405B052403240B5B0DE3E7002500239F
:4052400000240022DEE7C0461E0400003304000013040000FFFF0F8070B5051E28D000F013F9154B154A1B1AD21A1F2A16DD2C00134A0025D21A94405A052403240B520D46
:40528000002124030B0D240B1B0523430D4C1205234013435B002800590870BD0B212C00081AC440954024035A05240B520DE7E700220024E4E7C0461E04000033040000FA
:4052C00013040000FFFF0F804200120E511C4302C9B270B55D0AC40F012915DDE02189008C466D071B0B6244002128000D0D2D052B431C4D52052B40520813435B00E40740
:405300005B082343190070BD002A15D1002D1FD0280000F0B9F80A281DDC0B232A001B1ADA4013000200153295400F4A1B03121A52051B0B520DD7E7002D06D080221B0B5E
:40534000120313436D07094ACEE7084A0023CBE700220023C8E703000B3B9D402B000025E3E7C046FFFF0F8089030000FF0700004B0070B55E0D0C03751C640A420F6D051A
:405380002243C90FC4006D0D012D2ADD3B4BF318FE2B1ADC002B42DD8001451EA841D2001043620F0243500704D00F201040042800D004328020C004104021D00133FF2BBC
:4053C00003D09201520ADBB201E0FF2300225202520ADB0513435B00C9075B080B43180070BD002E07D01443EFD08020D20080040243FF23D7E722430023002A03D0052250
:40540000D208FF2B03D05202520ADBB2DFE7002A32D08020C00302435202520AD7E71800173014DB8020000402431E20C01A1F280FDC2500124BF3189D406E1EB5419A4009
:405440002B0013432200C2401A430023ABE70023D5E702256D42EB1A1500DD40202809D0084BF3189A401443621E9441220000232A4398E70022F6E70022A8E780FCFFFF29
:4054800082FCFFFFA2FCFFFF1C2101231B04984201D3000C10391B0A984201D3000A08391B09984201D30009043902A2105C40187047C046040302020101010100000000E7
:4054C00000000000014B18687047C0462C0100200E4B70B500251E000D4CE41AA410A54204D0AB00F35898470135F8E700F0E4FD084B00251E00084CE41AA410A54204D03D
:40550000AB00F35898470135F8E770BDC4600000C4600000C4600000CC600000002310B59A4203D0CC5CC4540133F9E710BD00000EB410B59DB002A9029008610B48822491
:4055400088604861012040421FABC881084804CBA400006801938C8100F06EF80023029A13701DB010BC08BC03B01847FFFFFF7F2C010020F0B58E6885B007000C000392D0
:4055800001939E4243D890238A89DB001A423ED003250969236801985B1A029363695D43EB0F5D19029B6D1001331B18AB4200D91D00530510D52900380000F037FB061E65
:4055C00014D0029A2169FFF7A9FFA289194B134080221343A38112E02A00380000F086FB061E0CD12169380000F0D4FA0C23402201203B60A38940421343A38117E0029BB6
:405600002661F61826606561019EED1AA560019BB34200D21E0032000399206800F0A5FA0020A3689B1BA36023689E19266005B0F0BDC0467FFBFFFFF0B59FB002900593CE
:405640008B890F0016001B0610D50B69002B0DD1402100F0EBFA38603861002804D10C23029A01381360D8E040237B61002306AD6B6120336B761033AB7634002378002B68
:4056800003D1A31B049312D003E0252BF9D00134F4E7A31B320039000298FFF76BFF431C00D1B4E06A69049B944663446B612378002B00D1ABE00122002352426A6002A9BC
:4056C0005432521801342B60EB60AB601370AB65534E21780522300000F03CFA002807D00123801B83402A68013413432B60EFE72B68DA0604D55322202102A81218117004
:405700001A0704D553222B2102A81218117022782A2A03D0099B00200A210EE0059A111D12680591002A01DB099204E05242EA60022213432B6001340BE02278303A092A1F
:4057400004D84B4301349B180120F6E7002800D0099323782E2B1ED163782A2B0AD1059B02341A1D1B680592002B01DA01235B42079310E000230A201A0001346B602178DF
:405780003039092904D84243013452180123F6E7002B00D00792234E21780322300000F0D9F9002806D04023801B83402A68013413432B60217806221B48661C297600F0FC
:4057C000C9F9002812D0194B002B06D10722059B073393430833059314E005AB00933A00134B2900029800E000BF07E005AB00933A000F4B2900029800F08AF80390039B76
:40580000013304D06B69039A9B186B6135E7BB890B985B0601D5012040421FB0F0BDC04682600000886000008C6000000000000075550000F7B5170001938A680B69009044
:405840000C00934200DA130022003B6043321278002A01D001333B6023689B0602D53B6802333B60062523681D401ED0230043331B785A1E9341226892061CD53020E11889
:405880004331087021005A1C45310978A2184332023311700FE022000123193201990098089EB047431C0ED00135E3683A689B1A9D42F0DBDAE72200019943320098089D4C
:4058C000A847431C02D10120404220E006232068E1683A6803400025042B03D18D1AEB43DB171D40A3682269934201DD9B1AED180027BD420AD0220001231A3201990098F2
:40590000089EB047431CDED00137F2E70020FEBDF0B58BB006920A0043320793059004920A7E0C00109B6E2A00D1ABE011D8632A22D009D8002A00D1B5E0582A00D0C5E012
:4059400045310A70814A4FE0642A1DD0692A1BD0BCE0732A00D1AAE009D86F2A29D0702A00D0B3E0202209680A43226037E0752A1FD0782A33D0A9E00E001A684236111DB5
:40598000196013683370A4E021681A68080606D4490604D5111D19600023D55E02E0111D19601568002D3BDA2D23049A6D42137036E021681A68080606D4490604D515689E
:4059C000111D1960ADB202E0111D196015685F4B227E039308276F2A1DD00A271BE022007821453211705A4A19680392081D226818600D68100602D4500600D5ADB2D30781
:405A000002D520231A4322601027002D03D1202322689A4322602300002243331A7002E00A274A4B03936368A360002B09DB0422216891432160002D05D1049E002B11D0F4
:405A40007BE0002D79D0049E28003900FDF734FD039B013E5B5C280033703900FDF7A6FC051EF1D1082F09D12368DB0706D563682269934202DC3023013E3370049B9B1B2E
:405A800023612BE009681A68080607D4490605D5111D19601368A28A1A8004E0111D1960136862691A600023049E236116E01A68111D1960166800216268300000F04AF8EC
:405AC000002801D0801B6060636803E0260042363270012323610023049A1370079B09AA00932100069B0598FFF7A4FE431C02D10120404227E02369320006990598079D1F
:405B0000A847431CF4D0236800259B070FD4099BE068984217DA180015E022000123193206990598079EB047431CE1D00135E368099A9B1A9D42F0DBE9E72600039B423652
:405B40001B7833708EE70BB0F0BDC04693600000A4600000C9B28218904204D003788B4202D00130F8E70020704710B5884202D98B18984201D3002305E09B1A013A08D3CB
:405B8000995C8154FAE7934203D0CC5CC4540133F9E710BD70B50500002944D00C1F2368002B00DAE418280000F0D8F81E4A13681100002B02D16360146031E0A3420DD966
:405BC0002268A018834203D118685B688218226063600C6024E0A24203D813005A68002AF9D11E689819A0420BD12168711858181960824214D110685268411819605A6059
:405C00000EE0A04202D90C232B6009E021686018824203D1106852684118216062605C60280000F09CF870BD18020020032370B5CD1C9D43083506000C2D01D20C2501E06B
:405C4000002D01DBA94202D90C23336048E0300000F084F8234B1C681A002100002913D00B685B1B0DD40B2B02D90B60CC181EE08C4202D1636813601AE04B6863600C0013
:405C800016E00C004968E9E7174C2368002B03D1300000F051F820602900300000F04CF8431C18D00323C41C9C43A0420DD12560300000F054F8200007220B30231D90438A
:405CC000C31A0ED05A42E2500BE0211A300000F033F8431CEBD10C233000336000F03FF8002070BD1802002014020020F8B506000C001500002904D11100FFF797FF040046
:405D000018E0002A03D1FFF745FF2C0012E000F027F885420ED929003000FFF787FF071E07D021002A00FFF7F9FB21003000FFF731FF3C002000F8BD002370B5064C05002B
:405D400008002360FAF71EFE431C03D12368002B00D02B6070BDC04658020020704770470B1F1A68101F002A04DA891804390B68D01804387047000000000000000000001D
:405D8000546865726D20256C64203D20256C642E252E326C640000000A0D0000120400001A040000260400002E0400003C04000044040000520400005A040000680400008A
:405DC000700400007C040000840400008C040000940400009C040000A4040000AC040000B4040000BC040000C4040000CC040000D4040000DC040000E4040000EC04000067
:405E0000F4040000FC040000040500000C050000140500001C050000240500002C050000560500005E0500006A050000720500007E05000086050000920500009A050000D4
:405E4000A6050000AE050000BA050000C2050000CA050000D2050000DA050000E2050000EA050000F2050000FA050000020600000A060000120600001A0600002206000075
:405E80002A060000320600003A060000420600004A060000520600005A060000620600006A060000A2060000AC060000B6060000C0060000CA060000D4060000DE060000A8
:405EC000E8060000F2060000FC06000006070000100700001A070000240700002E070000360700004007000048070000520700005C07000066070000700700007A07000021
:405F0000840700008E07000098070000A2070000B2070000BC070000C6070000D0070000DA070000E4070000120800001C08000026080000300800003A08000044080000DB
:405F40004E08000058080000620800006C08000076080000800800008A080000940800009E080000A6080000B0080000B8080000C2080000CC080000D6080000E008000029
:405F8000EA080000F4080000FE0800000809000012090000220900002C09000036090000400900004A090000540900000000000001000000C0002050B90004906A0002003F
:405FC000020002000002000E00000000010000000000000000000000B004000001000000010000006C6F670000000000706F7700000000000000304300000000000030C3D8
:40600000A03F00006E3E0000743F0000643E0000743F00007E3F0000743F0000643E00006E3E00006E3E00007E3F0000643E00005A3E00005A3E00005A3E0000D04100002B
:40604000E8470000A8460000A8460000A6460000C0470000C0470000B2470000A6460000C0470000B2470000C0470000A6460000C8470000C8470000C8470000C849000005
:406080004300232D302B2000686C4C006566674546470030313233343536373839414243444546003031323334353637383961626364656600000000F8B5C046F8BC08BC7F
:4060C0009E46704785010000FD090000F8B5C046F8BC08BC9E4670475D010000F0600000A80000208800000030010000000000000000000060020020010000000000E02EF3
:40610000C05D00001800000000366E0104040400FF010000000000000000000000000000000000000000000000000000000000000000000080600000000000000000000099
:4061400000000000000000000000000000000000000000000000000000000000000000000000000000000000000000000000000000000000CC000020000000000000000033
:4061800000000000000000000000000000000000000000000000000000000000000000000000000000000000000000000000000000000000000000000000000000000000DF
:4061C000000000000000000000000000000000000000000000000000000000000000000000000000000000000000000000000000000000000000000000000000000000009F
:40620000000000000000000000000000000000000000000000000000000000000000000000000000000000000000000000000000000000000000000000000000000000005E
:40624000000000000000000000000000000000000000000000000000000000000000000000000000000000000000000000000000000000000000000000000000000000001E
:0200000490303A
:02000000EAB460
:0200000490402A
:200000000000000000000000000000000000000000000000000000000000000000000000E0
:0200000490501A
:0C00000000021C2021AC00011C3F0C6021
:0200000490600A
:0100000001FE
:00000001FF