:020000041000EA
:4000000000400208230100100D00000085010010000000000000000000000000000000000000000000000000000000008101001000000000000000008101001081010010E9
:400040008101001081010010810100108101001081010010810100108101001081010010810100108101001081010010810100108101001081010010810100108101001060
:400080008101001081010010810100108101001081010010810100108101001081010010810100108101001081010010810100108101001081010010810100108101001020
:4000C00010B5064C2378002B07D1054B002B02D0044800E000BF0123237010BD3C06000800000000F8260010084B10B5002B03D00749084800E000BF07480368002B00D10C
:4001000010BD064B002BFBD09847F9E70000000040060008F8260010E8000008000000007047FFF7FDFF72B60F4C104DAC4209DA21686268A368043B02DBC858D050FAE78B
:400140000C34F3E70A490B4A0020521A02DD043A8850FCDC084809490860BFF34F8F00F005F900F01DF8FEE7FC260010142700103C060008140800080000000808ED00E02A
:40018000FEE7FEE700B504207146084202D0EFF3098001E0EFF30880043001F06BFCFEE710B562B6014800F067F9FEE70000081010B5002001F0C0F910BDC04670B56249FD
:4001C000E0239B00CB580F2213401A00D0329200525807210A40032A05D0042A06D0002A12D15A4814E05A4A106811E01A00C0329200554952581F210A40112A06D0132A7C
:4002000004D0FA20C00103E0524801E080200002002B36D14C4BB222D2009A5801211140B125ED005A59120F032422405B591B0F1C4207D0444C63591B0F03242340012BDC
:4002400002D102E0012300E00023002B01D0002901D1032A4BD13C4BB022D2009D58AD03AD0B3D495958C904C90C9C58240E01231C40013401F008FF6843210001F004FF6E
:4002800035E0012B33D1304BC822D2009A5801251540C024E4001A59120F03210A401B591B0F194207D028490B591B0F03210B40012B02D102E0012300E00023002B01D049
:4002C000002D01D1032A12D11F4DC022D200AB587F210B40A958090A1F263140AC58240C3440584301F0D0FE210001F0CDFEE0239B00154AD3581B0903221340D840144CFC
:400300006060164B1D692D0AFC32154001351969090E013101F0B8FEA060290001F0B4FE0500E06020610E4BC0180E4901F0ACFE20750D4BE818FA21890001F0A5FEA061D9
:40034000C003E06170BDC0460000264000127A00C000000800366E0184050000000021403F420F0040420F00E703000010B5284801F084FE274CB022D200A3585B005B087A
:40038000A350E0218900635830208343635080235B04A350204A214BE250A02292010433E250FF221E4BE25001F056FEC0225200A35801218B43A35000F052FAFFF7FEFE40
:4003C000B0235B055B78002B04D0B0235B055B78DBB200E02123212B03D1124B0022DA605A60114C22008021042000F04BFE2000103000F0DFFE0D4B1A685123D35C002B5C
:4004000002D00B4800F04CFF00F07AFB10BDC046402600100000264001000200840500008C050000E00023405806000810080008F02100108023024AD358032018407047F5
:400440000000214010B501F0A8FB084980228C58074B2340074C23438B508823034AD358DB06FAD501F09DFB10BDC04600002140FCFF00000100FA0570B50500830504D091
:40048000E821FF310F4801F0C7FA01F086FB0400FFF7D0FF032801D1FFF7D4FF0A4AB0239B00D55080215058084B03400848034353508823044AD358DB06FAD5200001F015
:4004C00070FB70BD2422001000002140FCFF00000300FA05FEE7C04680221206054B1A601423054A1360054A1360054A054B1A607047C04600001D4100031D4144031D414C
:4005000001001180000E1F4130B587B0C04CC14D63598022120613436351012001F056FA6359C022D20513436351A022D200A35803218B43A350B84A116808688823CB58F7
:40054000C3181868B549084018601368186884241B59C01803681B021B0A80256D042B430360106805680359EB1818680140196013683E229A5C002A06D0A548E021890019
:400580004258753CA24342503E229A5C002A06D09F48E021890042583024A24342503E229B5C002B07D09A49E02292008B588020000603438B500021012000F0EFFF002192
:4005C000022000F0EBFF0021032000F0E7FF0021042000F0E3FF0021002000F0DFFF01A88F4903000A0032CA32C312CA12C301F003F8002802D00420FFF76CFF8449894A84
:400600008B588020000603438B50874801F0B0F8002802D00420FFF75DFF7D4C834BE158834A0A40E250E158824A0A40E250E25880252D062A43E250043BE1587E4A0A4063
:40064000E250E1587D4A0A40802189010A43E250E258802109020A43E250794A1168794B0B40802149000B431360002001F0D6FC754BE2581543E550E158012291430A4312
:40068000E2506421002001F00DFA634B1B683F229A5C052A06D970229A5C01210A406B49986842509A6874215B5AD21851685B4B0B408C2189010B435360574B1B687322C9
:4006C0009A5C0321914070229A5C7220185C140084402143012002400A43802109060A438021C900986842509A6852583F229A5C062A03D90021564A986881509A68742164
:400700005B5AD2181168454B0B40F82149010B431360414B1B687322995C703A8A40110070229A5C7220185C82400A43802109060A438021C900986842509A6852583F22E1
:400740009A5C132A06D97122995C6E3A8A404149986842509A687A201B5AD2181368FF210B403D490B4313602B490A689468135AE3181A687E3082431A600B687322995C73
:40078000703A100088407021595C72241C5DA14001437120185C82400A43802109060A438021C900986842509A6852583F229A5C392A06D970229A5C02210A402749986886
:4007C00042509A6874215B5AD2189168134B0B40C42189010B4393600F4B1A687323D35C032199407023D35C7220105C1C0084402143022003400B43802109060B438021EB
:40080000C9009068435093685B5807B030BDC046000026403C05000010080008FF00FFFF3C220010087F0000400D030004050000FEFCFFFFFFFF00FFFFF0FFFFFF8FFFFF8C
:4008400000002740FFFCFFFF0C050000140C0000180C00004C0C000000E0F505E40C000070B58EB09621002001F01CF901F0F2F8002814D101F0DEF8C0235B003B4AD358C4
:40088000DB0705D411003A4A8B585B005B088B503649374A8B588020000603438B50012001F054FB334A516C334B0B40E82189010B435364536C1B0AFF2213403A2B02D136
:4008C0002E4A2C4B5A642B4A516C2B4B0B40536401AC34220021200001F062FC08236360274D22000521280000F012F9FFF70CFE0F22244B1A60244A244B1A602422002169
:40090000200001F04DFC224BE3602100280000F099FA204D22002B00143343CB43C243CB43C243CB43C221001B4800F08BFA22002B00383343CB43C243CB43C243CB43C2BD
:400940002100164800F07EFA22002B005C3323CB23C223CB23C223CB23C22100104800F071FAFFF7B9FD0EB070BDC046000026400C05000000002740FF00FFFF003A00A015
:4009800000003240000067400701010000026740660080003C220010800232400003324000053240214B984230D00ED8402831D004D800281FD010282AD031E080282BD0CA
:4009C00080235B00984229D02AE0194B984229D007D8A0231B0698420DD0164B984212D01EE0154B98420AD0144B984209D0144B984215D101E0002016E0124814E012486C
:400A000012E0124810E0A020C0030DE007480BE00F4809E00F4807E00F4805E0034803E00E4801E0A420C0037047C04606005200010000F0090000A0040000F0050000F092
:400A4000030000F0010052000200520003005200010050000200500005005200FF00520070B5124B1A683123D35C002B04D1C421FF310F4800F0D0FF0C4B1D682C00B423AB
:400A8000EB582A6A944663441B68002B0BDB094B1868FFF787FF6B6801229A6063689B68002BFBD100E0044870BDC04610080008BC220010E80700080200500010B50D4B72
:400AC0001861002805D002230370FD33437000234380094B1B6850229A5C002A08D051229B5C002B04D04F3A0449002000F092FC10BDC046E80700081008000861010008AD
:400B000010B502481430FFF7D9FF10BDE8070008F8B54F464646C0B406000D001400002800D16FE1002A00D16EE1072903D94521B84800F071FF2368012B03D94621B5480B
:400B400000F06AFF0F2362689A4303D04721B14800F062FF237A1F22934303D04821AD4800F05AFFE368032B03D94921A94800F053FF2369012B03D94A21A64800F04CFF76
:400B80006369012B03D94B21A24800F045FFA369012B03D94C219F4800F03EFFE369032B03D94D219B4800F037FF236A012B03D94E21984800F030FF636A012B03D94F212D
:400BC000944800F029FFA36A012B03D95021914800F022FFE36A032B03D951218D4800F01BFF236B072B03D952218A4800F014FF2768072D03D98849884800F00DFF012F99
:400C000004D9CA218900854800F006FF002F03D10123AB40736002E00123AB40B3606768072D04D9F12189007C4800F0F5FE0F233A009A4303D07A49784800F0EDFEA90073
:400C4000784B1A687D23D35C9B191A6890460F2291468A40404690430200484607408F4017431F60277A072D04D9A22189006B4800F0D2FE1F233A009A4303D06A496748AB
:400C800000F0CAFE674B1A689369F31ADB0952691B01D318032D0AD81968E8001F22824091431F22174087400F431F600AE02A1F5968D2001F20904081431F200740974021
:400CC0000F435F60E768082D04D9DD21C900534800F0A2FE032F03D95449504800F09CFE6900504B1A687C23D35C9B191A689046032291468A40404690430200484607406D
:400D00008F4017431F602769082D03D94849434800F082FE012F03D94649404800F07CFEB36901221100A9408B431740AF401F43B76163699846072D03D93F49374800F0D9
:400D40006BFE4346012B03D93C49344800F064FE34487E230268D35C9B191A6801273900A9408C468A43110042463A40AA400A431A606B0010229046984403210B00424687
:400D800093406246134399467F2203689A5C9446B44463461A684B469A43A3693B40AB401A43E3691940434699400A4363461A6002688023D35CF6183368FF22944693431A
:400DC0001800236A1F40636A5A00022313403B43A26A9100042739400B431F00E36AD900182319403B000B43226B520161460A401343AD00FE2292001540AB400343336042
:400E0000002002E00E4800E00D480CBC90469946F8BDC046FC220010270300003C230010C50300001008000889020000E9060000690600006A0600000304000004040000D6
:400E400001005A0070B505000C0000285DD000295DD0FF230A689A4303D099212D4800F0DBFDFF2322699A4303D09A21294800F0D3FDA3685B0D03D09B21264800F0CCFD89
:400E800063685B0A03D09C21224800F0C5FDE3695B0F03D09D211F4800F0BEFD236A5B0F03D09E211B4800F0B7FD1B4A11688B69EB1ADB0949691B01CB18216829607D2151
:400EC0001068415C6918E06808607E211068415C6918206908607F211068415C6918606908607C211068415C6918A06808606168A961116880228A5CAD18A2692A60E26903
:400F00001A60226A5A60002002E0044800E0034870BDC046FC2200101008000801005A0070B504000D000A4B1A68B423D3581B181B68002B0ADA0B0C03D00649064800F051
:400F40006BFD2D042D0C6560002000E0034870BD10080008D50200007C23001001008A0070B505000C000368002B01DA002300E0084B002B0BD1EA60230C03D00649074843
:400F800000F04AFD2404240CAC60002000E0014870BDC04601008A00BB0200007C23001070B505000C1E03D19921084800F034FD074B1A68B423D3585B191B68002B03DAFB
:400FC000EB682360002000E0024870BDBC2300101008000801008A0070B504000D00234B1A683123D35C834236D9002936D00B68DB0635D13123D35C984204D3C421FF31BB
:401000001B4800F009FD194B1B681A6AB0215B5A5C431419174E34602B68DA080021686801F0BEF800212000FFF77AFF3468002D03D111490E4800F0EFFC2A000021200051
:40104000FFF78EFF00280DD10A4B18680021FFF767FF002808D108E0084806E0074804E0064802E0064800E0054870BD100800087C230010000800089303000003018A0068
:4010800001018A0010B50400002A17D1002915D1124B1A683123D35C984204D3C421FF310F4800F0B9FC0D4B1B681A6AB0215B5A5C4314190B4B1C6000200EE0002A09D002
:4010C000002909D0074B59609A60191D2000FFF783FF02E0044800E0034810BD100800087C2300100008000803018A00F0B583B00D001C4B1B68DC68236883422DD94709CF
:401100007B01C01A012383401E00002903D100F044FD019001E000230193124B18680368002B01DA002300E00F4B002B0ED16368BF00DF193B68334203D0B3433B60002426
:4011400000E00A4C0021FFF7EBFE00E0084C002D04D1019800F025FD00E0064C200003B0F0BDC0460008000801008A00020188000301880004018A000A4B1B68DA681368CA
:4011800083420BD943095901401A0121814052689B009B580B4203D0034802E0034800E003487047000800080101880004018A0000018800034B1B68002B01D1014B18609D
:4011C0007047C0460C080008F0B5474680B404000F0090461E002D4B1B68002B03D1B5212B4800F019FC294B1B682C2060431C18FF22150035402560330A13406360360C82
:40120000A660244B1A683123D35C9D4204D3C421FF31214800F000FC1E4B1A68B023D35A6B43116A8C466344236166683223D35C9E4204D3E021FF31174800F0EDFB154B32
:401240001B681D6A80367601AD196561A668330C04D0FF214900104800F0DEFB330C03D00E490D4800F0D8FB3604330C1E43AE604346E36127620023A361069B002B02D07C
:4012800000229B5EA38104BC9046F0BD0C080008FC230010100800087C230010FF010000F0B58FB0041E03D15221294800F0B4FB6368032B03D95421254800F0ADFBE36A99
:4012C000002B03D15821224800F0A6FB236B002B03D159211E4800F09FFB07AA1300210061C961C321C921C302AD290023001433C1CBC1C141CB41C10821535E0CAE3380DE
:40130000144B1B6836215B5E07998C466344B370089B0D930B9B0A980096A26AE16AFFF753FF2B69E868002200920021FFF74CFF216B300000F0E8FA0023F25E002A05DBBA
:401340001F231A401E3B9340034A13600FB0F0BDFC2300101008000800E100E0F8B505000F0016001C00002A03D1FD21224800F053FB224B1B68002B03D1FE211E4800F04E
:401380004BFB1E4B1B682C2128004843181879435918012213004D68AB401B044568AA4015000269002A20D08F69002F1FD11268002A01DA002200E0114A002A19D13268D7
:4013C0001204120C134333600369DE6001238B614C6204692B0C03D00A490B4800F01CFB2A04120CA260002004E0084802E0084800E00748F8BDC046FC2300100C0800083B
:4014000001008A00BB0200007C23001004028A0007028A0070B504000D0016000F4B1B68002B04D1AF2149000D4800F0F5FA0B4B1B682C2060431C18236A002B04D1B121C1
:401440004900074800F0E8FAE369B34204D9236AB6009D51002000E0024870BD0C080008FC2300100A028A0070B582B0040000230193002804D1D221FF312D4800F0CCFAFE
:401480002369002B04D1E9214900294800F0C4FA6369002B04D1D421FF31254800F0BCFA236A002B04D1EA214900214800F0B4FA6269D5682B0C24D01B0413601368206979
:4014C0001C4B1A68B423D358C3181B68002B18DA01A9FFF765FD00280ED1019803681E0CFF221340E269934207D29B00226AD358002B02D0984700E0002631002069FFF7FE
:401500000FFD2D042D0C0FD063691D601B68636A002B03D098470023636203E0A36A002B00D098470023A36163691B6802B070BDFC2300101008000810B50400084B1B68EB
:40154000002B04D1B221FF31064800F065FA044B1B682C2060431818FFF786FF10BDC0460C080008FC23001010B50400094B1B689B6CC340DB0703D4BE21074800F04CFA7A
:40158000044B1B681B691034A402E3580F20184010BDC046100800083C240010134B1A683C23D35C83421DD9042904D94B1EFF3B9BB2132B18D8FF290CD91F2319400C4A77
:4015C0000300C0339B009950D03080000423835000200AE007231940D0308000044BC150002002E0034800E002487047100800080000264001004A0070B5041E03D14A49DD
:401600004A4800F009FAB023DB00494AD358002B00DA87E0474B22689A4203D94649434800F0FAF923689B039B0BE279002A02D08022520400E000221343B022D2003C49DD
:401640008B50A2883D4B9A4204D98C218900374800F0E2F922893A4B9A4203D93949334800F0DAF9A388DB04D90C23891B04364A13400B43354A2E498B50A37A0F2B04D91C
:401680008E218900294800F0C7F9E37A0F2B03D92F49264800F0C0F9A289284B9A4203D92C49224800F0B8F9A37A0F211940E27A1201FF2313400B43A289120226490A4029
:4016C0001343A27B1207C02189050A401343B122D20017498B50A379042B03D91F49134800F09AF9228A164B9A4204D9912189000E4800F091F90E4819494558194B1D401B
:40170000A3791B02E022D20013402B4343504558154B1D40238A1B040B4A13402B434350002000E0114870BD1F0200007C24001000002640FFFF030029020000FF1F000072
:40174000FF010000310200000000FF0184050000390200003A02000000FF1F00430200008C050000FFF8FFFFFFFF00FE03004A0070B505003149324A8B5880200006034315
:401780008B502C0003E0012000F03AF9013CB223DB002A4AD3585B0701D4002CF3D12749B122D2008858274B03408020800503438B50002D01D0002C0CD02049B022D20045
:4017C0008B588020000603438B5003E0012000F017F9013CB223DB00184AD358DB0701D4002CF3D1002D01D0002C08D01349B122D2008B58C020800503438B5013E00F4B61
:40180000B121C90058580F4A02408020800502435A5008395A58520052085A5008495A58520052085A50002D03D0002C03D0002002E0002000E0044870BDC0460000264026
:401840008C050000FFFFFFCF02004A0070B505000C001A4B1B6828229A5C012A15D1820807211000884327D19200AD1AED00FF20A8401B6820339A181168AC4023004B40E3
:40188000184004004C40146016E03A229B5EDBB2994203D176210A4800F0BEF8074B1B681B68072215408022120615438022920194466444A400E55070BDC04610080008EB
:4018C0000425001070B504000D000B4B9A680B4B9A420CD1002904D13821FF31084800F09BF81034054BA400E058E55003E01034A400044BE05870BD00ED00E000000008BF
:401900000425001000000010F0B5474680B482B0061E01914AD04368032B03D93221264800F07AF80023F05E002804DBB178FFF78DFF002400E0214C0023F15E7368002914
:4019400012DB88081E4FC0308000C55903221140C900FC3290468A4095439A01434613408B402B43C35116E089B20F220A40083A920806329200134810184768032211404C
:40198000C900FF252A008A4097439A012B0013408B403B4343600B4B9A680B4B9A4206D10023F05E0199FFF78DFF00E0034C200002B004BC9046F0BD0425001001005600A5
:4019C00000E100E000ED00E00000000810B5040006E0084B186800F0D7F8074B9C46644480231B029C42F4D8044B1868604300F0CBF810BDDC0000080080FFFFD800000896
:401A000010B5034B1B78584300F0BEF810BDC046D400000801BEFEE770B50D00044C18220100200000F0C4FBA5610020FFF7F2FF00060008054B802212069A649B6C002B8B
:401A400001DB002000E002487047C0460000274003004600054B8022120198585B68FF221A4202D08023DB021843704700002640FEE7C04610B50A4B0268DA6142681A6204
:401A800082685A62C2689A620269DA6242691A6382695A63C2699A63FFF7EAFF10BDC04600060008F0B5474680B4002801D0192300E064238B429B415B42304D2C68226818
:401AC000A826A45BA41822680327BA433B401A4322602C682268A45BA2181668284CA046264016602C682668AA229446A25A96193268BA43134333602A6813686546525B6F
:401B0000D3181A68444614401C60002805D010291BD921291BD8012024E0184B1B6855229A5C914215D956229A5C914213D957229A5C914211D958229A5C91420FD959223F
:401B40009B5C99420DD804200CE000200AE0022008E0002006E0012004E0022002E0032000E00520054A1268526813680F218B430343136004BC9046F0BDC0461008000835
:401B8000FFFCFFFF000000000230800803D001300238FCD1C046C0467047EFF3108072B6704780F31088704710B5B0235B059B899BB2002B04D0B0235B059B899BB201E0A4
:401BC00080235B0080225200934215D1184C23681968683A9B58C9180B680F208343963A13430B6021680C689C23CB58E318196881430A431A6019E00D4C2368196898225B
:401C00009B58C918B02040050A4BC2580A4B13400A681343C022920013430B60226811689C23D358CB18054A82581A6010BDC0461008000848180000FFFCFFFF441800008C
:401C400030B5B0235B059B899BB2002B04D0B0235B059B899BB201E080235B0080225200934215D1184C23681968683A9B58C9180B680F208343953A13430B6021680C68CF
:401C80009C23CB58E318196881430A431A6019E00D4D2B68196898229B58C918B0246405C12040012258094B13400A681343C022920013430B602A6811689C23D358CB18F1
:401CC00022581A6030BDC04610080008FFFCFFFFB0235B059B899BB2002B04D0B0235B059B899BB201E080235B008022520093420DD1104B1B681A6898215B58D2181168E8
:401D00000D4B0B40C021C9010B43136011E0094B1B68196898229B58C918084BB0225205D258074B13400A681343C022920013430B60704710080008FF8FFFFF18180000E2
:401D4000FFFCFFFF30B5B0235B059B899BB2002B04D0B0235B059B899BB201E080235B008022520093420DD1134B1B681A6898215B58D2181168114B0B408021C9010B4326
:401D8000136018E00C4D2B68196898229B58C918B02464050A4822580A4B13400A681343C022920013430B602A6811689C23D358CB1822581A6030BD10080008FF8FFFFFAA
:401DC0004C180000FFFCFFFF10B5B0235B059B899BB2002B04D0B0235B059B899BB201E080235B0080225200934217D10020FFF7BBFBB0235B055B78002B04D0B0235B05E6
:401E00005B78DBB200E02123222B03D8002803D1013004E0012002E0002000E0012010BDF8B50700012803D93D493E48FFF7F4FDB0235B055B78002B04D0B0235B055B783D
:401E4000DBB200E021239DB2B0235B059B899BB2002B04D0B0235B059E89B6B201E0802676000020FFF780FB002814D180235B009E4212D1222D12D82B4B1B685C682B4838
:401E800021582B4B19403B068022520413400B432350002404E0274C02E0264C00E0254C80235B009E4201D1222D03D880235B009E4232D01C4B1A683123D35C002B04D147
:401EC000C421FF311C48FFF7A7FD174B1B681D6A80235B009E4203D1002F05D0174A06E0002F03D0164A02E0164A00E0164A01212800FFF735F800280FD10B4B1A68B4235E
:401F0000D3585B191B68002BF7DBEB681B0E1B06A0221206934200D100242000F8BDC0464C0A0000482500101008000818F00000FFFFFFFE04004200BC220010010100300A
:401F40000300000C010000300100000CF8B50500012804D9822109012948FFF75DFDFFF733FF002849D0FFF718FE0700002D11D10021244B244AD150E823DB00B022520535
:401F8000D65CF6B20120FFF74BFF041E19D1FFF70BFE16E0B02252051C4BD0581A4B194958501B49565CF6B21A481A581F218A4314390A431A500320FFF722FDFFF7C2FE2D
:401FC0000024002C15D11049124A8B581F20834306401E438E50002D02D1FFF779FE08E00720FFF70DFDFFF72BFE0020FFF718FF04003800FFF7D5FD00E0074C2000F8BDB5
:4020000048250010307F00000000264010180000410700001CFF000003004200042805D10B4A116804230B4313600FE0094B1A681168A023D358CB180006C02292041040A9
:402040001860034A136804218B4313607047C04610E000E0100800080749C02252008B589B009B088020C00503438B508B588020000603438B50704700002640014B186057
:402080007047C04610080008002243088B4274D303098B425FD3030A8B4244D3030B8B4228D3030C8B420DD3FF22090212BA030C8B4202D31212090265D0030B8B4219D360
:4020C00000E0090AC30B8B4201D3CB03C01A5241830B8B4201D38B03C01A5241430B8B4201D34B03C01A5241030B8B4201D30B03C01A5241C30A8B4201D3CB02C01A52419D
:40210000830A8B4201D38B02C01A5241430A8B4201D34B02C01A5241030A8B4201D30B02C01A5241CDD2C3098B4201D3CB01C01A524183098B4201D38B01C01A52414309F0
:402140008B4201D34B01C01A524103098B4201D30B01C01A5241C3088B4201D3CB00C01A524183088B4201D38B00C01A524143088B4201D34B00C01A5241411A00D20146FF
:40218000524110467047FFE701B5002000F006F802BDC0460029F7D076E770477047C04603008218934202D019700133FAE77047030030B5002A0DD00C7801335D1E013A59
:4021C0002C700131002CF5D19A189A4202D01C700133FAE730BD0000F8B5C046F8BC08BC9E467047F8B5C046F8BC08BC9E46704703000000010000000100000000000000A0
:4022000005036000040000000100000000000000010000000604600008000000C8070008B101001073797374656D5F70736F63365F636D30706C75732E630000F40100008D
:40224000140004010A000905080000006301000003000000000000000000000068000000000000000000000000000000121200000000000030000000000000000000000002
:402280000060CCBA0000000000000000000000000000000013131D1D14000000000000000000000060000000000000000000000000000000000000000000000047656E65E5
:4022C00072617465645F536F757263655C50536F43365C70646C5C647269766572732F7065726970686572616C2F6970632F63795F6970635F6472762E68000047656E65F4
:4023000072617465645F536F757263655C50536F43365C70646C5C647269766572735C7065726970686572616C5C6770696F5C63795F6770696F2E630000000047656E65F6
:4023400072617465645F536F757263655C50536F43365C70646C5C647269766572735C7065726970686572616C5C6770696F5C63795F6770696F2E680000000047656E65B1
:4023800072617465645F536F757263655C50536F43365C70646C5C647269766572735C7065726970686572616C5C6970635C63795F6970635F6472762E68000047656E65AC
:4023C00072617465645F536F757263655C50536F43365C70646C5C647269766572735C7065726970686572616C5C6970635C63795F6970635F6472762E63000047656E6571
:4024000072617465645F536F757263655C50536F43365C70646C5C647269766572735C7065726970686572616C5C6970635C63795F6970635F706970652E630047656E65CE
:4024400072617465645F536F757263655C50536F43365C70646C5C647269766572735C7065726970686572616C5C70726F745C63795F70726F742E630000000047656E6589
:4024800072617465645F536F757263655C50536F43365C70646C5C647269766572735C7065726970686572616C5C737973636C6B5C63795F737973636C6B2E630000000020
:4024C00047656E6572617465645F536F757263655C50536F43365C70646C5C647269766572735C7065726970686572616C5C737973636C6B5C63795F737973636C6B2E685C
:402500000000000047656E6572617465645F536F757263655C50536F43365C70646C5C647269766572735C7065726970686572616C5C737973696E745C63795F7379736971
:402540006E742E630000000047656E6572617465645F536F757263655C50536F43365C70646C5C647269766572735C7065726970686572616C5C737973706D5C63795F7381
:402580007973706D2E6300000000204000002440000000400000000000002340000030400000314000009F40000022400000104002020202020202020210101D8000170002
:4025C0007500FF030602063604102000000000007FC0000000040000000000000019324B647D00804000080B100000000000FF012002001F00800004FF0810180010001437
:402600000018001C4044484C50000000081000000800000004000000041000000012000004210000002100000016000040114002C41300138013A013200000001C00000059
:402640000000214000002540000001400000344000002440000031400000324000001F410000234000001140010101010101010101101010800019005500F0000501053B27
:4026800004101C01010000000FC000000004000001010101011D3A57789600082000101208000000001F00000010000F002000023F06080E00080009000A000B24282C3079
:4026C00034000000100000009000000088000000080000008000000004F0000000F00000400200002005A000D00100018001A00120000000100000000000000000000010D7
:4027000000000008C00000001C270010C0000008400500003C060008D80100000048E80100127A0000093D0000093D0000093D0004000000A00F00000000D007E90000103C
:40274000C10000100000000010B50004400B27D0144B1A68146AB023D15ACA00531AE3181B68002BF4DA3E220F4B1A600F4A104B1A60104B0621A322D20099500E4A9850CE
:402780009B58084B1A68106AB023D15ACA00531AC31800225A60084B064AD358002BFADA10BDC04610080008040126401E1F000008012640000026401C05000010B543780D
:4027C000FF2B20D100F042FA04000F4B1A683123D35C042B04D8C421FF310C4800F02EFA094B1A68116AB023D35A9B00CB18DB685A68116801230B4313601368DB07FCD444
:40280000200000F003FA10BD10080008BC220010F0B585B001900291544B1A683123D35C002B04D1C421FF31514800F007FA4F4B1B681E6AB4229A58971950229B5C002BBE
:4028400077D000F0EBF9050003283CD1474B1A683123D35C062B04D8C421FF31444800F0EDF9424B1968B023CB5A5A00D21853000A6A94466344B4228A58D3181B68002B02
:4028800023DB002000F0BAF93A4B98421FD03A4B1A6900230021012000F0A0F9002803D0364C17E0013400E00024002000F0A6F9304B984202D0324B9C42F3D9304B9C4210
:4028C00007D92E4C06E0002404E02C4C02E02B4C00E00024002C46D100F0B8F90390294B294AD358002B13DA234A0121300000F09DF900280ED10298FFF726FF019B002B52
:402900000AD03B68002BFCDB00F070F9040004E01A4C02E0194C00E01C4C032D05D10121002000F053F90028F9D1039800F06EF919E000F08BF905000F4A0121300000F06D
:4029400075F9002809D1019B002B08D03B68002BFCDB00F04BF9040002E0084C00E00B4C280000F053F9200005B0F0BD10080008BC22001001018800E80700080500520032
:40298000EF4902001C0500000000264001005000F0B54F464646C0B4824B1A685468B0235B055B78002B04D0B0235B055B78DBB200E02123212B67D1B023D15ACB005B1A42
:4029C000116A8C46634419680029F5DADD6802212943D960B023D15ACB005B1A116A8C466344D968C9073ED5D9680904090C8C4684271168D559A84641440968090A09047C
:402A0000FF26360431400D0088261168894691598846C14449460968090A0906294365462943D9601168D359C9180A685E4B98461A4090252D012A430A605A4B99461A688F
:402A400013689C46925962441368414619400B002B4313604B461A681568D15969180B689359EB181B684F4B1A68B021555AEB005B1B156AAC46634400255D60156A515AE0
:402A8000CA00531AEB185B68484A116904230B431361012801D030BF00E020BF414B1A68B023D15ACB005B1A116A8C46634419680029F3DAB02149054978002904D0B02117
:402AC00049054978C9B200E02121212932D1D968C90722D510688421525880180468324A1440DB681B0C1B02FF2109020B40234303602C4B19688823C8580B689C466044B8
:402B000003681A400D6AB023CC5AE1000B1BEB18DB681B0E1B021A430260224B1A68106AB023D15ACA00531AC318DA6802218A43DA6028E086235B00E358002B23D11C485F
:402B400007681C4BA321C9005E581B4A904615681A4A0260062058503E21424611600631174A9950164B134AD358002BFADA154A86235B00E2500E4B1F60A323DB000D4ACA
:402B8000D6500D4B1D60074B1A68106AB023D15ACA00531AC31800225A600CBC90469946F0BDC04610080008FF00FFFF00ED00E00801264000002640040126401E1F000049
:402BC0001C050000AAAAAAAA0000000001B40248844601BC604700BFED10001001B40248844601BC604700BF5D13001001B40248844601BC604700BF610A001001B4024841
:402C0000844601BC604700BF7911001001B40248844601BC604700BFA31B001001B40248844601BC604700BF3504001001B40248844601BC604700BF610F001001B40248B3
:402C4000844601BC604700BF191A001001B40248844601BC604700BF9B1B001000000000000000000000000000000000000000000000000000000000000000000000000072
:402C80000000000000000000000000000000000000000000000000000000000000000000000000000000000000000000000000000000000000000000000000000000000014
:402CC00000000000000000000000000000000000000000000000000000000000000000000000000000000000000000000000000000000000000000000000000000000000D4
:402D00000000000000000000000000000000000000000000000000000000000000000000000000000000000000000000000000000000000000000000000000000000000093
:402D40000000000000000000000000000000000000000000000000000000000000000000000000000000000000000000000000000000000000000000000000000000000053
:402D80000000000000000000000000000000000000000000000000000000000000000000000000000000000000000000000000000000000000000000000000000000000013
:402DC00000000000000000000000000000000000000000000000000000000000000000000000000000000000000000000000000000000000000000000000000000000000D3
:020000041008E2
:4000000000780408EB0208100D00000051030810510308105103081051030810000000000000000000000000000000004D0308104D030810000000004D0308104D030810DA
:400040004D0308104D0308104D0308104D0308104D0308104D0308104D0308104D0308104D0308104D0308104D0308104D0308104D0308104D0308104D0308104D03081000
:400080004D0308104D0308104D0308104D0308104D0308104D0308104D0308104D0308104D0308104D0308104D0308104D0308104D0308104D0308104D0308104D030810C0
:4000C0004D0308104D0308104D0308104D0308104D0308104D0308104D0308104D0308104D0308104D0308104D0308104D0308104D0308104D0308104D0308104D03081080
:400100004D0308104D0308104D0308104D0308104D0308104D0308104D0308104D0308104D0308104D0308104D0308104D0308104D0308104D0308104D0308104D0308103F
:400140004D0308104D0308104D0308104D0308104D0308104D0308104D0308104D0308104D0308104D0308104D0308104D0308104D0308104D0308104D0308104D030810FF
:400180004D0308104D0308104D0308104D0308104D0308104D0308104D0308104D0308104D0308104D0308104D0308104D0308104D0308104D0308104D0308104D030810BF
:4001C0004D0308104D0308104D0308104D0308104D0308104D0308104D0308104D0308104D0308104D0308104D0308104D0308104D0308104D0308104D0308104D0308107F
:400200004D0308104D0308104D0308104D0308104D0308104D0308104D0308104D0308104D0308104D0308104D0308104D0308104D0308104D0308104D0308104D0308103E
:400240004D0308104D0308104D0308104D0308104D0308104D0308104D0308104D0308104D0308104D0308104D0308104D0308104D0308104D0308104D0308104D030810FE
:400280004D0308104D0308104D03081010B5054C237833B9044B13B10448AFF300800123237010BD4C49020800000000B8410810084B10B51BB108490848AFF300800848BD
:4002C000036803B910BD074B002BFBD0BDE81040184700BF0000000050490208B84108101C430208000000007047FFF7FDFF72B6104C114DAC4209DA21686268A368043B99
:40030000A2BFC858D050FAE70C34F3E70B490C4A00209142BCBF41F8040BFAE709480A490860BFF34F8F00F015F900F0EFF800F0A9F9FEE7BC410810D44108104C49020817
:40034000684C02080040020808ED00E0FEE7FEE700B504207146084202D0EFF3098001E0EFF30880043000F0D5FEFEE708B5012000F028FE08BD00BF704700BF5C4AD2F83A
:40038000803303F00F0303F1D00152F8212002F00702032A04D0042A05D092B9554914E0554A116811E003F1C002514951F8222002F01F02112A06D0132A04D04FF4FA41C2
:4003C00003E04E4901E04FF400418BBB484BD3F8902502F00100D3F88825C2F30172D3F8883513F0405F07D0414BD3F88835C3F30173012B02D102E0012300E0002303B137
:4004000008B9032A46D13A48D0F88025C2F31103D0F88425C2F30C02D0F88005C0F300600130B1FBF2F202FB03F2B2FBF0F131E0012B2FD12E4BD3F8402602F00100D3F885
:400440000026C2F30172D3F8003613F0405F07D0274BD3F80036C3F30173012B02D102E0012300E0002303B108B9032A12D12048D0F8002602F07F02D0F80036C3F30423E6
:40048000D0F80006C0F3044002FB01F2B2FBF3F2B2FBF0F1164BD3F88033C3F3011321FA03F215494A601648D0F89030C3F3072301330069000E0130B2FBF0F08860B2FBE2
:4004C000F3F3CB600B6103F5742202F23F220D48A0FB0202C2F387420A7503F2E7330A4AA2FB03239B098B61DB03CB61704700BF0000264000127A008C42020800366E0106
:400500000000214083DE1B43D34D621008B50D4800F062FEFFF730FFFFF730FF00221146042000F017FB084800F0AAFB074B1B6893F8513013B1064800F012FC00F054FAAA
:4005400008BD00BFE03D0810684902087C4B0208BC3A081008B500F038FE074AD2F8883043F47003C2F88830BFF34F8FBFF36F8F00F02FFE08BD00BF00ED00E008B505499D
:40058000054801F049FC10F4803FF8D1012000F0A5FD08BD184C020800006740F8B50F4C2070A4600123E36023740D4F261D0D4D3A463146284601F0E9FCFFF7DFFF04F108
:4005C0001403A360002323743A463146284601F025FCFFF7D3FF207DF8BD00BFE84A0208184C02080000674038B504460D4621B940F2A551034800F07DFD2946204600F080
:400600004DFE38BDF03A08100222034B5A600822A3F500739A6070470005324030B591B00546144B1B68ADF804301B0C8DF8063001A9114800F032FE00240DE0234622469C
:400640000E4901A802F098FD01A90B4800F026FE0A2000F02BFD0134AC42EFD301AC084D0FCD0FC42B68237001A9034800F016FE11B030BD303B081000006640343B08108D
:40068000443B08102DE9F0418AB062B602F0B6FC02F078FC02F03AFC0822654B9A6002F035FD01AC634D0FCD0FC40FCD0FC495E80F0007C4237001A95F48FFF795FF4FF41D
:4006C0007A7000F0F3FC5C4BD3F84033472B40F0AB8001AC594D0FCD0FC495E8070084E807000222564B9A600822A3F500735A6001A9514800F0D2FD02F080FC0E20FFF744
:400700008DFF86E002F0D6FC4E4B1B6803EB83039A004D4B1A44536823B94FF47C714B4800F0E8FC4A4D0021284602F04DFB0446284602F0FBFA24B2424B1B6803EB83035C
:400740009A00414B1A44536823B940F2D9413F4800F0D0FC224600213D4802F093FB08223C4B1A71002426461DE05FFA86F84046FFF714FF0AAB1F1907F8100C651C404603
:40078000FFF70CFF03460AAA154405F8100C023617F8102C304901A802F0EEFC01A9264800F07CFD02340D2CDFD90922294B1A71002426461DE05FFA86F84046FFF7EEFEAA
:4007C0000AAB1F1907F8100C651C4046FFF7E6FE03460AAA154405F8100C023617F8102C1D4901A802F0C8FC01A9134800F056FD02340D2CDFD94FF4FA6000F057FC0E4BB1
:40080000D3F84033532B04D10122124B9A75FFF7FBFE124B1B783BB1104B5B7823B10D4B9B7D002B3FF46EAF0A2000F03FFC46E700033240583B081000006640883B0810BD
:4008400000053240684B0208F4400810A43B081000001D41E84A0208C43B0810AC4202081F4B98422DD00CD840282ED003D8E8B1102828D02FE0802829D0B0F5807F28D0DD
:4008800029E0184B984228D006D8B0F1204F0DD0154B984212D01EE0144B98420AD00133984209D0023B984215D101E0002070470F4870470F4870470F4870474FF4A00059
:4008C0007047074870470D4870470D4870470D487047034870470C4870474FF4A400704706005200010000F0090000A0040000F00100520002005200030052000100500039
:400900000200500005005200FF00520038B5124B1B6893F83130012B04D840F2C3110F4800F0E8FB0C4B1D682A6AB5F8B03013442C46D5F8B420D358002B0BDB084B186856
:40094000FFF78EFF6B6801229A6063689B68002BFBD138BD034838BD7C4B0208E43B0810004B0208020050001A4B186128B102230370FF23437000234380174B1B6893F8E1
:4009800050202AB300B583B0B3F93830ADF80030002301931149684600F04EFBBDF90030002B08DB590903F01F03012202FA03F30B4A42F82130084B1B6893F8513023B10B
:4009C00002220849012000F077FA03B05DF804FB704700BF004B02087C4B02088D43020800E100E04544020808B50248FFF7BCFF08BD00BF144B020838B50B4B1B68D3F8F9
:400A0000B4301B58002B0DDA0D4604460B0C1B0423B140F2D521054800F06CFBA9B26160002038BD024838BD7C4B0208243C081001008A0038B50368002B01DA002300E035
:400A4000094B73B90D460446C2600B0C1B0423B140F2BB21054800F04DFBA9B2A160002038BD014838BD00BF01008A00243C081038B504460D4619B99921084800F03AFB9E
:400A8000074B1B68D3F8B4301B59002B03DAE3682B60002038BD034838BD00BF643C08107C4B020801008A00254B1B6893F8313083423AD900293AD00B6813F01F0F38D1A1
:400AC00070B50D4604461E4B1B6893F83130984204D340F2C3111B4800F00CFB184B1B68186AB3F8B03004FB0304174E34602A68D2080021686802F037FB00212046FFF75B
:400B00007BFF346825B940F293310E4800F0F2FA2A4600212046FFF78DFF60B900210A4B1868FFF769FF40B970BD084870470748704706487047064870BD054870BD00BFC7
:400B40007C4B0208243C0810184B020803018A0001018A0010B504461346B2B9A9B9124B1B6893F83130984204D340F2C3110F4800F0C0FA0C4B1B681A6AB3F8B03004FB04
:400B800003240B4B1C60002010BD43B149B1084A51609360111D2046FFF786FF10BD054810BD044810BD00BF7C4B0208243C0810184B020803018A002DE9F0411B4B1B6829
:400BC000DC68236883422CD90D464609A0EB4610012303FA00F819B900F0F7FA074600E00027124B18680368002B01DA002300E00F4B83B9626852F8263018EA030F05D07F
:400C000023EA080342F82630002400E0094C0021FFF7F2FE00E0084C25B9384600F0D9FA00E0064C2046BDE8F08100BF184B020801008A00020188000301880004018A004E
:400C40000B4B1B68DB681A6882420CD94109A0EB4110012202FA00F05B6853F82130184203D004487047044870470448704700BF184B02080101880004018A000001880095
:400C8000024B1B680BB9014B18607047244B02082DE9F8430446884691461D46089F2C4B1B681BB9B5212B4800F024FA284B1B682C2000FB04F01C18EEB21E50C5F30723E8
:400CC00063602D0CA560244B1B6893F831309E4204D340F2C311214800F00CFA1E4B1B68196AB3F8B02006FB02162661666893F832309E4204D340F2DF11184800F0FAF998
:400D0000154B1B681D6A803605EB46156561A668330C1B0423B14FF4FF71104800F0EAF9330C1B0423B140F2FF110C4800F0E2F9B3B243EA0646AE60C4F81C90C4F8208021
:400D40000023A36117B1B7F90030A381BDE8F883244B0208A43C08107C4B0208243C0810F0B58FB0044618B95221274800F0C2F9A369072B03D95621234800F0BBF9E36A2D
:400D80001BB95821204800F0B5F9236B1BB959211D4800F0AFF907AD04F114060FCE0FC537682F6002AD26460FCE0FC533682B60164B1B68B3F93620079B1344ADF830308F
:400DC000089B0D93A26AE16A0CAD00953B460A98FFF75EFF00210091069B0A460598FFF757FF216B284600F027F9BDF93030002B08DB590903F01F03012202FA03F3044A01
:400E000042F821300FB0F0BDA43C08107C4B020800E100E0F8B506460F461D4614461AB9FD211F4800F066F91E4B1B681BB9FE211B4800F05FF91B4B1B682C2101FB06308D
:400E400001FB07314B68012202FA03F31B04466802FA06F60269EAB18F69EFB91268002A01DA002200E0104AC2B92288134323600369DC6001238B614D620469330C1B0400
:400E800023B140F2BB21094800F034F9B2B2A2600020F8BD0648F8BD0648F8BD0548F8BDA43C0810244B020801008A00243C081004028A0007028A00F8B505460F4616465F
:400EC0000E4B1B6823B94FF4AF710D4800F012F90A4B1B682C2404FB0534236A23B94FF4B171074800F006F9E369B34204D9236A43F826700020F8BD0248F8BD244B020852
:400F0000A43C08100A028A0070B582B000230193044620B940F2D111284800F0EBF8236923B94FF4E971254800F0E4F8636923B940F2D311214800F0DDF8236A23B94FF4C5
:400F4000EA711E4800F0D6F86369DD682A0C20D012041A601B682069194B1B68D3F8B430C358002B15DA01A9FFF782FD60B9019803681E0CDBB2E269934206D2226A52F893
:400F8000233013B1984700E0002631462069FFF733FDADB275B16369ADB21D601B68636A1BB198470023636202E0A36A03B198470023A36163691B6802B070BDA43C081030
:400FC0007C4B020810B50446074B1B6823B940F2B111064800F08EF8034B1B682C2000FB0430FFF791FF10BD244B0208A43C081038B50D4B9A680D4B9A420FD10D460446A0
:4010000021B940F237110A4800F074F804F11003064A52F8230042F8235038BD1030054B53F8200038BD00BF00ED00E000400208E43C08100000081048B338B504460D46AC
:401040004368072B03D93221134800F053F8B4F900306268002B08DB5201D2B203F1604303F5614383F8002305E003F00F035201D2B20A49CA540A4B9A680A4B9A4208D1DE
:401080002946B4F90000FFF7B3FF002038BD06487047002038BD00BFE43C081014ED00E000ED00E0004002080100560010B5044605E0084B186800F07FF8A4F50044B4F543
:4010C000004FF6D8044B186800FB04F000F074F810BD00BFA8420208A442020808B5034B1B7800FB03F000F067F808BDA042020801BEFEE738B50D46044C182201462046A2
:4011000002F05EF8A5610020FFF7F2FFB8480208FEE700BF08B50268254BDA6142681A6282685A62C2689A620269DA6242691A6382695A63C2699A631E4A916AD963D16A6F
:401140001964516A5964516B9964926BDA64F1EE103A13F0900F27D0026A154B1A65426A5A65826A9A65C26ADA65026B1A66426B5A66826B9A66C26BDA66026C1A67426C67
:401180005A67826C9A67C26CDA67026DC3F88020426DC3F88420826DC3F88820C26DC3F88C20026EC3F89020FFF7B2FF08BD00BFB848020800ED00E00230800803D00130B5
:4011C0000238FCD100BF00BF7047EFF3108072B6704780F310887047014B1860704700BF7C4B020810B4D0F8003303F00F03072B06D900230DE0D0F84043CC54013300E031
:4012000000239342F7D306E0D0F8404321F8134001339342F8D35DF8044B704710B51446D0F80833C3F308039A4200D31C462246FFF7D8FF204610BD10B4D0F8003203F013
:401240000F03072B06D900230DE0CC5CC0F84042013300E000239342F7D306E031F81340C0F8404201339342F8D35DF8044B704710B51446036813F4006F01D0802200E0E5
:401280004022D0F80832C3F30803D31AA34200D81C462246FFF7D0FF204610BD30B4036813F4006F01D0802200E04022002408E0D0F80832C3F308039A42F9D0C0F8405265
:4012C00001340D5D002DF3D130BC704702E0C0F84012013A002AFAD1704700BF10B51446036813F4006F01D0802200E04022D0F80832C3F30803D31AA34200D81C4622463D
:40130000FFF7E4FF204610BD10B54A6841F201039A4231D1D0F80833C3F30803B3B10B6A43F040030B620B7873B1D0F8043343F48033C0F80433D0F8043323F48033C0F895
:401340000433D0F8043301E0D0F840330B6A43F020030B620B6A23F010030B62036E23F4204303660023C0F8C83F0123C0F8C03FD0F8C03F202221E0D0F80832C3F30802FE
:40138000D0F80832C3F3C03313440A6BD21A4A630A6A12F0080F05D1CA6A1A44CA628A6AD31A8B620B6A43F004030B620B6A23F001030B620023C0F8883F1022D0F84C4FE2
:4013C00040F201131C420DD0036823F00043036000238366C366036843F000430360036842F040024FF080534B604B6C0BB11046984710BDD0F80C3F13F0020F1DD0022286
:40140000C0F8002FD0F8002FD0F8002F12F0040F02D04FF4001001E04FF480108A6802438A604A68B2F5B81F07D00A7B12B14FF4C01201E04FF4B0124A6013F4807F03D0FB
:401440008A6842F400028A6013F0010F03D08A6842F480028A6040F21112134202D04FF4C0134B60704700BF0023C0F8C83FC0F8883F836E23B140F21713C0F8083F7047F3
:4014800040F21313C0F8083F182383664FF4B8134B60704738B5D0F80C4F036E23F4807303660023C0F8C83FC0F8883FC0F8083F40F21713C0F8003FD0F8003F8B6823F489
:4014C00080338B604B7B13B18B69CB610BE08D69D0F80822C2F30802D0F80832C3F3C0331344EB1ACB6140F201131C421BD0036E9B0F032B05D114F4827F14BF012300230E
:4015000000E001235BB1036823F00043036000238366C366036843F00043036003684FF080534B601BE00B7893B1D0F8043343F48033C0F80433D0F8043323F48033C0F8BB
:401540000433D0F804330123C0F8C03FD0F8C03F0B7B0BB10B4B01E04FF080534B604A6C72B14B7B13B14FF4802001E04FF400308B6813F0F87301D04FF4002318439047F9
:4015800038BD00BF0000101070B505460C4691F8243013F0FF0F0ED1CB6A63B94B6C0BB108209847E36AB3FA83F35B0984F824300123C5F8883F94F8243013F0FF0F16D0DA
:4015C00063783BB12B6813F4006F01D0802202E0402200E00122FF212846FFF77FFE236B18442063236A43F00803236270BDE26A012A11D963780BB1013A00E00122A16A35
:401600002846FFF735FE236B03442363E36A1B1AE362A36A1844A062D5F80832C3F30803802B23D0E36A012B20D1FFF7CEFDA36A1B78C5F840324026C5F8806FD5F8803F88
:40164000FFF7C7FD236B013323630023E362A36A0133A362C5F8886F63783BB1236A43F002032362636C0BB10420984770BD00BF38B54B68B3F5A81F03D14FF4C0134B60D7
:4016800038BD4B68B3F5A01F4DD10C4605464A69012A11D94B780BB1013A00E0012221692846FFF7E5FDA3690344A36163691B1A6361236903442361D5F80832C3F30803D0
:4016C000802B14D06369012B11D1FFF77EFD23691B78C5F840324023C5F8803FD5F8803FFFF777FDA3690133A361002363616369CBB9237B33B14023C5F8883F4FF4A8130B
:40170000636005E00023C5F8883F4FF4B0136360637843B1A36843F40033A360636C13B14FF48030984738BD70B504460D468A6C82B3036813F4803F06D0D0F84C3F13F0A6
:40174000400F03D0022002E0002000E00020236E13F4006F06D1D4F84C3F13F0800300D001231843C0B190470123C4F8C03FD4F8C03F024648B91023C4F8403FD4F8403F25
:4017800040F2D113C4F8483F07E040F2C113C4F8483F02E0002200E00022D4F8043243F48033C4F80432D4F8043223F48033C4F80432D4F804320AB9012300E00223E366C7
:4017C000002A59D1666E06F010066B6C23B10EB1012000E0022098477EB141F202036B602B6A43F001032B626B6B2B63002385F824300123C4F8883F70BD41F201036B6090
:401800002B6A43F010032B620123C4F8C83F2B78BBB1EB6BBBB1236E43F400532366ED6B802D05D9A5F18003802B0ED8813D0DE0013D236E43F4004323660023C4F8C83FF4
:4018400004E0002502E0002500E03F25236813F4006F01D0802300E040239D4204D34FF420710648FFF746FCD4F8043323F0FF03EDB21D43C4F8045370BD00BF983E081048
:4018800038B54B68B3F5881F03D0B3F5901F1AD038BD0B69D0F840231A708B6901338B614B69013B4B612BB10B6901330B610423836638BD0B7B13B14FF4C01301E04FF4DE
:4018C000B0134B6038BD0C4605464A690969FFF7A5FCA3690344A36163691B1A6361226910442061012B24D82B6E23F480732B666369012B16D12B6813F4006F01D08023F8
:4019000000E0402323B94FF420711848FFF7F2FBD5F8043323F0FF03C5F804334FF48813636038BD0023C5F8C83F4FF4B013636038BD402B01D89C1E00E03F242B6813F44E
:40194000006F01D0802300E040239C4204D34FF420710648FFF7CEFBD5F8043323F0FF02E3B21343C5F8043338BD00BF983E081038B5CB6B002B50D00B78002B3FD00C4695
:401980000546D0F80423D2B20132896BFFF746FC236C03442364E36B1B1AE363A26B1044A063802B06D9A3F18002802A0FD8A3F181040DE02B6E43F400432B66E36B0BB19B
:4019C0005C1E00E000240023C5F8C83F00E03F242B6813F4006F01D0802300E040239C4204D34FF420711048FFF784FBD5F8043323F0FF02E3B21343C5F8043338BD012319
:401A0000C3668A6B0B6CD0F84003D0540B6C01330B64CB6B013BCB6338BD0223C3660023C0F8C83F38BD00BF983E0810F8B50B78012B03D00C7A1CB9002702E0002700E0C7
:401A40000127002800F0A780002900F0A680002A00F0A58016460C460546013BDBB2022B03D94F214F48FFF745FB637803B163791BB150214B48FFF73DFB94F90330002B25
:401A800003DA51214748FFF735FB237913F0010F03D052214348FFF72DFB2369102B03D953214048FFF726FBE368102B03D954213C48FFF71FFB637913B14FF4803100E0EF
:401AC0000021E27912B14FF4807300E000230B4343F400632B60A37913B94FF4006300E000232269013A02F00F021A43E368013B1B01DBB21343227843EA82732B6617B1A9
:401B000040F2073301E040F20713C5F800330FB1254B00E0254B2B6763780BB17F2300E00023C5F80433E3785B00DBB2227943EA0243C5F810331E4BC5F80032A3780BB15B
:401B4000402300E00123C5F804320023C5F8C83EC5F8883EC5F8C83FC5F8883FC5F8083F2378022B02D040F2D11300E00023C5F8483F63783370A37873704FF080537360FE
:401B80000020B060B06130623064F0633063F0627064B064F8BD0748F8BD0648F8BD0548F8BD00BFDC3E081003002A0013102A00070101000120AA0038B505460C4621B93D
:401BC00040F2C3211948FFF795FA2B6E9B0F012B17D1174B2344174A93421ED9A4F5BD13A3F5D66302F5611202F56162934216D9A4F57104A4F533440F4B9C4211D80F48E4
:401C000038BD84B1286EC0F303102B6E03F00F0318440230B4FBF0F038BD094838BD094838BD002038BD002038BD00BFDC3E081020AD88FF405B730040555C0440420F00DF
:401C4000801A0600A08601002DE9F84307468846914622B940F212216248FFF74BFA08F1FF34614B9C4204D940F213215D48FFF741FA3B6E9B0F012B0DD149463846FFF706
:401C80009BFF0546D7F8003323F40073C7F80033564B3B67A2E0544B9C421FD8544B984509D8A9F5BD13A3F5D663524A934218D90021012328E0504B984507D84F4B4B44BD
:401CC0004F4A934213D9002101231DE04D4B4B444D4A934212D90021012315E00021012312E0002141F288352E460B460CE000214FF461754FF4C8660B4605E001214FF451
:401D0000BE754FF41B760023002B66D13F4BB3FBF9F3B6FBF3F404FB03F2964200D90134102C00D910240F2C8CBF00220122B5FBF3F606FB03F39D4200D90136102E00D9D7
:401D40001026A519B9FBF5F50FE022B10F2C09D80134002206E00F2E04D801360F2C8CBF00220122A519B9FBF5F5454502D9A3191F2BEAD941B1D7F8003343F40073C7F8B4
:401D80000033234B3B6707E0D7F8003323F40073C7F80033154B3B67E31F092B04D940F283511C48FFF7A6F93B6E23F0F003013C2401E4B223433B66731F0B2B04D94FF4D1
:401DC000B4611448FFF796F93B6E23F00F03013E06F00F061E433E6600E000252846BDE8F88300BFDC3E08103F420F0013102A00A0860100502D1900801A060020AD88FFBE
:401E0000A0432100807E25FFC02BAF0000CA9A3B03002A001C3F08108868704770B5044615460E4621B940F2D3415548FFF762F973680BB1B36823B940F2D4415048FFF76D
:401E400059F996F90030002B04DA40F2D5414C48FFF750F90023C4F8483F6B6813F0805F00F0888033785B00DBB243F001034FF48032AA6072682A61B2686A610022AA61DA
:401E8000EA61327B2A7301226A7340F21712C4F8002FD4F8002FD4F8042242F48032C4F80422D4F8042222F48032C4F80422D4F804226A68B2F1805F04D1C4F84032022386
:401EC000A36609E0626E12F0200F01D0092200E00122A266C4F840322B7843B32B7B33BB6B69012B23D9236E43F4807323666E69802E01D8023E00E03F26236813F4006F69
:401F000001D0802300E040239E4204D34FF420711C48FFF7EFF8D4F8043323F0FF03F6B21E43C4F804634FF490136B6015E0236813F4006F01D0802300E0402323B94FF45D
:401F400020711048FFF7D6F8D4F8043323F0FF03C4F804334FF488136B60FFF736F90123C4F8C83F40F21313C4F8083FFFF731F9002000E0044840F2D113C4F8483F70BDA7
:401F8000DC3E0810983E08100220AA00F8B5044615460E4621B940F2B7514B48FFF7AAF8B36833B1736823B94FF4B7614648FFF7A1F896F90030002B04DA40F2B951424894
:401FC000FFF798F80023C4F8483F6B6813F0805F73D037787F00FFB24FF48033AB6073682B61B3686B610023AB61EB61327B2A736B7340F21713C4F8003FD4F8003FD4F8FE
:40200000043243F48033C4F80432D4F8043223F48033C4F80432D4F804326B68B3F1805F09D1C4F840724023C4F8803FD4F8803F0223A36617E0636E13F0200F01D00923A2
:4020400000E00123A3666B695BB9FFF7BEF8C4F840724023C4F8803FD4F8803FFFF7B9F801E0C4F840724FF4A0136B606B780BB1402500E00125236813F4006F01D08023B2
:4020800000E040239D4204D34FF43A710F48FFF731F8D4F8043223F0FF032B43C4F80432FFF793F80123C4F8883F40F21313C4F8083FFFF78EF8002000E0054840F2D113EA
:4020C000C4F8483FF8BD00BFDC3E0810983E08100220AA0070B504460E46D0F88C3E13F0010F07D04FF480534B600123C0F8803ED0F8803ED4F84C5F40F201131D420FD022
:40210000336A15F4807F02D04FF4807200E08022134333620023C4F8C83F45F010050EE015F0100F0BD0D4F80833C3F3080333B1F36B23B10123C4F8C43FC4F8C83FD4F819
:40214000CC3F13F0010F08D031462046FFF710FC0123C4F8C03FD4F8C03F15F0100F0AD031462046FFF7D0F81023C4F8403FD4F8403FD4F84C5F15F0C00F0DD03146204689
:40218000FFF7D2FA0123C4F8803ED4F8803EC023C4F8403FD4F8403FD4F88C3F13F0410F08D031462046FFF7EFF90123C4F8803FD4F8803F70BD00BF70B506460D46D0F8AD
:4021C000004E14F0020F0AD0836E2BB1002383668B6843F080738B604FF4C0136B6014F0010F05D029463046FFF704F924F0040414F0080F08D029463046FFF741FB0123D9
:40220000C6F8C03FD6F8C03F14F0040F08D029463046FFF72DFA0123C6F8803FD6F8803F6B68B3F5C01F03D129463046FFF732F96B68B3F5B01F03D129463046FFF714F9BB
:4022400070BD00BF08B54B6813F4801F02D0FFF7B3FF08BDFFF73EFF08BD00BF2DE9F84305460C46036813F4006F02D04FF0800801E04FF04008D5F8007207F00F07A26A3E
:40228000012A19D9D4F82490E262561EB9F1000F00D026B940F273512548FEF72BFF324649462846FEF7E4FFA36A1B1AA362072F00D9400048446062D5F80832C3F30803E6
:4022C000984533D0A36A012B30D10023A362072F02D8636A1E7801E0636A1E88FEF775FFC5F840624FF40073C5F8803FD5F8803FFEF76FFFD5F8883F23F4007222F00102BA
:4023000042F4007623F4EE6323F0030323B140F22A410848FEF7EEFEC5F8886F236843F002032360236B0BB101209847BDE8F8835C3F0810983E08102DE9F04105460C46E5
:40234000036813F4006F01D0802600E040267608A769D4F81C8017B1B8F1000F04D14FF499613148FEF7C6FE424639462846FEF755FF236A03442362E3691B1AE36173BBFB
:40238000A368FBB1E3689E4201D8013E00E05E1E2B6813F4006F01D0802300E040239E4204D34FF420712148FEF7A4FED5F8043323F0FF03F6B21E43C5F804630123C5F855
:4023C000C83F02E00023C5F8C83F636823F001036360236B33B304209847BDE8F081A169D5F8002302F00F02072A00D940000844A0619E4216D95C1E2B6813F4006F01D024
:40240000802300E040239C4204D34FF420710748FEF770FED5F8043323F0FF02E3B21343C5F80433BDE8F0815C3F0810983E0810002800F0A48170B50546002900F0A181E5
:4024400016460C460B78022B03D93F21A248FEF751FE637B023BDBB2062B03D940219E48FEF748FEA37B3BB1022B05D0032B03D041219948FEF73EFE94F82130012B03D9F7
:4024800042219548FEF736FE94F82830012B03D943219148FEF72EFE2378012B06D86368083B082B94BF0023012307E0A37F2BB16368013B062B94BF002301231BB1452100
:4024C0008548FEF717FEA368053B042B03D946218148FEF70FFE6369FF2B03D947217E48FEF708FEA369FF2B03D948217A48FEF701FEA37C6BB1237833B9A368092B05D17A
:40250000A37B2BB1012304E0012302E0012300E000231BB14A217048FEF7ECFD636B23F4366323F00D031BB14C216B48FEF7E2FDE36B23F4EE6323F003031BB14D21664887
:40254000FEF7D8FD2378022B01D1A37F13B16268013A00E00022237F13B14FF4803100E00021A368082B02D84FF4006300E000230B4302F00F02134343F000732B60226B89
:402580002B6813F4006F01D0802300E040239A4203D362215048FEF7ADFDA26B2B6813F4006F01D0802300E040239A4203D363214948FEF79FFD626A2B6813F4006F01D024
:4025C000802300E040239A4203D364214248FEF791FD23781B0603F040732B64637F0BB1402200E00022A37C13B14FF4806300E000231343227C12B14FF4807200E00022C4
:402600001343627C12B14FF4007200E000221A43E36A013B1B0403F470231343627B013A02F007021343A27B120102F030021343AB64237B13B14FF4807200E00022E37BEE
:4026400023B92378022B03D1012302E0012300E0002313B14FF4007300E000231A43A368013B03F00F031343C5F80033227DA3691B0403F47F031343C5F81033E26AD5F897
:40268000003303F00F0303339A4201D3102A03D97A211148FEF72EFDE37F23B12378012B03D0002302E0002300E0012313B14FF4807200E00022637B013B03F007031A4367
:4026C000A37B1B0103F0300313436B64237B2BB14FF4807203E000BF9C3F08100022A368013B03F00F0313432278012A02D14FF4803200E000221343C5F8003294F830308D
:40270000C5F8043394F8203013B14FF0007200E0002294F82130012B02D14FF0807300E00023134394F82820012A02D14FF4803200E00022134394F8242013432B6594F88A
:402740003830C5F80432636B23F4926323F002031B051B0DC5F8C83FE36B23F08C035B055B0DC5F8883F76B1002070603060B060F0603062F0623063044B736370BD0448A8
:402780007047034870BD002070BD00BFEFCDAB000160AA000B694A69934202D34869181A7047CA694869101A184470472DE9F04107460D46036813F4006F02D04FF080087F
:4027C00001E04FF040084FEA5808D7F80863C6F308062C6926E00134EB689C4200D100246B699C420FD12B6B0BB1082098476B699C4208D10023C7F8C83F0CB1013C13E095
:40280000EC68013C10E0D7F84023D7F8003303F00F03072B02D8AB681A5502E0AB6823F81420013E002ED6D12C61EC6829463846FFF7B0FF201A804519D908B1441E00E099
:4028400000243B6813F4006F01D0802300E040239C4204D34FF420710648FEF74BFCD7F8040320F0FF03E0B21843C7F80403BDE8F08100BF983E081038B504460D46D0F8A1
:40288000003E13F0080F35D0D0F8CC3F13F448730AD04A681A434A60C0F8C03FD0F8C03F0B6B0BB110209847D4F8CC3F13F4006F09D06B6843F400636B604FF40063C4F814
:4028C000C03FD4F8C03FD4F8CC3F13F0010F11D0EB6923B129462046FFF72EFD05E0AB681BB129462046FFF761FF0123C4F8C03FD4F8C03FD4F8003E13F0040F2ED0D4F8A2
:402900008C3F13F4A0630AD02A681A432A60C4F8803FD4F8803F2B6B0BB120209847D4F88C3F13F0010F08D029462046FFF796FC0123C4F8803FD4F8803FD4F88C3F13F451
:40294000007F0BD00022C4F8882F2B6823F001032B60EA622B6B0BB10220984738BD00BF00287DD00346002A7CD070B45068000280B29568AD0405F480252843D468240481
:4029800004F4403404431069000600F0E0602043147F0CB1012400E0002420430C1DA4011851D06828B903EB81100024C0F808410CE0012805D1146803EB8110C0F808419B
:4029C00004E003EB81100124C0F80841106938B9546903EB8110C0F80C419469C0F81041146803EB8110C0F81441906CB0F1FF3F17D0946A04F00F04166B360206F4706645
:402A00003443956B2D0405F470252543146C2403A4B22C430001C0B2204303EB8114C4F82001506A00F00300D66A360106F030063043556B2D0205F440752843D46BA401A7
:402A4000E4B20443506C800000F00C00204303EB8113C3F82401126AC3F83821002003E0024870470148704770BC70470100B6002DE9F8430E46074618B93A217548FEF77E
:402A800039FB1EB93B217348FEF734FB002F00F0DA80002E00F0DA8032686F4B13401BB14A216C48FEF726FB72686C4B13401BB14B216848FEF71EFBB36813F0FC2F03D041
:402AC0004C216448FEF716FBF36813F0FC2F03D04D216048FEF70EFB337D032B03D94E215C48FEF707FBB369B3F5803F03D34F215848FEF7FFFAF36D072B03D950215548B0
:402B0000FEF7F8FA336EB3F5803F03D351215148FEF7F0FA736EB3F5803F03D352214D48FEF7E8FA736843F000437B60B3683B61F3687B613369BB61337D9B07FB61B3694D
:402B40003B62336803F46068736803F00409002435E02546A31D06EB83035A68404B13401BB163213B48FEF7C5FAAB1D06EB8303596805F1200247F822105B6813F0012F02
:402B80000BD1B8F5606F08D1B9F1000F05D04FF47842344B23F8152003E00022314B23F81520726F02F11C7303F58033520093FBF2F31BB22C4A42F825300134E4B20F2C0E
:402BC000C7D9F36DC7F81832F36DC7F81032336EC7F82832336EC7F82032736EC7F83832736EC7F8303296F87030DBB1B36EB3F1804F03D382211748FEF77CFAF36E23F4EA
:402C00004F0323F0FF031BB183211248FEF772FA6FF04043C7F80433B36EC7F80033F36EC7F84433D7F8003F3F2B02D0D7F8003F13B90B23C7F8003F336843F400133B60B0
:402C40000020BDE8F8830948BDE8F8830748BDE8F88300BFDC3F08100811DF0001FE302088CA887E804B0208A04B02080100060038B50D46044618B9B5211748FEF73AFA19
:402C80002CB30023236063604FF0031222616261A361E361236206E003F12002002144F822100133DBB20F2BF6D90023C4F81832C4F82832C4F838325DB16FF04043C4F8FF
:402CC00004330020C4F84003C4F8440338BD034838BD002038BD00BFDC3F08100100060008B50368002B0ADBD0F8A032002BFBDB036843F0004303600220FEF7EFF908BD5D
:402D000038B505460C46012904D940F271110648FEF7F0F9012C04D16B6843F480336B6038BD01236B6238BDDC3F0810436813F4803F03D0436823F480334360704700BFB8
:402D400038B505460C460F2904D94FF415710848FEF7D0F90F2C07D8203455F8243013F0012F03D0002038BD002038BD012038BDDC3F081038B505460C460F2904D940F284
:402D800022211048FEF7B6F90F2C14D821462846FFF7D6FF80F0010010F0FF0F05D06B6813F0080F09D1002038BD6B6813F0040F05D1002038BD002038BD012038BD0120BD
:402DC00038BD00BFDC3F081070B506460D460F2904D94FF428710A48FEF78CF90F2D05D805F1600356F82340A4B200E0002429463046FFF7BFFF08B120B270BD204670BD0A
:402E0000DC3F0810F8B506460C4615460F2904D940F27B311948FEF76DF90F2C2BD8736813F0800F22D104F1200356F8233013F4806F1BD07768C7F302170137012303FAC7
:402E400007F7736813F4807F02D1102F00D9102721463046FFF78EFF20B9ADB2B5FBF7F52DB203E03FB295FBF7F52DB2044B33F81430ED1A2DB22846F8BD00BFDC3F081056
:402E8000804B020870B505460C4616460F2904D940F21F411648FEF72DF90F2C23D86B6813F0020F21D1324621462846FFF7AAFF42F2107303FB00F2002807DD0D4B53F8AE
:402EC000240000EBD07002EB600306E0094B53F8240000EBD070A2EB6003064A52F8240093FBF0F002E0002000E0002000B270BDDC3F0810A04B020808B502490248FFF7F2
:402F0000BBFC08BDE04B02080000664008B5114B1B785BB9104A11491148FFF789FA11491148FEF789F801220A4B1A700E4BB3F90030002B08DB590903F01F03012202FAF0
:402F400003F30A4A42F82130054A136843F00043136008BD644B0208E04B02081840081000006640F92E0810DC3B081000E100E008B502490248FFF765F908BD184C0208F8
:402F80000000674010B5144B1B788BB9134C144A14492046FEF74AFD134A14492046FEF753FE13491348FEF747F801220A4B1A70104BB3F90030002B08DB590903F01F03A4
:402FC000012202FA03F30C4A42F82130034A136843F00043136010BD654B020800006740184C02085840081084D71700A0860100712F0810D43B081000E100E008B5084B95
:403000001B783BB9074A00210748FFF7A9FC0122034B1A70044B01229A609A6108BD00BF664B02086C4008100000384038B504461E4B1A68916892F8703003F00203DBB206
:4030400043F08043C1F800340369FF2B0AD89168B2F874200A44916821F47F411B029BB20B439360114B1A68906892F87310032303FA01F592F8703092F8721003FA01F1D6
:40308000294303F002030B4343F00043C0F800349368D3F80034064D00212846FFF7E8FDA1682846FFF7E4FC38BD00BF7C4B020800001D4108B5074B5B6813F4802F04D0B9
:4030C00001210448FFF71CFE08BD00210148FFF717FE08BD00001D4108B5084B1B7963B907490848FDF7A8FF044B5B792BB90122024B5A710448FFF799FF08BD684B02085C
:4031000039310810CC3B0810F440081008B5084B1B7913F0010F06D1FFF7DEFF044A137943F0010313710348FFF7DAFD08BD00BF684B020800001D4110B5094BD3F81042BF
:40314000072C04D940F231610648FDF7D3FF044BC3F81042D3F81022D3F8103210BD00BF00001D41B840081002440346934202D003F8011BFAE770470EB400B59CB04FF41C
:4031800002711DABADF81410029006906FF000410A48049107914FF6FF7153F8042BADF816100068019302A900F076F8029B00221A701CB05DF804EB03B0704710430208A5
:4031C00010B5034642B111F8014B03F8014B013A002CF7D11A4400E010BD934202D003F8014BFAE710BD2DE9F0478E689E4282460C46914698463ED88A8912F4906F3AD032
:40320000256809696F1A6569022305EB450595FBF3F57B1C43449D4238BF1D4653050FD5294600F091FB064698B13A46216900F017FBA38923F4906343F08003A38113E03F
:403240002A4600F0DFFB064670B92169504600F02DFB0C23CAF80030A38943F04003A3814FF0FF30BDE8F087266165613E44ED1B2660A5604646464528BF46463246494603
:40328000206800F0F8FAA3689B1BA36023681E4426600020BDE8F0872DE9F04F9DB0804603938B891C060D4616460DD50B695BB9402100F049FB2860286118B90C23C8F87E
:4032C0000030CDE040236B610023099320238DF82930DFF89CB130238DF82A3037463C4614F8013B1BB9B7EB060910D003E0252BF9D02746F3E74B46324629464046FFF7A9
:4033000072FF013000F0A780099B4B4409933B78002B00F0A08000234FF0FF3204930793059206938DF853301A930126052221784E4800F045FA671C049B38B14B4A801A88
:4033400006FA00F0184304903C46EFE7D90644BF20228DF853201A0744BF2B228DF8532022782A2A03D0079A00210A200BE0039A111D12680391002A10DA524243F0020043
:40338000079204900BE0274601343B78303B092B03D800FB02320121F5E701B107923B782E2B1ED17B782A2B0AD1039B1A1D1B680392002BB8BF4FF0FF330237059310E0CF
:4033C00000230593781C19460A24074601303A78303A092A03D804FB01210123F5E703B1059103223978224800F0EAF940B14023CBEB000003FA00F0049B1843049001370E
:4034000039781C488DF8281006227E1C00F0D8F988B1194B33B9039B073323F007030833039314E003AB00932A46144B04A94046AFF3008007E003AB00932A460F4B04A9F0
:40344000404600F093F8B0F1FF3F824603D0099B5344099342E7AB895B0601D4099801E04FF0FF301DB0BDE8F08F00BF82410810884108108C41081000000000E7310810F6
:403480002DE9F04791461F460A698B68DDF820809342B8BF1346C9F8003091F8432006460C4612B10133C9F800302368990642BFD9F800300233C9F80030256815F00605B1
:4034C00010D104F1190A07E00123524639463046C04701301AD00135E368D9F800209B1A9D42F1DB94F843302268003318BF012392060FD5E1185A1C302081F84300224433
:4035000094F8451082F84310023303E04FF0FF30BDE8F08704F1430239463046C0470130F4D02268D9F80050E36802F00602042A08BF5D1B2269A3680CBF25EAE5750025C4
:403540009342C4BF9B1AED184FF000091A344D4509D00123224639463046C0470130D5D009F10109F3E70020BDE8F0872DE9F04317460A7E85B06E2A984606460C460C9BA2
:4035800001F1430E00F0AE8011D8632A22D009D8002A00F0BB80582A40F0CA8081F84520834955E0642A1ED0692A1CD0C0E0732A00F0B08009D86F2A2ED0702A40F0B8805F
:4035C0000A6842F020020A603EE0752A24D0782A3AD0ADE01A6801F14205111D1960136884F84230A8E021681A6811F0800F02D0111D196008E011F0400F02F104011960A1
:4036000002D0B2F9003000E01368002B3CDA2D225B4284F8432037E021681A6811F0800F02D0111D196007E011F0400F02F10401196001D0138800E01368227E5C496F2AFE
:4036400014BF0A2208221BE078225A4984F845202268186812F0800F00F104051D6003D1550601D5038800E00368D00744BF42F0200222601BB9226822F020022260102225
:40368000002084F8430001E049490A226568A560002D08DB206820F0040020602BB9002D7DD175460CE0002B79D07546B3FBF2F002FB1033CB5C05F8013D03460028F5D1F0
:4036C000082A0BD12368DA0708D5236962689A42DEBF302305F8013C05F1FF35C5EB0E0323612EE008681A68496910F0800F03D0101D1860136808E010F0400F02F1040046
:403700001860136801D0198000E0196000232361754616E01A68111D1960156862680021284600F04DF808B1401B6060636804E004F1420584F8422001232361002384F863
:403740004330CDF800803B4603AA21463046FFF797FE013002D14FF0FF3026E023692A4639463046C0470130F5D023689B0710D5002504F1190907E001234A4639463046B7
:40378000C0470130E7D00135E368039A9B1A9D42F2DBE068039B9842B8BF184605E00B7884F8423004F142058AE705B0BDE8F08393410810A441081000000000000000004D
:4037C00001F0FF01102A2BDB10F0070F08D010F8013B013A8B422DD010F0070F42B3F6D1F0B441EA012141EA014122F007047FF000070023F0E80256083C85EA010586EA22
:40380000010685FA47F5A3FA87F586FA47F6A5FA87F68EB9EED1F0BC01F0FF0102F0070232B110F8013B013A83EA010313B1F8D10020704701387047002D06BF3546033867
:40384000073815F0010F07D1013015F4807F02BF013015F4C03F0130F0BC0138704700BF10B5431E0A44914204D011F8014B03F8014FF8E710BD884210B501EB020301D89D
:40388000421E0BE09842FBD28118D21AD34204D013F8014D01F8014DF8E710BD994204D011F8014B02F8014FF8E710BD38B50546002946D051F8043C0C1F002BB8BFE41899
:4038C00000F0D6F81F4A1368114613B96360146032E0A3420ED92268A018834204BF18685B68636004BF121822600C6024E0A24203D813465A68002AF9D118681918A142DD
:403900000BD12168014458188242196014D1106852685A60014419600EE002D90C232B600AE021686018824204BF10685268626004BF091821605C602846BDE8384000F01C
:4039400098B838BD744B020870B5CD1C25F0030508350C2D38BF0C25002D064601DBA94202D90C23336046E000F082F8234B1C681A462146A1B10B685B1B0ED40B2B03D91B
:403980000B60CC18CD501EE08C420DBF63684B686360136018BF0C4615E00C464968E9E7174C23681BB9304600F052F820602946304600F04DF8431C18D0C41C24F0030410
:4039C000A0420DD12560304600F053F804F10B00231D20F00700C31A0ED05A42E25070BD211A304600F034F80130EBD10C233360304600F03EF8002070BD00BF744B0208D7
:403A0000704B0208F8B5074615460E4621B91146BDE8F840FFF798BF1AB9FFF747FF2846F8BD00F027F885420ED929463846FFF78BFF044650B131462A46FFF711FF3146B2
:403A40003846FFF733FF01E03046F8BD2046F8BD38B5064C002305460846236000F014F8431C02D1236803B12B6038BD644C02087047704751F8040C0028BEBF091851F87E
:403A8000043CC01804387047044A05491368002B08BF0B461844106018467047784B0208684C0208F8B500BFF8BC08BC9E467047F8B500BFF8BC08BC9E4670470300000034
:403AC00001000000010000000000000005036000040000000100000000000000010000000604600008000000C84A02086D03081047656E6572617465645F536F75726365E1
:403B00005C50536F43365C70646C5C647269766572732F7065726970686572616C2F7363622F63795F7363625F756172742E68000D0A00005425642C205425642D312C20CB
:403B400000000000626174562C2043757272656E74200D0A000000000D0A20456E746572204720746F20537461727420546573742C20456E746572205320746F2053746FAF
:403B800070200D0A000000000D0A20426567696E6E696E672074686520546573742E2E2E200D0A0047656E6572617465645F536F757263655C50536F43362F4144435F31E7
:403BC0002E6800002025642E25642C008A000000070000002F000000070000002E0000000700000047656E6572617465645F536F757263655C50536F43365C70646C5C6405
:403C00007269766572732F7065726970686572616C2F6970632F63795F6970635F6472762E68000047656E6572617465645F536F757263655C50536F43365C70646C5C649A
:403C40007269766572735C7065726970686572616C5C6970635C63795F6970635F6472762E68000047656E6572617465645F536F757263655C50536F43365C70646C5C64D3
:403C80007269766572735C7065726970686572616C5C6970635C63795F6970635F6472762E63000047656E6572617465645F536F757263655C50536F43365C70646C5C6498
:403CC0007269766572735C7065726970686572616C5C6970635C63795F6970635F706970652E630047656E6572617465645F536F757263655C50536F43365C70646C5C64F6
:403D00007269766572735C7065726970686572616C5C737973696E745C63795F737973696E742E6300000000000020400000244000000040000000000000234000003040B1
:403D40000000314000009F40000022400000104002020202020202020210101D800017007500FF030602063604102000000000007FC0000000040000000000000019324B93
:403D8000647D00804000080B100000000000FF012002001F00800004FF081018001000140018001C4044484C50000000081000000800000004000000041000000012000041
:403DC00004210000002100000016000040114002C41300138013A013200000001C0000000000214000002540000001400000344000002440000031400000324000001F4146
:403E00000000234000001140010101010101010101101010800019005500F0000501053B04101C01010000000FC000000004000001010101011D3A57789600082000101261
:403E400008000000001F00000010000F002000023F06080E00080009000A000B24282C3034000000100000009000000088000000080000008000000004F0000000F00000E9
:403E8000400200002005A000D00100018001A001200000001000000047656E6572617465645F536F757263655C50536F43365C70646C5C647269766572735C70657269701E
:403EC000686572616C5C7363625C63795F7363625F636F6D6D6F6E2E6800000047656E6572617465645F536F757263655C50536F43365C70646C5C647269766572735C70CC
:403F000065726970686572616C5C7363625C63795F7363625F6932632E63000047656E6572617465645F536F757263655C50536F43365C70646C5C647269766572735C706B
:403F400065726970686572616C5C7363625C63795F7363625F6932632E68000047656E6572617465645F536F757263655C50536F43365C70646C5C647269766572735C7026
:403F800065726970686572616C5C7363625C63795F7363625F756172742E680047656E6572617465645F536F757263655C50536F43365C70646C5C647269766572735C7028
:403FC00065726970686572616C5C7363625C63795F7363625F756172742E630047656E6572617465645F536F757263655C50536F43365C70646C5C647269766572735C70ED
:4040000065726970686572616C5C7361725C63795F7361722E630000000000000C00000008000000000200000000000000000000000000000000000000000000000000009E
:40404000000000000B000000000000000000000000000000000000000200000000000000000000000000000000000000FFFF0000070000000000000000000000020000002C
:40408000E703000000400000000000000000000003000000FFFFFFFF03000000FFFFFFFF03000000FFFFFFFF03000000FFFFFFFF03000000FFFFFFFF47656E6572617465B0
:4040C000645F536F757263655C50536F43365C70646C5C647269766572732F7065726970686572616C2F7361722F63795F7361722E68000000000000020000000841081035
:40410000010000000200000072EE2013BC00049087000400020002000002000E000000000300000004000000021000000000000000000000000000000000000000000000E1
:40414000000000000000000000000000000000000000000000000000000000000000000000000000010000000000000000000000000000000000000000000000E40C00004E
:404180004300232D302B2000686C4C0065666745464700303132333435363738394142434445460030313233343536373839616263646566000000000000000000000810B1
:4041C000004002088C020000DC4108108C4202082C0600004C4902081C0300000048E80100127A0000093D0000127A0000127A0008000000401F00000000A00F01010000B7
:4042000000000000000000000000000000000000000000000000000000000000000000008041081000000000000000000000000000000000000000000000000000000000A5
:404240000000000000000000000000000000000000000000000000000000000000000000B0420208B10208108D0208100000000080B2C10050B3164B1B681A6AB3F8B030E7
:40428000C3EBC303D358002BF5DA3E22114B1A6041F61E7204331A60A3F584730622C3F8182521F07F41C3F81C15D3F81C35084B1A68116AB2F8B030C3EBC3030B44002270
:4042C0005A60054BD3F81C35002BFADA704700BF7C4B02080401264000002640F8B5274B1B6893F83130052B04D840F2C311244800F082FA214F3A68166AB2F8B03003EBFF
:4043000083031E4452684FF26003D458A4B200F03BFA05463B681968D3F890208A58013C032C27D8032A0CD1164A127812F0FF0F07D10822B2601968D3F890208A58032A36
:40434000F9D01968D3F884208B588858C0F307221B0E581C02FB00000B4B03FB00F00B4B1B680B4AA2FB03239B09B0FBF3F08230FFF77EFF284600F01FFAF8BD7C4B0208C2
:40438000E43B08100B00001640420F0090420208D34D62104378FF2B23D110B500F0F4F90446104B1B6893F83130042B04D840F2C3110D4800F020FA0A4B1A68136AB2F8A9
:4043C000B02003EB8203DB685A68136843F001031360136813F0010FFBD1204600F0ECF910BD70477C4B0208E43B08102DE9F04707468846554B1B6893F83130012B04D8B0
