:400000000010002011000000B1020000B102000010B500F0D5FC00F06BF9C04610B5214C12232360182000F043FC802252001E4B1A608023DB051D4919601D490A601D4A78
:400040001A601D491D4A11601D4A1A60802149011C4A11601C4A1A60E02109011B4A11601B4A1A6020221B4B1A6021321A4B1A607F321A4B1A607D3A194B1A60013A194B6D
:400080001A6019490B2000F081FB0B2000F072FB0022164B1A60002000F09AFC1123236010BDC046300010400003004040FF00800403004041FF0080006BDC020005004001
:4000C000C0FF00800C03004043FF00800803004042FF00802800034030010040100100400401004000010040650A00000C02064010B572B6104A114B1A60EE22104B1A602C
:400100000022104B1A6020230F4A13600F49104A1160104A136072330F4A13600F4A136003220F4B1A6021320E4B1A60FFF776FF00F084F810BDC046EE00990000000240FA
:400140000003024004013F4000000440B61D030008000440180004400002044018020440000304400803044010B5064C2378002B07D1054B002B02D0044800E000BF0123A9
:40018000237010BD30010020000000007C150000084B10B5002B03D00749084800E000BF07480368002B00D110BD064B002BFBD09847F9E700000000340100207C15000039
:4001C000A80000200000000000B587B000F092FA00F05CFA00F028F900F04AF9002000F093FC62B600F0D0F802000A4901A800F0A1FD01A800F0B6F9074800F0B3F90020F7
:4002000000F082FCFA20800000F0D2FA012000F07BFCE7E7A8150000B8150000064B1B68002803D080221206134301E05B005B08014A13607047C04680033A4010B58023BC
:400240001B060F4A13608021C9020E4A11600E490E4A11600E4A13600E4A0F4B1A6003220E4B1A600E4A0F4B1A60F1220E4B1A60D13A0E4B1A600120FFF7D0FF10BDC046A4
:400280000000304080003040040000208800304000003840010000011000384008013F400100008000023F4004023F40000E3F4010B500F009FD03680C2B00D1FEE7FEE72C
:4002C00010B50300084A1068C318084A9A1A802A02DC054A136005E000F0F6FC0C2303600120404210BDC046AC0000208801002070B50F4E0F4D13E029686B68AC68002292
:4003000002E001C901C30432A242FAD1E868002202E0002102C304328242FAD11035013E002EE9D100F0D6FCFFF74EFFFEE7C046010000006016000010B500230AE0032B96
:4003400003D89A000849505800E008489900084A88500133282BF2D9FFF7CAFE80229205044B1A6010BDC04600000000B10200000000002008ED00E00004000C014B1860BB
:400380007047C04608010140024B18680004000C7047C046080101400004000C014B18607047C0461401014070B504000D0000F0C0FBAC40024B1C6000F0BFFB70BDC046F8
:4003C0000800014010B500F0B4FB064A116801230B43136000F0B1FB18210120FFF7E4FF10BDC04600000140014B18607047C0463801014010B5084A084B1A600C22084B5F
:400400001A600120FFF7F0FF0648FFF7C5FF0020FFF7B2FF10BDC046000700020001014024010140FFFF000010B5064B1B78002B04D1FFF7DFFF0122024B1A70FFF7C2FFBD
:4004400010BDC0464C01002010B500F075F810BD10B500F01DF810BD10B5044A1368802109060B431360FFF7EFFF10BD0000084010B5064B1B78002B04D1FFF7E9FF012214
:40048000024B1A70FFF7E8FF10BDC0464E010020154A164B1A600023154A13601549164A1160164A16490A6007201649086016490B6006381549086015490A60154A136069
:4004C0000421154A1160154A1360154A1360154A1360154A1360154A1360154A13601268144B1A807047C0460B000002000008404000084001000A004800084007000080EC
:4005000000030840040308401003084044000840000208400402084050000840880E0840C80E0840480F0840080F0840C80F0840880F084050010020064A1168064B0B403C
:40054000902109040B431360044B1A88044B1A607047C04600000240FFFF0FFF50010020880F084070B50500002402E000F0E8FA0134285D0028F9D170BDC0460449086849
:40058000044B1B680322134003430B607047C046080030405401002030B5204C204B216819400304F022120313400B4323601D4C25681D4929401A4011430D005A0C072198
:4005C0001140032213405A1E4B005B189B189B00164A9B58F02212051A402B0013432360002804D180225205114B1A6003E080225205104B1A60094B1B685A0C07211140A1
:40060000032003405A1E4B005B189B189B00074A9B580340084A136030BDC04654010020FFFFF0FF08003040FFFFF0F0BC1500008C00304088003040140F304010B50E4A64
:400640000E4B1A600E4A1368802109060B4313600C4B19680C4A0A401A601A68802109010A431A601B689B0701D0FFF787FF0920FFF792FF10BDC046030009005401002007
:400680000000304008003040FBF7FFFF10B5064B1B79002B04D1FFF7D1FF0122024B1A71FFF76CFF10BDC046540100200222064B1A6080221206054B1A600022044B1A60F0
:4006C0000332044B1A6070475C0100200000304004003040080F3040044A1168044B1B680B43802109010B4313607047040030405C01002010B5064B1B79002B04D1FFF7C2
:40070000D5FF0122024B1A71FFF7E6FF10BDC0465C0100200C4B1B689B001C22134018330A4A1268920803210A40D34008490868084A02400A60084A944663441B78DBB2D3
:40074000064A13607047C046080F03402800034000000640FFFFFFBFCDF1FF0F0C0F0340034B18688023DB05184000D001207047000006401F2318401E3B8340014A1360FD
:400780007047C04600E100E001BE704770B504000D00182802D90020FFF7F6FF1034A40080239B059C4664442068256070BDC04610B5040006E0084B586800F0B1F9074B46
:4007C0009C46644480231B029C42F4D8024B9868604300F0A5F910BDB00000200080FFFF70B582B000F0E2F800284DD000F0A1F90500264B1A6892001C231A401832244BA0
:400800001B689B0803210B40DA400021214B1960214C2168214B0B4021494A438021C9018C466244D20B013A5205520D1343A0225203134323601B4B1B680193302000F0AB
:400840008DF9194A13688021C9050B4313602668164B1E40002407E00120FFF7A9FF1034A30533430C4A1360EE2CF5D90120FFF79FFFFF239B051E43074B1E60019A094B23
:400880001A60280000F059F902B070BD080F0340280003400C0F03400800064000F800C040420F003000104000000640FFFF3FC0F0B583B0040018280BD01C2809D020289C
:4008C00007D0242805D0282803D02C2801D0302849D100F02EF90190FFF742FF002803D0FFF718FF012600E00026214A136807218B4313601F4BE3181B78DBB21E4A136083
:400900001E4A13688B4313601D4803687F22934319001C4BE3181B7813400B430360322000F0FEF8182C16D9114F3B680725AB431A0023001C3B9B082B4013433B603220CD
:4009400000F0EEF83A68AA432300183B9B082C001C4014433C60012E01D1FFF741FF019800F0EBF802E00020FFF70EFF03B0F0BD080F0340CDF1FF0F0C0F0340100F034090
:40098000180F0340B4F1FF0F10B5034B1B7B584300F0C6F810BDC046B0000020024B1868800F80077047C0460C020640034B1B68002B01DA012000E000207047000006409C
:4009C000014A024B1A6070476588EDAC3800034010B50400FFF7E2FFA0421AD0144A136803218B431360134B1B689B0F01D17C2001E086204000FFF7C7FF00F09AF80D4A2E
:400A000013689B009B08A40FA4071C43146000F094F8074B1B6803229343064A1268920F01D1023200E001221343014A136010BD140206400C02064010B5040000F079F851
:400A4000054B1C4005490B68054A134023430B600B6800F072F810BD0404040010020640FBFBFBFF10B5244B1B685B0715D5234B1B685B070ED5224B5969042001401F4C70
:400A800022688A4322605A6982435A619B68002B00D098470420FFF7CFFF174B1B685B0518D5164B1B685B0510D5154B59698022D2001140114802688A4302605969114A04
:400AC0000A405A61DB68002B00D098478020C000FFF7B2FF084B1B685B030CD5074B1B685B0304D5064B1B69002B00D098478020C002FFF7A1FF10BD10020640C4000020FC
:400B000064010020FFFBFFFF04490A68D2B204239A4380001840104308607047000004400230800803D001300238FCD1C046C0467047EFF3108072B6704780F310887047C8
:400B4000044B1B681F221340082BF9D0024B18607047C046080208404002084070B50400FFF7E7FF0500102C05D8104A136803218B43136016E0202C07D80C490B6803224A
:400B80009343023A13430B600CE0302C07D807490B6803229343013A13430B6002E00020FFF7F2FD2800FFF7C8FF70BD30001040002243088B4274D303098B425FD3030A6F
:400BC0008B4244D3030B8B4228D3030C8B420DD3FF22090212BA030C8B4202D31212090265D0030B8B4219D300E0090AC30B8B4201D3CB03C01A5241830B8B4201D38B0351
:400C0000C01A5241430B8B4201D34B03C01A5241030B8B4201D30B03C01A5241C30A8B4201D3CB02C01A5241830A8B4201D38B02C01A5241430A8B4201D34B02C01A5241FB
:400C4000030A8B4201D30B02C01A5241CDD2C3098B4201D3CB01C01A524183098B4201D38B01C01A524143098B4201D34B01C01A524103098B4201D30B01C01A5241C3084A
:400C80008B4201D3CB00C01A524183088B4201D38B00C01A524143088B4201D34B00C01A5241411A00D20146524110467047FFE701B5002000F006F802BDC0460029F7D020
:400CC00076E770477047C046014B18687047C046280100200E4B70B500251E000D4CE41AA410A54204D0AB00F35898470135F8E700F0A4FC084B00251E00084CE41AA410B4
:400D0000A54204D0AB00F35898470135F8E770BD48160000481600004816000050160000002310B59A4203D0CC5CC4540133F9E710BD00000EB410B59DB002A9029008612F
:400D40000B48822488604861012040421FABC881084804CBA400006801938C8100F06EF80023029A13701DB010BC08BC03B01847FFFFFF7F28010020F0B58E6885B00700C4
:400D80000C00039201939E4243D890238A89DB001A423ED003250969236801985B1A029363695D43EB0F5D19029B6D1001331B18AB4200D91D00530510D52900380000F062
:400DC00037FB061E14D0029A2169FFF7A9FFA289194B134080221343A38112E02A00380000F086FB061E0CD12169380000F0D4FA0C23402201203B60A38940421343A3813C
:400E000017E0029B2661F61826606561019EED1AA560019BB34200D21E0032000399206800F0A5FA0020A3689B1BA36023689E19266005B0F0BDC0467FFBFFFFF0B59FB0AC
:400E4000029005938B890F0016001B0610D50B69002B0DD1402100F0EBFA38603861002804D10C23029A01381360D8E040237B61002306AD6B6120336B761033AB7634004C
:400E80002378002B03D1A31B049312D003E0252BF9D00134F4E7A31B320039000298FFF76BFF431C00D1B4E06A69049B944663446B612378002B00D1ABE0012200235242B3
:400EC0006A6002A95432521801342B60EB60AB601370AB65534E21780522300000F03CFA002807D00123801B83402A68013413432B60EFE72B68DA0604D55322202102A882
:400F0000121811701A0704D553222B2102A81218117022782A2A03D0099B00200A210EE0059A111D12680591002A01DB099204E05242EA60022213432B6001340BE0227859
:400F4000303A092A04D84B4301349B180120F6E7002800D0099323782E2B1ED163782A2B0AD1059B02341A1D1B680592002B01DA01235B42079310E000230A201A000134EE
:400F80006B6021783039092904D84243013452180123F6E7002B00D00792234E21780322300000F0D9F9002806D04023801B83402A68013413432B60217806221B48661C6F
:400FC000297600F0C9F9002812D0194B002B06D10722059B073393430833059314E005AB00933A00134B2900029800E000BF07E005AB00933A000F4B2900029800F08AF860
:401000000390039B013304D06B69039A9B186B6135E7BB890B985B0601D5012040421FB0F0BDC046061600000C1600001016000000000000790D0000F7B5170001938A68F5
:401040000B6900900C00934200DA130022003B6043321278002A01D001333B6023689B0602D53B6802333B60062523681D401ED0230043331B785A1E9341226892061CD516
:401080003020E1184331087021005A1C45310978A2184332023311700FE022000123193201990098089EB047431C0ED00135E3683A689B1A9D42F0DBDAE722000199433288
:4010C0000098089DA847431C02D10120404220E006232068E1683A6803400025042B03D18D1AEB43DB171D40A3682269934201DD9B1AED180027BD420AD0220001231A322F
:4011000001990098089EB047431CDED00137F2E70020FEBDF0B58BB006920A0043320793059004920A7E0C00109B6E2A00D1ABE011D8632A22D009D8002A00D1B5E0582A9D
:4011400000D0C5E045310A70814A4FE0642A1DD0692A1BD0BCE0732A00D1AAE009D86F2A29D0702A00D0B3E0202209680A43226037E0752A1FD0782A33D0A9E00E001A682E
:401180004236111D196013683370A4E021681A68080606D4490604D5111D19600023D55E02E0111D19601568002D3BDA2D23049A6D42137036E021681A68080606D4490696
:4011C00004D51568111D1960ADB202E0111D196015685F4B227E039308276F2A1DD00A271BE022007821453211705A4A19680392081D226818600D68100602D4500600D5AC
:40120000ADB2D30702D520231A4322601027002D03D1202322689A4322602300002243331A7002E00A274A4B03936368A360002B09DB0422216891432160002D05D1049E0F
:40124000002B11D07BE0002D79D0049E28003900FFF734FD039B013E5B5C280033703900FFF7A6FC051EF1D1082F09D12368DB0706D563682269934202DC3023013E3370BB
:40128000049B9B1B23612BE009681A68080607D4490605D5111D19601368A28A1A8004E0111D1960136862691A600023049E236116E01A68111D1960166800216268300011
:4012C00000F04AF8002801D0801B6060636803E0260042363270012323610023049A1370079B09AA00932100069B0598FFF7A4FE431C02D10120404227E023693200069976
:401300000598079DA847431CF4D0236800259B070FD4099BE068984217DA180015E022000123193206990598079EB047431CE1D00135E368099A9B1A9D42F0DBE9E726006F
:40134000039B42361B7833708EE70BB0F0BDC0461716000028160000C9B28218904204D003788B4202D00130F8E70020704710B5884202D98B18984201D3002305E09B1A9F
:40138000013A08D3995C8154FAE7934203D0CC5CC4540133F9E710BD70B50500002944D00C1F2368002B00DAE418280000F0D8F81E4A13681100002B02D16360146031E063
:4013C000A3420DD92268A018834203D118685B688218226063600C6024E0A24203D813005A68002AF9D11E689819A0420BD12168711858181960824214D110685268411809
:4014000019605A600EE0A04202D90C232B6009E021686018824203D1106852684118216062605C60280000F09CF870BD80010020032370B5CD1C9D43083506000C2D01D22B
:401440000C2501E0002D01DBA94202D90C23336048E0300000F084F8234B1C681A002100002913D00B685B1B0DD40B2B02D90B60CC181EE08C4202D1636813601AE04B6818
:4014800063600C0016E00C004968E9E7174C2368002B03D1300000F051F820602900300000F04CF8431C18D00323C41C9C43A0420DD12560300000F054F8200007220B3016
:4014C000231D9043C31A0ED05A42E2500BE0211A300000F033F8431CEBD10C233000336000F03FF8002070BD800100207C010020F8B506000C001500002904D11100FFF747
:4015000097FF040018E0002A03D1FFF745FF2C0012E000F027F885420ED929003000FFF787FF071E07D021002A00FFF7F9FB21003000FFF731FF3C002000F8BD002370B530
:40154000064C050008002360FEF7BAFE431C03D12368002B00D02B6070BDC04684010020704770470B1F1A68101F002A04DA891804390B68D0180438704700000000000043
:401580000D0A00005425642C205425642D312C2000000000626174562C2043757272656E74200D0A00000000566F6C74616765203D202564200D0A000A0D00000200000F3A
:4015C0000200000F0200000F020000080200000902000009010000030200000502000004010000000200000202000003010000000200000002000001010000000100000086
:40160000010000004300232D302B2000686C4C006566674546470030313233343536373839414243444546003031323334353637383961626364656600000000F8B5C046C0
:40164000F8BC08BC9E4670479101000039030000F8B5C046F8BC08BC9E4670476901000070160000A800002088000000580000000000000088010020010000000000E02E73
:40168000C05D00001800000000366E01040404000000000000000000000000000000000000000000000000000000000000000000041600000000000000000000000000002A
:4016C000000000000000000000000000000000000000000000000000000000000000000000000000000000000000000000000000C800002000000000000000000000000002
:4017000000000000000000000000000000000000000000000000000000000000000000000000000000000000000000000000000000000000000000000000000000000000A9
:401740000000000000000000000000000000000000000000000000000000000000000000000000000000000000000000000000000000000000000000000000000000000069
:401780000000000000000000000000000000000000000000000000000000000000000000000000000000000000000000000000000000000000000000000000000000000029
:4017C00000000000000000000000000000000000000000000000000000000000000000000000000000000000000000000000000000000000000000000000000000000000E9
:0200000490303A
:02000000DCCA58
:0200000490402A
:200000000000000000000000000000000000000000000000000000000000000000000000E0
:0200000490501A
:0C00000000021C2021AC00011C26FE7632
:0200000490600A
:0100000001FE
:00000001FF