:400000000010002011000000410800004108000010B501F0B5FB00F035FCC04610B5214C12232360182001F023FB802252001E4B1A608023DB051D4919601D490A601D4ABF
:400040001A601D491D4A11601D4A1A60E02109011C4A11601C4A1A60802149011B4A11601B4A1A6020221B4B1A6021321A4B1A607F321A4B1A607E3A194B1A600132194B74
:400080001A6019490B2001F03BFA0B2001F022FA0022164B1A60002001F07AFB1123236010BDC046300010400003004040FF00800403004041FF0080006BDC0200050040B7
:4000C000C0FF00800803004042FF00800C03004043FF00802800034030010040100100400801004004010040251800000C02064010B572B6104A114B1A60EE221206104BB8
:400100001A6000220F4B1A6020320F4B1A600F4A0F4B1A60B3230F4A13600F4A1360C0220E4B1A60902212040D4B1A60FFF776FF00F08CFA10BDC046EE00990000000240C2
:400140000003024004013F4000000440B61D0300080004400002044018020440000304400803044010B5064C2378002B07D1054B002B02D0044800E000BF0123237010BDA5
:4001800068010020000000005C6B0000084B10B5002B03D00749084800E000BF07480368002B00D110BD064B002BFBD09847F9E7000000006C0100205C6B0000A8000020F5
:4001C0000000000030B589B0012001F089FB002001F07AFB684606496B460A0032CA32C332CA32C312881A8000F09EFC09B030BD606B0000F0B591B006000D0001AC214BEA
:400200001A8822809B78A370200000F08DFC1E4923000A0083CA83C383CA83C383CA83C31168196092889A80200000F07DFC00240BE02200154901A803F0FCFF01A800F000
:4002400073FC0A2001F094F90134B442F1D300240BE022000E4901A803F0ECFF01A800F063FC0A2001F084F90134AC42F1D301A8044B1A8802809B78837000F055FC11B0CE
:40028000F0BDC046906C00007C6B0000A86B0000BC6B0000F0B54F4680B4A0B001F090F801F07EF801F0E4FB01F046F801F0ACFB00F0B6FB002001F013FB002001F004FB69
:4002C00000F078FF00F052FC62B63F22C0490BA803F028FB0BA800F027FCBE4B0493012001F0FEFAFA20800001F042F9002001F0EBFA00F003FC4728F1D10BA8B64903000D
:400300000A0032CA32C332CA32C312681A6000F00BFC012001F0E4FA012001F0D5FA00F05BFB05210620FFF765FF002001F064F800F0EEFD022000F0FFFD002000F018FEAD
:40034000040000F049FF21B2002000F087FE002001F052F800F0DCFD022000F0EDFD002000F006FE040000F037FF21B2002000F075FE02F097FB039000F0DEFA8146002758
:4003800001263D00370017E100F0D6FA0400020092490BA803F04EFF0BA800F0C5FBA1450FD24B46E01A02F0C5FB029902F0E0F88B4901F013FF011C049802F0EDF904904E
:4003C000A146049803F084F90022864B02F006FF854A864B02F0ECFB02000B0084490BA803F028FF0BA800F09FFB022001F004F800F08EFD022000F09FFD002000F0B8FDC6
:40040000040000F0E9FE21B2002000F027FE02F049FB039902F0C0F903F05AF90022754B02F0DCFE0022744B02F0C2FB03F0A4F9059003F04DF902000B00069207936F4E7E
:4004400031000BA803F0F6FE0BA800F06DFB012000F0D2FF00F05CFD022000F06DFD002000F086FD040000F0B7FE21B2002000F0F5FD02F017FB039902F08EF903F028F9C1
:400480005F4A604B02F0AAFE0022FF239B0502F0A5FE03F071F9029003F01AF902000B000892099331000BA803F0C4FE0BA800F03BFB0023202218A9082000F001FC0224CA
:4004C0000BE018AB1A5D611C5B5C4F490BA803F0B1FE0BA800F028FB02340C2CF1D90023202210A9092000F0EBFB02240BE010AB1A5D611C5B5C44490BA803F09BFE0BA8A5
:4005000000F012FB02340A2CF1D90BA83F4B1A8802809B78837000F007FB00F0EFFA0400FA20400001F024F8532C02D1FFF74AFE0125022420E018AB1A5D3C2A0BD9631C0C
:4005400018A9CB5C009432490BA803F073FE0BA800F0EAFA002710AB1A5DB42A0BD9631C10A9CB5C00942B490BA803F063FE0BA800F0DAFA002702340B2CDCD92649059891
:4005800001F004FE002808D0069A079B23490BA803F050FE0BA800F0C7FA2149029801F009FE002808D0089A099B1E490BA803F041FE0BA800F0B8FA002F02D0002D00D160
:4005C000E2E6194800F0B0FA00F0A0F987E6C046D06B000033332341106C00002C6C000000006145000059406666666666662440346C00000000084000408F40406C000079
:40060000A01A2FDD2406C13F486C0000906C0000506C0000946C000000002040D86C00000000A041FC6C0000286D0000064B1B68002803D080221206134301E05B005B085E
:40064000014A13607047C04680033A4010B580231B06154A13601549154A11608022D20214490A6014481549086015490B6015490A601549154A1160154A1360154A164BC9
:400680001A60164A164B1A600322164B1A60164A164B1A60F122164B1A60D13A154B1A600120FFF7C3FF10BD0000304008000020800030408800304010042000900030401D
:4006C00000003140800031401000002088003140000038401000000110003840020000022800384008013F400100008000023F4004023F40000E3F4001280BD0002802D020
:40070000022812D018E080220C4B1A607E3A0C4B1A6011E04022094B1A600A4B802212041A60802252021A6006E02022034B1A6080229203044B1A607047C0468000314003
:40074000C0013840900030408800314001280BD0002802D0022812D018E080220C4B1A607E3A0C4B1A6011E04022094B1A600A4B802212041A60802252021A6006E0202209
:40078000034B1A6080229203044B1A607047C04684003140C4013840940030408C00314001280CD0002802D0022810D016E080220B4B1A60802292020A4B1A600EE02022DB
:4007C000074B1A6080225201074B1A6006E02022034B1A6080229203044B1A607047C0468800304040013840900030408000304001280CD0002802D0022810D016E080227D
:400800000B4B1A60802292020A4B1A600EE02022074B1A6080225201074B1A6006E02022034B1A6080229203044B1A607047C0468C003040440138409400304084003040C8
:4008400010B503F043F803680C2B00D1FEE7FEE710B50300094A1068C318094A9A1A802189008A4202DC054A136005E003F02EF80C2303600120404210BDC046AC0000206B
:400880001002002070B50F4E0F4D13E029686B68AC68002202E001C901C30432A242FAD1E868002202E0002102C304328242FAD11035013E002EE9D103F00EF8FFF7EAFC06
:4008C000FEE7C04601000000E070000010B500230AE0032B03D89A000849505800E008489900084A88500133282BF2D9FFF700FC80229205044B1A6010BDC0460000000042
:40090000410800000000002008ED00E010B501F0C8F8044A136801218B43136001F0C5F810BDC046000001400004000C014B18607047C04608010140024B18680004000C5D
:400940007047C046080101400004000C014B18607047C0461401014070B504000D0001F0A0F8AC40024B1C6001F09FF870BDC0460800014010B501F094F8064A11680123E2
:400980000B43136001F091F818210120FFF7E4FF10BDC04600000140014B18607047C0463801014010B5084A084B1A600C22084B1A600120FFF7F0FF0648FFF7C5FF0020AD
:4009C000FFF7B2FF10BDC046000700020001014024010140FFFF000010B5064B1B78002B04D1FFF7DFFF0122024B1A70FFF7C2FF10BDC0468401002010B500F075F810BD39
:400A000010B500F01DF810BD10B5044A1368802109060B431360FFF7EFFF10BD0000084010B5064B1B78002B04D1FFF7E9FF0122024B1A70FFF7E8FF10BDC046860100204F
:400A4000154A164B1A600023154A13601549164A1160164A16490A6007201649086016490B6006381549086015490A60154A13600421154A1160154A1360154A1360154AA1
:400A80001360154A1360154A1360154A13601268144B1A807047C0460B000002000008404000084001000A004800084007000080000308400403084010030840440008409D
:400AC000000208400402084050000840880E0840C80E0840480F0840080F0840C80F0840880F084088010020024B1A88024B1A607047C04688010020880F084010B500F075
:400B0000DDFF002802D000F0D3FF00E00020054B1A68D8239B001A4203D01A00014B1A60002010BDC00F084070B50500002402E000F0CCFF0134285D0028F9D170BDC046D8
:400B400010B50A2000F0C6FC10BDC04610B500F01DF810BD10B5044A1368802109060B431360FFF7EDFF10BD0000094010B5064B1B78002B04D1FFF7E9FF0122024B1A70F2
:400B8000FFF7E8FF10BDC0468C01002010B50024184B1C60184A194B1A60194B194A1360194A1460194A1460194A1360194B1C600A2000F099FC03210A2000F0B3FC164937
:400BC0000A2000F09DFC154B1C60154B1C60154B1C60154B1C60154B1C60154B1C601022144B1A70144B1C80144B1C60144B1C6010BDC0460000094077080080600009408A
:400C0000070100800003094004030940100309400002094004020940E91A0000C80E0940880E0940480F0940080F0940C80F0940880F0940DC010020EA010020F001002080
:400C4000E401002010B50E4A13685B005B08136000230C490B600C490B600C4804680C49214001600B490B600B490B6010210B4B19701368802109060B43136010BDC046DF
:400C800000000940680009406C00094060000940FF5CFFFF880F0940C80F0940DC010020054B1B682022134000D0082301221343024A13607047C0466400094068000940D0
:400CC000F0B583B001900C0017001D00002917D02F4B1B78102B08D10A2000F005FC2D4B1B68DB070ED508260FE0294B1B78602B0AD1294A138808218B431380002604E013
:400D0000042602E0002600E00426002E39D129221F4B1A700022214B1A60214A1760214B1C60EBB220490B70019B5C00FF231C400120044318490B8883430B801B491C4BBF
:400D400019601421FF311B4B19601368072B03D80422194B1A6008E0184A1368802149000B4313600822144B1A60EB0704D5FFF797FF134B1C6004E0114B1C600222114B4A
:400D80001A600A2000F0A6FB300003B0F0BDC046DC01002064000940EA010020F0010020FC010020F8010020E801002017030000000F0940080F0940C80F094060000940C8
:400DC00040020940680009400A4B1B688268F0210A40402A01D0002A04D1074A13400122134304E001229343802292051343014A1360704730003A40FFFFFFDF8000114B00
:400E00009C4660440268104B1A420BD00F4B1A68D3009A1AD3000E4AD318DB681B070DD400200EE0094B1A68D3009A1AD300084AD318DB685B0703D4002002E0012000E077
:400E40000120704780003A400001000194010020506D0000024A13685B005B081360704700003A4010B5040000F0E8FAA08E002100F0F0FAFF2000F0D3FAA368194A12687B
:400E8000002A02DA8022520300E000221343164A1360164BE2681A60154BA2691A60154BE2691A60144B22691A60144B62691A60134A00211160134B1960A16A1160626AC5
:400EC0001A600122104B1A60002307E09A000F498C466244A021C9001160013362689342F4D310BD80033A4000003A4004003A4018003A401C003A4010003A4014003A4075
:400F000028023A4038023A4018023A4080003A40074B1B685B0306D5054A1368802149020B43136002E00122024B1A607047C04604003A4024003A400100431E012B11D82A
:400F4000094A0A4B1B6801201840013A002803D18B0701D5002AF4D1002804D00122034B1A6000E000207047FFFFFF0310023A4070B50500144B1A68D3009A1AD300134A53
:400F8000D3185B68834202D8002000F0B7FA0E4B1A68D3009A1AD3000C4AD3185B689D4207D2AB000A4A944663441C682404240C00E000242800FFF721FF012801D120B2C7
:400FC00000E0200070BDC04694010020506D000080013A40F8B506000C001D4B19681D48CB005D1AEA001558AD19821853689E4202D3002000F082FA154B1A68D3009A1AE6
:40100000D300144AD318DA6813061AD4130907210B40013301279F40D30502D4102F00D910273000FFF7EAFE002805D1A0B2390000F024FF04B204E039B2200000F0A8FF9E
:4010400004B26D00044BE85A00B2201A00B2F8BD94010020506D00000002002070B5154B1D68154EEB005C1BE20094592418B218D3689B071BD4FFF7ADFF104941430028BE
:4010800006DDA3000E4A9B58D80FC3185B1006E0A3000B4A9A58D30F9A18521053425818A400074BE15800F073FF00B200E0002070BDC04694010020506D00001027000048
:4010C00004020020F0B5474680B4214B1B79002B20D039E0630000211E4A99521E4B9846FE00F31BDD004544E96A1C4BC818490000F04EFF00B2A300194A9850F61BF300DC
:4011000042469A586B68D318013B9C4200D10137013401E000270024002CDBD003210F2000F000FA0F490F2000F0EAF9084B5B79002B09D10122064B5A71074C2000FFF7B1
:4011400091FE226A084B1A6004BC9046F0BDC0469401002000020020506D000000007102040200201D12000020003A4010B50D4B1B68002B0CDB0C4B1B68002BFBDB094A68
:401180001368802109060B4313600A2000F0DCFA064B1A68D3009B1AD800054BC018FFF713FE10BD00003A40A0023A4094010020506D000010B5074B1B79DB0706D4FFF7BF
:4011C00081FF044A117901230B431371FFF7CEFF10BDC0469401002010B50C4B1B685B0312D50A4A11680A4B0B401360094B1A68D3009A1AD300084AD3181B6B9B0703D525
:40120000FFF728FEFFF7D6FF10BDC04604003A40FFFFFEFF94010020506D0000014B1A681A60704710023A4004490868044B1B680322134003430B607047C0460800314090
:401240009C01002030B5204C204B216819400304F022120313400B4323601D4C25681D4929401A4011430D005A0C07211140032213405A1E4B005B189B189B00164A9B5813
:40128000F02212051A402B0013432360002804D180225205114B1A6003E080225205104B1A60094B1B685A0C07211140032003405A1E4B005B189B189B00074A9B58034003
:4012C000084A136030BDC0469C010020FFFFF0FF08003140FFFFF0F0886D00008C00314088003140140F314010B50E4A0E4B1A600E4A1368802109060B4313600C4B1968AA
:401300000C4A0A401A601A68802109010A431A601B689B0701D0FFF787FF0620FFF792FF10BDC046030006009C0100200000314008003140FBF7FFFF10B5064B1B79002B38
:4013400004D1FFF7D1FF0122024B1A71FFF76CFF10BDC0469C0100200222064B1A6080221206054B1A600022044B1A600332044B1A607047A4010020000031400400314028
:40138000080F3140044A1168044B1B680B43802109010B431360704704003140A401002010B5064B1B79002B04D1FFF7D5FF0122024B1A71FFF7E6FF10BDC046A40100207F
:4013C00010B5002407E02000FFF7C0F92000FFF70FFA0134E4B2022CF5D9FF22014B1A7010BDC046B000002010B50400FFF7AEF92000FFF7FDF910BD10B50400074B1878E4
:40140000FF2801D0FFF7F0FF2000FFF775F92000FFF7C6F9014B1C7010BDC046B00000208023DB051B68002BFADB0002024B18438023DB0518607047410000808023DB0555
:401440001B68002BFADB024A8023DB051A6070474100004010B5064A13680724234000021843CB00FF2119400143116010BDC046040300400C4B1B689B001C221340183389
:401480000A4A1268920803210A40D34008490868084A02400A60084A944663441B78DBB2064A13607047C046080F03402800034000000640FFFFFFBFCDF1FF0F0C0F034020
:4014C000034B18688023DB05184000D001207047000006401F2318401E3B8340014A13607047C04600E100E01F2318401E3B8340014A13607047C04680E100E001BE70477B
:4015000070B504000D00182802D90020FFF7F6FF1034A40080239B059C4664442068256070BDC04670B504000E00032902D90020FFF7E4FF182C02D90020FFF7DFFF0325E8
:401540002540ED00063500F0ACFAA408A400074B9C46644421680323AB4099430B003100A9401943216000F0A0FA70BD00E400E010B5040006E0084B586800F089FA074BA2
:401580009C46644480231B029C42F4D8024B9868604300F07DFA10BDB40000200080FFFF70B582B000F0E2F800284DD000F079FA0500264B1A6892001C231A401832244B1C
:4015C0001B689B0803210B40DA400021214B1960214C2168214B0B4021494A438021C9018C466244D20B013A5205520D1343A0225203134323601B4B1B680193302000F0DE
:4016000013FC194A13688021C9050B4313602668164B1E40002407E00120FFF7A9FF1034A30533430C4A1360EE2CF5D90120FFF79FFFFF239B051E43074B1E60019A094BCC
:401640001A60280000F031FA02B070BD080F0340280003400C0F03400800064000F800C040420F003000104000000640FFFF3FC0F0B583B0040018280BD01C2809D02028F5
:4016800007D0242805D0282803D02C2801D0302849D100F006FA0190FFF712FF002803D0FFF7E8FE012600E00026214A136807218B4313601F4BE3181B78DBB21E4A13603D
:4016C0001E4A13688B4313601D4803687F22934319001C4BE3181B7813400B430360322000F0D6F9182C16D9114F3B680725AB431A0023001C3B9B082B4013433B60322027
:4017000000F0C6F93A68AA432300183B9B082C001C4014433C60012E01D1FFF741FF019800F0C3F902E00020FFF7E8FE03B0F0BD080F0340CDF1FF0F0C0F0340100F034037
:40174000180F0340B4F1FF0F10B5034B1B7B584300F09EF910BDC046B4000020024B1868800F80077047C0460C020640034B1B68002B01DA012000E00020704700000640F1
:40178000014A024B1A6070476588EDAC3800034010B50400FFF7E2FFA0421AD0144A136803218B431360134B1B689B0F01D17C2001E086204000FFF7C7FF00F072F90D4A87
:4017C00013689B009B08A40FA4071C43146000F06CF9074B1B6803229343064A1268920F01D1023200E001221343014A136010BD140206400C02064010B5040000F051F9D2
:40180000054B1C4005490B68054A134023430B600B6800F04AF910BD0404040010020640FBFBFBFF10B5244B1B685B0715D5234B1B685B070ED5224B5969042001401F4CC9
:4018400022688A4322605A6982435A619B68002B00D098470420FFF7CFFF174B1B685B0518D5164B1B685B0510D5154B59698022D2001140114802688A4302605969114A36
:401880000A405A61DB68002B00D098478020C000FFF7B2FF084B1B685B030CD5074B1B685B0304D5064B1B69002B00D098478020C002FFF7A1FF10BD10020640C80000202A
:4018C000AC010020FFFBFFFF04490A68D2B208239A43C00018401043086070470000044004490A68D2B204239A43800018401043086070470000044004490868044B1B68A6
:401900000322134003430B607047C04604003040C401002030B5204C204B216819400304F022120313400B4323601D4C25681D4929401A4011430D005A0C072111400322F4
:4019400013405A1E4B005B189B189B00164A9B58F02212051A402B0013432360002804D180225205114B1A6003E080225205104B1A60094B1B685A0C07211140032003401D
:401980005A1E4B005B189B189B00074A9B580340084A136030BDC046C4010020FFFFF0FF04003040FFFFF0F0D06D00008400304080003040080F304010B50E4A0E4B1A60A8
:4019C0000E4A1368802109060B4313600C4B19680C4A0A401A601A68802109010A431A601B689B0701D0FFF787FF0620FFF792FF10BDC04603000600C4010020000030406D
:401A000004003040FBF7FFFF10B5064B1B79002B04D1FFF7D1FF0122024B1A71FFF76CFF10BDC046C40100200222064B1A6080221206054B1A600022044B1A600332044BDC
:401A40001A607047CC0100200000304008003040140F3040044A1168044B1B680B43802109010B431360704708003040CC01002010B5064B1B79002B04D1FFF7D5FF0122C7
:401A8000024B1A71FFF7E6FF10BDC046CC0100200230800803D001300238FCD1C046C0467047EFF3108072B6704780F310887047014B18687047C04640030840024B1B6834
:401AC0001F2018407047C04608030840044B1B681F221340082BF9D0024B18607047C046080208404002084010B5AF4B1B68002B00D09847AD4B1B68DB0702D50022AC4B16
:401B00001A60AC4B1B789B0628D5AB4B1B68DB0507D5AA4A1188C0239B000B431380012300E00023A44A1268D20706D5A34A118890239B000B4313800123002B0FD09D4AD5
:401B40001278D20701D5012200E002229B49088802430A800021974A117000E00023954A1278920600D417E1934A1268D20611D51022934B1A608F4B1B78DB0701D5012387
:401B800000E002238D4A11880B4313801022894B1A7007E1874A1278120720D5864A126892070AD50222864B1A60844A118888239B000B431380012311E07E4A1278D207EF
:401BC00003D525217B4A117009E02421794A11707C4A1268002A02D014397B4A1160754A1278520700D4AEE0724A1278D20749D5764A1268120727D5754A12687549096858
:401C00001F240C40744909686418141B082C09D8002C16D1714A1168714B0B401360012308340EE008240CE06B4A11686D48006841186D480068C0B2087011680131116039
:401C4000013C002CF0D119E0604A1268520715D5614A116863480068411863480068C0B208701168013111601168594A1268914203D204215D4A116000E001235C495D4A66
:401C8000116060E04C4A1268920726D502224C4B1A6059490B681D321A40096880231B020B4000D001239B18544A1168CB1A13601268534B1A60414A118884239B000B4304
:401CC0001380504B1A68802149020A431A6019684D4A0A401A60012335E04C4A1268D2061ED427E0454A1168364A126891421DD2344A1268013A414909688A4204D1402296
:401D000043490A6030490A603C4A11684148006841180978C9B240480160116801311160354A12681F210A40082ADBD11021384A116008E0354A1268520604D52F4B1A68ED
:401D40002F4B1A600123002B2CD0244A1168244B0B4013600023314A13601B4A1360304B1B789B070ED5134B1B78DB0701D5092300E00A23114A11880B43138060220D4B03
:401D80001A700FE0274B1B689B0601D5182200E01022164B1A6005E0064B1B78DB0601D4FEF750FF10BDC046900100208C0E0940880E0940DC0100200C0F0940EA010020A2
:401DC000000F0940EC010020880F0940CC0F0940FC01002008030940F001002060000940FFFEFFFFF80100204003094068000940ED0F0000C00F094008020940E001002096
:401E0000E401002004020940FFFFFEFF8C0F0940800F0940F401002040020940C80F0940E80100206400094070B50400FFF739FE0500102C05D8104A136803218B43136073
:401E400016E0202C07D80C490B6803229343023A13430B600CE0302C07D807490B6803229343013A13430B6002E00020FFF746FB2800FFF71AFE70BD300010400022430817
:401E80008B4274D303098B425FD3030A8B4244D3030B8B4228D3030C8B420DD3FF22090212BA030C8B4202D31212090265D0030B8B4219D300E0090AC30B8B4201D3CB037C
:401EC000C01A5241830B8B4201D38B03C01A5241430B8B4201D34B03C01A5241030B8B4201D30B03C01A5241C30A8B4201D3CB02C01A5241830A8B4201D38B02C01A5241A7
:401F0000430A8B4201D34B02C01A5241030A8B4201D30B02C01A5241CDD2C3098B4201D3CB01C01A524183098B4201D38B01C01A524143098B4201D34B01C01A52410309B4
:401F40008B4201D30B01C01A5241C3088B4201D3CB00C01A524183088B4201D38B00C01A524143088B4201D34B00C01A5241411A00D20146524110467047FFE701B500200B
:401F800000F0F0F802BDC0460029F7D076E7704703460B437FD4002243088B4274D303098B425FD3030A8B4244D3030B8B4228D3030C8B420DD3FF22090212BA030C8B42B3
:401FC00002D31212090265D0030B8B4219D300E0090AC30B8B4201D3CB03C01A5241830B8B4201D38B03C01A5241430B8B4201D34B03C01A5241030B8B4201D30B03C01AD9
:402000005241C30A8B4201D3CB02C01A5241830A8B4201D38B02C01A5241430A8B4201D34B02C01A5241030A8B4201D30B02C01A5241CDD2C3098B4201D3CB01C01A524128
:4020400083098B4201D38B01C01A524143098B4201D34B01C01A524103098B4201D30B01C01A5241C3088B4201D3CB00C01A524183088B4201D38B00C01A524143088B428E
:4020800001D34B00C01A5241411A00D201465241104670475DE0CA0F00D04942031000D34042534000229C4603098B422DD3030A8B4212D3FC22890112BA030A8B420CD34B
:4020C000890192118B4208D3890192118B4204D389013AD0921100E08909C3098B4201D3CB01C01A524183098B4201D38B01C01A524143098B4201D34B01C01A5241030913
:402100008B4201D30B01C01A5241C3088B4201D3CB00C01A524183088B4201D38B00C01A5241D9D243088B4201D34B00C01A5241411A00D20146634652415B10104601D329
:402140004042002B00D54942704763465B1000D3404201B5002000F005F802BD0029F8D016E770477047C0468446081C6146FFE71FB500F0B9F9002801D40021C8421FBD59
:4021800010B500F045F94042013010BD10B500F0ABF9002801DB002010BD012010BDC04610B500F0A1F9002801DD002010BD012010BDC04610B500F053F9002801DC002012
:4021C00010BD012010BDC04610B500F049F9002801DA002010BD012010BDC046F0B5564644465F464D46F0B444024600C70F83B08846650A360EBA463DD0FF2E22D0002337
:40220000EC00802599469B46ED0425437F3E43465C025800DB0F640A000E984636D0FF2830D080230021E400DB041C437F38301A0190484642460843724E800030587A402C
:4022400013008746002D44D108239946063B9B46DDE70122FF2000241A406402C305640AD2071C431443200003B03CBC90469946A246AB46F0BD002D20D104239946033BF9
:402280009B46C4E7002C17D1022102E0002C0AD10121321A01924A4643460A435A48920082587B409746200001F0F2FA431F76309C4040420021BAE70321B8E7280001F064
:4022C000E7FA431F9D4000237630464299469B469DE70C239946093B9B4698E780240022E403FF20B9E70024C2468B465A465346022AAED0032A7DD0012A31D10122002041
:402300001A400024A9E70122101A1B2856DD1A4000200024A1E78023DB031D424BD18023DB032B435C02640A3A00FF2095E76D016001854230D2019A0024013A01921B22B8
:402340000127290064006D00002901DBA84201D82D1A3C43013A002AF3D16A1E95412C4301987F300028CEDD620704D00F222240042A00D00434220103D5244A0198144040
:402380008030FE2800DD64E70122A401640AC0B21A4062E72C00A9E72D1A1A220124CFE76B02BCD500248023DB031C436402640A4246FF2051E71C42B3D1F4E721002022E5
:4023C000C140101A8440621E94410C43620704D00F222240042A00D00434620104D5012201201A40002438E70122A401640A1A40002032E78023DB031C436402640A524612
:40240000FF202AE7186E0000586E0000FFFFFFF7430270B542004C005D0AC30F4802120E460A240EC90FFF2A0FD0FF2C11D00120A24200D070BDB542FCD18B420DD0002A89
:40244000F8D12800431E9841F4E70120002DF1D1EBE70120002EEDD1E9E70020EAE7C0464302F0B542005D0AC30F4802440A4800120E000EC90FFF2A1FD0FF2822D0002AFA
:4024800009D16E426E4100280FD1002C0DD10020002D09D005E0002801D1002C01D08B4213D0584201231843F0BD002EF7D048424141012049420843F6E7002DDDD0022088
:4024C0004042F1E7002CDAD0F9E78242E9DC04DBA542E6D80020A542E6D25842434101205B421843E0E7C0464302F0B542004C005E0AC30F4802120E450A240EC90FFF2A5E
:4025000017D0FF2C19D0002A0BD170427041002C17D0002807D048424141012049420843F0BD002C13D08B4214D0584201231843F6E70220002EF3D1E3E70220002DEFD1D2
:40254000E1E7002DE5D10020002EE9D0EDE7002DE9D1EAE7A242E8DC04DBAE42E5D80020AE42DDD25842434101205B421843D7E7F0B557464E4645464300E0B446028846E7
:40258000760A1F0EC40F002F47D0FF2F25D0002380259A469946F600ED042E437F3F434642465D02D20F5B006D0A1B0E904640D0FF2B39D080220020ED00D20415437F3B99
:4025C000FB1842465746591C62408C4607430F2F5CD86F49BF00C9598F46002E45D108239A46063B9946DAE7424602282DD0032800D1C3E0012800D0A2E00025002602400A
:40260000D4B27602ED05760A2E43E407264330001CBC90469946A246F0BD002E1AD104239A46033B9946BAE72A00511E8A41901CC6E70120002DC3D0280001F029F9431FFA
:4026400076309D4043420020BAE70124FF2514400026D6E7300001F01BF9431F9E400023763047429A46994699E70C239A46093B994694E780260024F603FF25C1E735009A
:402680004846B2E7350022004846AEE72904090C0800370C3604360C2C0C7943704367437443060C64183619B14203D980214902884647440004000C310409188D01681EFD
:4026C0008541890E2943350CED19AD010D43290104D5012369081D4063460D4319007F31002925DD680704D00F202840042800D00435280103D5274980330D401900FE292A
:40270000A3DC0124AD016E0A1440CDB279E78020C003064207D0054205D128434602760A4446FF256DE706437602760AFF2568E70124611A1B2905DD14400025002660E768
:402740006346CBE72E002023CE40591A8D406B1E9D412E43730704D00F233340042B00D00436730104D5012401251440002648E70124B601760A1440002542E78026012431
:40278000F6032E437602760A1440FF2539E7C046986E0000FFFFFFF7F8B54A024E0043024400240EC50F9B09360EC90F9209FF2E00D183E001204140A01BA9425CD00028F1
:4027C00000DC95E0002E1CD1002A00D081E05A0704D00F221A40042A00D004335A013BD50134FF2C00D191E001209B015B0AE4B205405B02E4055B0AED0723432B43180088
:40280000F8BDFF2CE3D08021C9040A431B2800DD90E016002021C640081A8240511E8A4132439B1A5A0115D59B019E09300001F02FF80538864084426CDC041B33002020A2
:402840000134E340041BA640721E964100243343BDE70D005A07BCD1DF0801231D40FF2C33D1002F00D190E08022D20313003B435B025B0AFF24BCE700284FDD002E2ED044
:40288000FF2CA4D08025ED042A431B2800DD97E016002025C640281A8240501E824132439B185A01D5D50134FF2C6DD001227B481A405B08034013430D0088E7002A00D0CD
:4028C0007AE777E7031EC5D100257B025B0AE4B28FE701380028A4D0FF2C97D177E7002A00D174E701380028DAD0FF2CCDD16EE7002821D1601CC0B2012858DD80279E1A45
:40290000FF0437402FD0D61A0D008FE701231D4000236EE7624B241A334058E7002851D1601CC6B2012E33DDFF282DD09B185B0804004CE7012274E7002C1AD0FF2E1FD077
:402940008024E404404223431B2800DD96E01D002024C540201A8340581E83412B43D31A34000D005EE7002E00D05FE700250024ABE7002B44D0C0430028F0D0FF2EE3D1A5
:402980001300FF240D0022E70D00FF24002330E7002C5DD1002B7DD0002A00D117E79B185A0100D456E73E4A040013400FE7002C1ED1002B2FD1002A65D013000D0006E7F0
:4029C00001226DE7002C1FD1002B59D0C04300280BD0FF2E4FD01B285EDC1D002024C540201A8340581E83412B439B18340058E7002B1CD1002A49D013000D00FF24E6E686
:402A0000130034000D00E2E6FF2E34D08024E40440422343DFE7002A00D1D8E68027981AFF04074000D14DE7D31A0D00CFE6FF24002A00D1CBE68020DB08C003034204D0D1
:402A4000D208024201D113000D00DB00FF24BEE6002B10D0FF24002A00D1B8E68020DB08C003034203D0D208024200D11300DB000D00FF24ABE61300FF24A8E601236EE7A4
:402A800013003400A3E6002700251EE780270025FF03E9E613009AE60123A6E7FFFFFF7DFFFFFFFB70B5002830D0C317C5185D40C40F280000F0ECFE9E231B1A962B0DDC8C
:402AC0009622D21A95406A02520AD8B25202C005520AE40702432243100070BD992B19DC9922D21A9540124A2A40690704D00F210D40042D00D00432510103D50C4B1A40F6
:402B00009F231B1A9201520AD8B2DFE7002400200022DBE705222E00121AB921D6402A00C91A8A40551EAA4135001543DBE7C046FFFFFFFB70B5041E28D000F0A9FE9E23AD
:402B40001B1A962B0ADC9622D21A94406202520AD8B25202520AC005104370BD992B18DC9922D21A9440114A2240610704D00F210C40042C00D00432510103D50B4B1A400A
:402B80009F231B1A9201520AD8B2E2E700200022DFE705222500121AB921D5402200C91A8A40541EA2412C001443DCE7FFFFFFFBF0B556464D4644465F46F0B41D000E0336
:402BC0004C00CB0F87B0070092468146360B640D98466AD06D4B9C4235D08022430F12041343F6001E43C3009946694B00279C460023644402932B0368001B0BED0F5146A8
:402C00009B46400D009500D178E0604B98426CD05B46DA004B0F802109040B4313439B465346D9005A4B9C46002360444246201A6A40924601901F430F2F00D9B0E05548A4
:402C4000BF00C0598746374300D088E0002399460233082700260293CDE74346B34649460093029B009A9246022B00D0BFE1002153460122002689461A40444B00213603C3
:402C80000C0D2405360B2643434C1B0526401E437600D207760816434846310007B03CBC90469946A246AB46F0BD330003434FD0002E00D1BCE1300000F0EAFD03000B3B5F
:402CC0001C2B00DDADE11D220100D31A08393A008F408E40DA40B9461643304B00279C46002360444442029385E753465A4613432CD1002300219B46023397E70B4320D0F7
:402D00005B46002B00D19EE1584600F0C1FD03000B3B1C2B00DD8FE102005946083A91408B461D21CB1A5146D9400B0059460B4351469B469140194B9C4660444042002326
:402D400074E7002300219B4601336FE703236DE70023994601330427002602934BE703230C27029347E70122D51A382D00DCB0E153461A4000210023002689467EE70023CD
:402D80008026994600223603004B77E7FF07000001FCFFFFD86E0000FFFF0F80F30300005E4500D972E100D16DE1019B4D46013B01930023340002935B461E020B0E1E43AC
:402DC0000B020393330C994633041B0C494620000093FFF753F8009B370043430600494620009846FFF7D0F82C0C09040C43A04509D9E419731EA74200D95CE1A04500D8E3
:402E000059E1023EE4194346E41A49462000FFF735F80300009A80465343494620009B46FFF7B2F82A040904120C0A4393450DD94346D219013B974200D93AE1934500D808
:402E400037E102235B429C46D219E0445B46D21A4346360433439B460399180C0B0C1D00059309045B46090C0C001B041B0C4443049159436B4368431B190D0CEB189C4200
:402E800003D980246402A44660441C0C09041B04090C20185D18824200D2DEE000D1D7E0161A029B9C465D1BAC459B415B42F61AB74200D106E149463000FEF7DFFF009B2D
:402EC00004004343494630009846FFF75DF82E0C09040E43B04509D9F619631EB74200D9F3E0B04500D8F0E0023CF6194346F31A494618000293FEF7C1FF009B0600434324
:402F0000494602989846FFF73FF82D0409042D0C0D43A84509D9ED19731EAF4200D9D6E0A84500D8D3E0023EED192404210043463143049E059A3000ED1A0B040C0C1B0CE6
:402F400058436643534354439A19030C9B189E4203D980225202944664441A0C00041B04000C14191B18A54250D34DD001231943964A019B94466344002B00DCF3E64A07AD
:402F800009D00F220A40042A05D00A1D8A42894149428B4411005A46D20108D55A468C4B1A4093468022D2009446019B6344894A934200DD5BE65A46C908500708435602D6
:402FC000514601225B058146360B5B0D0A4055E680231B031E4211D05A461A420ED15E461E433603360B2A0089467B4B46E6032B00D1E1E0012BBBD11A40BBE61E4336036E
:40300000360B4246744B39E6002BB1D07D194A1EAF4252D91100A542A8D1039A9A42A5D1A6E703003E00283B9E400023994654E600F02EFC203041E603005246283B9A400F
:403040000021934677E6504600F022FC20305EE6029B0026AB4200D323E7039E0299B44661448846B045B6415B467642F619B218013B0291974213D290424FD800D18EE0A8
:40308000161A9B460DE7894500D28EE674084B46F60735005B081D434B46DB0702938BE69742EDD10399029CA142E5D93E1A9B46F7E69846CAE61E00A5E6AC423ED874D075
:4030C000110053E70121494252E71C000EE71E002BE71F2D3CDC20230A0058465B1B9840EA4099400243481E81415E461143EE404B0709D00F230B40042B05D00B00191D3E
:4031000099429B415B42F61833023CD55346012200211A40002601238946AFE502235B429C46039CE344A446029B63449846A045B6417642F6190293B218B1E603988A1EB1
:4031400041008142B6417642F619AD19039161E71F225242D31A5A46DA401300202D29D040225846551BA8400143481E814107200B4318400026002809D00F2200261A40AD
:403180001900042ABBD10B0070077602360BDB0803439946012253461A4000236EE502998D42BBD89B4600267BE603989842C5D3110032E70020D7E780265B4636031E4312
:4031C0003603360B009A8946034B57E5FF030000FFFFFFFEFE070000FF070000F0B55F4656464D464446F0B40D0399464E002B0B87B00700924680469B46760DCC0F002EF7
:4032000069D06D4B9E4235D05B468022DD001204430F13432B439B46C3009846674B00279C460023664401934A4615035000D20F53462D0B400D914600D176E05E4A90425F
:403240006CD080225B0F120413435C4AED0094461D4353460022DB00604449463618701C6140029017430F2F00D9AFE05448BF00C759BF465B461F4300D088E000239B4638
:403280009846023308270193CEE74946022A6AD0032A00D109E2012A00D0BBE111400022002300259046CCB200212D030A0D12052D0B1543434A1B0515401D436D00E40736
:4032C0006D0825434046290007B03CBC90469946A246AB46F0BD034352D05B46002B00D18AE1584600F0D4FA03000B3B1C2B00DD7BE11D22D31A3A0001005D46DA4008395E
:403300008D4013008F402B439B46B8462E4B00279C46002360444642019385E752462A432CD100250023022297E752462A4321D0002D00D154E1280000F0AAFA03000B3BA6
:403340001C2B00DD46E11D21CB1A51460200D9405346083A954093400D431B4A944660444042002279E7012400220C40124B0025904699E70025002301226EE703226CE7D0
:4033800000239B4698460133042701934CE703230C27019348E700238025984600242D03054B81E75D464346019A6FE75D4643462100019A6AE7C046FF07000001FCFFFFDA
:4033C000186F0000FFFF0F80F30300004246120C91461A0C9446424617044A461B041B0C5A43604690464A4642431000039262461C003F0C7A437C4342440192220C924650
:40340000019A5244904506D98246802040028046C24450460390100C049048462404240C1204121905922A0C2D042D0C68432C00824648467C4350438146200C8046574328
:4034400057444744BA4503D9802040028046C144380C3F04B84648442404240C01900498A044404404905846000C814658460404200C8246070048465F434C46434360460C
:4034800060436446834650464443380C8446E4186444A34203D980235B029C46E34448463F04230C3F0C2404E419574668436F4384464D46504655434243380C8146624432
:4034C0004A445B44944503D9802040028446654403983F04834604983F0C8446E344C345804140428246100484460198674484466744A344BC46A345A4419946D444644219
:403500008742BF41D4458041E144A04699459B417F424042C8440743120CBA18A045A4415F423B0064422343D71843467D19DB0D6D021D435B465A02059B1A43531E9A41DD
:403540005B46DB0D1A4343465B021343EA0107D501225C0813402343EA07029E13436D08574AB218002A4BDD580709D00F201840042805D0181D98429B415B42ED180300B9
:40358000E80104D54F4A15408022D200B2184E48824200DDE7E60124DB08680718436D02530580462D0B5B0D0C407DE6802259461203114208D0154206D115432D03984656
:4035C0002D0B4C46414B6FE65D4615432D032D0B3E4B69E603005546283B9D400023BCE6504600F055F92030A8E60300283B9F400023BB46984689E600F04AF9203073E6FE
:403600000124A61A382E07DD00220C4000230025904649E6029EA3E71F2E20DC20222C001800921BF040944093400443581E83411C43F540630709D00F232340042B05D032
:4036400023001C1D9C4292415242AD182B021FD5012400220C4001230025904624E61F202C004042821AD440202E1CD04022961BB5402B43581E8341072023431840002576
:40368000002809D00F2200251A401C00042AD8D1230068076D022D0B0124DB08034398460C40002300E60025E3E780220124120315432D0398462D0B0C40044BF4E5C046C9
:4036C000FF030000FFFFFFFEFE070000FF0700004200120E511C4302C9B270B55D0AC40F012915DDE02189008C466D071B0B6244002128000D0D2D052B431C4D52052B40EE
:40370000520813435B00E4075B082343190070BD002A15D1002D1FD0280000F0B9F80A281DDC0B232A001B1ADA4013000200153295400F4A1B03121A52051B0B520DD7E74F
:40374000002D06D080221B0B120313436D07094ACEE7084A0023CBE700220023C8E703000B3B9D402B000025E3E7C046FFFF0F8089030000FF0700004B0070B55E0D0C032D
:40378000751C640A420F6D052243C90FC4006D0D012D2ADD3B4BF318FE2B1ADC002B42DD8001451EA841D2001043620F0243500704D00F201040042800D004328020C004B5
:4037C000104021D00133FF2B03D09201520ADBB201E0FF2300225202520ADB0513435B00C9075B080B43180070BD002E07D01443EFD08020D20080040243FF23D7E7224314
:403800000023002A03D00522D208FF2B03D05202520ADBB2DFE7002A32D08020C00302435202520AD7E71800173014DB8020000402431E20C01A1F280FDC2500124BF31817
:403840009D406E1EB5419A402B0013432200C2401A430023ABE70023D5E702256D42EB1A1500DD40202809D0084BF3189A401443621E9441220000232A4398E70022F6E737
:403880000022A8E780FCFFFF82FCFFFFA2FCFFFF1C2101231B04984201D3000C10391B0A984201D3000A08391B09984201D30009043902A2105C40187047C04604030202DC
:4038C000010101010000000000000000014B18687047C0462C0100200E4B70B500251E000D4CE41AA410A54204D0AB00F35898470135F8E703F0E2FB084B00251E00084CC3
:40390000E41AA410A54204D0AB00F35898470135F8E770BDC8700000C8700000C8700000D0700000002310B59A4203D0CC5CC4540133F9E710BD03008218934202D0197096
:403940000133FAE77047F0B58BB014001D1E129906DA802424061B191D0014002D2300E000230B702023149E03229E43462E07D03300453B59424B411099013ACB18109336
:4039800009AB049308AB0393139B00920293109B220001932B0000F0FDFC0700472E02D1119BDB072DD5109BFB180793462E14D13B78302B0CD1002200232000290002F02E
:4039C00041F8002804D10123109A9B1A139A1360139B079A1B68D3180793002200232000290002F02FF83022002802D0079B099307E0099B0799994203D9591C09911A70EB
:403A0000F7E73800099B159ADB1B13600BB0F0BDF7B52B2307000C000270861C002901DA2D234C427B70092C1CDD6B46DD1D20000A21FEF793FB013D3031297020000A2134
:403A4000FEF7A6FA04000928F1DC013D30342C706B4607333000AB4209D92B78013533700136F5E73023E4183370B01C7470C01BFEBD0000F0B595B00C000A920B931A9DD9
:403A8000099001F04DFA036818000D9300F0F4FB0023129323680E900C930C99277E2B680722C90501D59B1800E0073393431A0008322A601A685B68A264E3640122E56C72
:403AC000A66C6B005B080F935242C04B30000F9902F074FF002819D10122BC4B524230000F9901F0BFFF002810D1002200233000290001F0ADFF002803D023002D224333EA
:403B00001A70B34D472F0ED8B24D0CE032002B003000290002F052FF002800D19AE1AE4D472F00D8AD4D03230C9A236101339A432260002642E0672F00D193E1472F00D1B7
:403B400090E10C9A0021134312AA059211AA0392232223600691019308A9636852180292009332002B0004970998FFF7ECFE20233A0005009A43472A00D18EE11199652F4D
:403B800000D996E1200001393A0050301191FFF73FFF129A060083182361012A00DD85E12268D20700D581E1232308AA9B181B78002B03D023002D2243331A700B9B13AAE1
:403BC000009321000A9B099800F0A4F9431C02D1012040429BE12268530501D4236964E0652F00D8CCE0A06CE16C0022002301F029FF00282CD00123794A0A9909980B9DA0
:403C0000A847431CE4D0119B129A934208DB2368DB0705D4236800259B0700D50FE113E10B9D0E9B0D9A0A990998A8470025431CCED0129B013B9D42ECDA220001231A32B4
:403C40000A9909980B9EB047431CC1D00135F0E7119B002B2BDC0123614A0A9909980B9EB047431CB4D0119B002B05D1129B002B02D12368DB07CDD50B9E0E9B0D9A0A99EC
:403C80000998B0470026431CA2D0119B5B429E420ADA220001231A320A9909980B9FB847431C95D00136F0E7129B2A00ACE0A36D129E9E4200DD1E00002E05DC00230C9348
:403CC000F343DB170F9315E033002A000A9909980B9FB847431CF1D17AE7220001231A320A9909980B9FB847431C00D170E70C9B01330C930F9BA26D0C993340D31A994220
:403D0000EBDBAE18119B129A93420DDB2368DB070AD4129B119AED18AD1B9B1A9D4200DD1D00002D09DC11E00E9B0D9A0A9909980B9FB847431CECD14AE72B0032000A9957
:403D400009980B9EB047431C00D141E7EF43FB1700260C930AE0220001231A320A9909980B9FB847431C00D132E70136119A129B0C999B1A2A000A409B1A9E42EBDB49E707
:403D8000129B012B02DC01231A4245D001232A000A9909980B9FB847431C00D118E70E9B0D9A0A9909980B9FB847431C00D10FE7A06CE16C0022002301F044FE002801D020
:403DC00000251AE0129B6A1C013B26E0FFFFEF7F5E6F00005A6F0000666F0000626F00006A6F0000220001231A320A9909980B9FB847431C00D1EBE60135129B013B9D4230
:403E0000F0DB2200330050320A9909980B9DA847431C00D0FEE6DBE62A000A9909980B9DA847431CEDD1D3E62200012319320A9909980B9EB047431C00D1C9E60135E36881
:403E4000139A9B1A9D42EFDB139BE06898425EDA18005CE080236268DB00511C00D06AE6073202E0002A02D10122626069E60C9908A80B430021069112A9059111A90391C0
:403E8000232109182360019300922B000497029132000998FFF757FD0500119BDA1C02DB626893421CDD023FFFB267E6013323617AE6662F15D16368002909DD2161002B09
:403EC00002D12268D2071ED50133591821611AE0002B03D101222168114213D09A1C11E06727119B129A934206DB22682361D20709D50133236106E00121002B01DC491866
:403F0000C91A8A182261119B0026A3654CE615B0F0BDC046F7B5170001938A680B6900900C00934200DA130022003B6043321278002A01D001333B6023689B0602D53B68AE
:403F400002333B60062523681D401ED0230043331B785A1E9341226892061CD53020E1184331087021005A1C45310978A2184332023311700FE0220001231932019900988B
:403F8000089EB047431C0ED00135E3683A689B1A9D42F0DBDAE72200019943320098089DA847431C02D10120404220E006232068E1683A6803400025042B03D18D1AEB43D6
:403FC000DB171D40A3682269934201DD9B1AED180027BD420AD0220001231A3201990098089EB047431CDED00137F2E70020FEBDF0B58BB006920A00433207930590049259
:404000000A7E0C00109B6E2A00D1ABE011D8632A22D009D8002A00D1B5E0582A00D0C5E045310A70814A4FE0642A1DD0692A1BD0BCE0732A00D1AAE009D86F2A29D0702AF9
:4040400000D0B3E0202209680A43226037E0752A1FD0782A33D0A9E00E001A684236111D196013683370A4E021681A68080606D4490604D5111D19600023D55E02E0111D0F
:4040800019601568002D3BDA2D23049A6D42137036E021681A68080606D4490604D51568111D1960ADB202E0111D196015685F4B227E039308276F2A1DD00A271BE022000B
:4040C0007821453211705A4A19680392081D226818600D68100602D4500600D5ADB2D30702D520231A4322601027002D03D1202322689A4322602300002243331A7002E005
:404100000A274A4B03936368A360002B09DB0422216891432160002D05D1049E002B11D07BE0002D79D0049E28003900FDF72CFF039B013E5B5C280033703900FDF79EFE76
:40414000051EF1D1082F09D12368DB0706D563682269934202DC3023013E3370049B9B1B23612BE009681A68080607D4490605D5111D19601368A28A1A8004E0111D196067
:40418000136862691A600023049E236116E01A68111D1960166800216268300000F0CEFE002801D0801B6060636803E0260042363270012323610023049A1370079B09AAFF
:4041C00000932100069B0598FFF7A4FE431C02D10120404227E02369320006990598079DA847431CF4D0236800259B070FD4099BE068984217DA180015E02200012319321F
:4042000006990598079EB047431CE1D00135E368099A9B1A9D42F0DBE9E72600039B42361B7833708EE70BB0F0BDC0466C6F00007D6F00000EB410B59DB002A902900861AD
:404240000B48822488604861012040421FABC881084804CBA400006801938C8101F080FA0023029A13701DB010BC08BC03B01847FFFFFF7F2C0100200023C25C0133002AAE
:40428000FBD1581E7047F0B503690C6989B00700059100269C4279DC0B00013C1433A50003935B1904930300143302935D19049B28681B68591C0193FDF7E0FD0190B04217
:4042C00033D0039B02989C460696634604CB9C46019B91B25943120C5A4389190B0CD3180793069A1E0C038889B29B1802685B1A110C6A46928B8A1A1914521811149BB27E
:404300001204134308C0049B06916345DDD22B68002B0AD1029B043DAB4201D33C6104E02B68002BFAD1013CF4E70599380001F021F8002829DB0020019B02990133039A2E
:40434000019340CA0B881818B3B2C31A0868360C000C801B1D14451928149BB22D042B4308C1049B9342ECD2029AA300D3181A68002A0AD1029A043B9A4201D33C6104E0D2
:404380001A68002AFAD1013CF4E7019E300009B0F0BD0000F0B516001F00446A9DB00490259D06960797002C08D1102000F0BCFD049B5862446084600460C460049B5B6A29
:4043C000196800290BD05A68012393404A608B60049800F0F6FD0022049B5B6A1A60079B002B05DA01232B607B005B08079301E000232B60079CC84B220019931A409A424F
:4044000019D1C64B249A1360069AC54B002A02D1240300D1C34B269A1800002A01D100F07DFDD978DA1C002900D00532269918000A6000F073FD069E079F00220023300088
:40444000390001F0FFFA051E0ED00123249A1360B54B269A1800002A01D100F05FFDB34A26990A6000F05AFD1AAB01931BAB009332003B00049801F003F8630005905B0D2F
:4044800009D03A03AA4C120B1443AA4A300021009E1817951AE01A9B1B9A9E18A64BF318202B08DDA54A0698B218D0404022D31A9C40204303E020220698D31A984002F020
:4044C00015FB01239E4C013E0919179300229D4B01F020FF9C4A9D4BFEF780FE9C4A9D4B01F0DEFA040030000D0002F0BDFA9A4A9A4BFEF773FE02000B002000290001F041
:40450000CFFA04000D0002F079FA0022039000232000290001F09CFA00280DD0039802F0A3FA02000B002000290001F08BFA43424341039AD31A039301231693039B162BC4
:4045400011D88749DB00C91808684968069A079B01F092FA002805D0039B013B03930023169300E016901A9B9E1B00230B93013E0C9604D50C9B5B420B9300230C93039BFC
:40458000002B08DB039A0C9B944663440C9300231192089307E00B9B039A9B1A0B935342089300231193229B0125092B25D8052B02DD0025043B2293229B981E032824D8DE
:4045C00001F026FA060E0204012302E0012308E000231093239B002B20DD1F000A9321E00023239A1093039B9F187B1C0A930123FA18002A16DD130014E0012700237F42A3
:40460000229310950A97123305E0012701237F4210930A9711330022239203E001273B000A972397049A546A00226260043211001431994204D86168520001316160F6E7DA
:404640006168049800F085FC049B20605B6A1B680D930A9B0E2B00D981E1002D00D17EE1069B079C14931594039B002B31DD0F223B491340DB00CB185C681B680E930F942B
:40468000039B02241D11EB060AD514981599354B15401A6A5B6AFEF78BFA069007910134304E002D0ED001231D4208D00E980F99E41832687368FEF791FD0E900F916D1002
:4046C0000836EEE70E9A0F9B06980799FEF770FA4CE0039B02245D42002D49D0149815990F231F4A2B40DB00D3181A685B68FEF775FD0023069007911A4E2D11002D33D0EA
:404700000122154205D0A41832687368FEF766FD01236D100836F1E70000F07F0F270000976F00008E6F00006A6F00006B6F00000000F03F01FCFFFF320400001204000019
:40474000000010FE0000F83F61436F63A787D23FB3C8608B288AC63FFB799F501344D33FA86F000080700000002B01D006900791169B002B1DD0069D079E0022C74B2800B8
:40478000310001F065F9002813D00A9B002B10D0002F00DCDFE0039B3100013B0E930022BF4B2800FEF71AFD0134069007913E0002E0039B0A9E0E93200002F055F9069A7E
:4047C000079BFEF70BFD0022B64B01F069F9B64A12901391129C139D9446139B634418931D00002E1CD1069807990022AF4B01F091FD2200189B0690079101F03DF90028C3
:4048000000D054E2AA481399844661440B0006980799220001F01CF9002800D03DE29AE0109A731EA349DB00002A49D0CB181A685B680020A049FEF7BBF92B00220001F006
:4048400069FD129013910D9D0698079902F0D6F8040002F009F902000B000698079901F059FD01356B1E30341C70129A139B0690079101F0EDF8002800D02EE3069A079B02
:404880000020864901F046FD129A139B01F0E0F8002800D0C7E00D9BEB1AB3425BDA1298139900227E4BFEF799FC002212901391069807997A4BFEF791FC06900791C3E7AC
:4048C000C9182200086849682B00FEF787FC0D9C12901391A5190698079902F08FF8060002F0C2F802000B000698079901F012FD303626700134069007910022A54222D135
:404900006D4B1298139901F0CBF802000B000698079901F0B1F8002800D084E0129A139B0020654901F0F6FC02000B000698079901F08EF800280ED06B1E1A78302A00D05C
:40494000CBE21D00F8E706980799554BFEF746FC06900791BFE7149B159C069307941B9B002B00DA81E0039A0E2A00DD7DE0D300504AD3185C681B6808930994239B002B26
:4049800015DA0A9B002B12DC00D088E1089809990022464BFEF722FC069A079B01F076F80A9B08931E00002800D07BE182E10D9D069E079F089A099B30003900FEF7F8F8CB
:4049C00002F01CF8040002F04FF8089A099BFEF705FC02000B003000390001F09BFC220001356B1E30321A700D9B0A9AEB1A9A422ED102000B0001F053F806000F000200E1
:404A00000B000898099901F023F800280FD10898099932003B0001F015F8002800D15EE2E30704D45BE20E9B039300E01D006B1E1A78392A08D10D9A9A42F7D1039A0D990F
:404A40000132039230220A701A7801321A7046E20022134BFEF7C2FB0022002306000F0000F0F0FF0028A5D039E2109A002A44D0229A012A0BDC179A002A02D00F4A9B1899
:404A800002E036231A9A9B1A089D0B9C29E00A9B5D1E089BAB4213DB5D1B18E00000F03F0000244000001C400000C0FC000014400000C07CA86F00000000E03F3304000047
:404AC000089B0895EA1A0025119B9B1811930A9B002B04DA0B9B0A9A9C1A002301E00B9C0A9B0B9A0121D2180B920C9A0498D3180C9300F006FB060002E0089D0B9C109E5F
:404B0000002C0ED00C9B002B0BDD0C9A2300944200DD13000B9AE41AD21A0B920C9AD31A0C93089B002B20DD109B002B17D0002D11D031002A00049800F076FB059A010036
:404B40000600049800F0E6FA05990E90049800F038FA0E9B0593089B5A1B06D000E0089A0599049800F060FB05900121049800F0C8FA119B0890002B00D1C0E11A00010092
:404B8000049800F051FB229B0890012B17DC0025069BAB420ED1079B1B03AB420AD1199B079A134206D00B9B013501330B930C9B01330C93119B0120002B0DD000E000250D
:404BC000089B089A1B690E9303339B00D318586800F04DFA2023181A0C9BC0181F23184009D001331B1A042B02DD1C23181A03E0042B08D018001C300B9B24181B180B9348
:404C00000C9B1B180C930B9B002B05DD1A000599049800F05DFB05900C9B002B05DD1A000899049800F054FB0890169B002B1DD00899059800F09EFB002817DA039B0A22C2
:404C4000013B039305990023049800F0D3F9109B0590002B00D159E1310000230A22049800F0C8F90600002F37DC33E00A9B0A9F002B2ADC229B022B27DD002F12D108998B
:404C80003B000522049800F0B5F908900100059800F070FB00280DDC04E0089602E000231E000893239B0D9DDB4303930AE00E9B089603930D9B0D9A5D1C31231370039B56
:404CC000013303930A960026F3E0109B002B04D10D9DB5E0229B022BCFDC002C05DD31002200049800F0F4FA06000A96002D12D07168049800F02DF93100040033690C31A9
:404D00009A1C92000C30FEF70DFE01222100049800F0DEFA0A900D9B7D1E0B935B190E9308990598FFF7AFFA310010900400059800F020FB0A9A05000899049800F035FB57
:404D400001230C93C36830340700002B04D10100059800F00FFB0C903900049800F031F90C9B229A134308D1069A0133134204D1392C2AD0002D1CDC1DE0002D06DB229BDB
:404D80001D431BD10123069A134217D10C9B002B11DD05990122049800F09AFA0899059000F0E8FA002802DC05D1E30703D5392C0BD0109C31340B9B5D1C0FE00B9B5F1CDF
:404DC0000C9B002B0CDD392C05D10B9B0B9A5D1C3923137057E03D000B9B01341C7068E00B9B0E9A3D001C7093423CD000230A220599049800F0FEF80A9B05909E4208D19D
:404E0000310000230A22049800F0F4F806000A900DE0310000230A22049800F0EBF8002306000A220A99049800F0E4F80A900B9776E700230A220599049800F0DBF8059024
:404E400008990598FFF71FFA0D9B3030287001350400EB1ABB42ECDB3D1E00DC01250A9600260D9B5D1905990122049800F030FA0899059000F07EFA002804DC13D1E30716
:404E800001D410E01D006B1E1A78392A08D10D9A9A42F7D1039B013303933123137008E001321A7005E06B1E1A78302A01D11D00F9E70899049800F084F80A9B002B0ED00A
:404EC000002E05D09E4203D03100049800F079F80A99049800F075F801E00E9B03930498059900F06EF800232B70039B249A01331360269B0D98002B10D01D600EE0229B28
:404F0000012B00DC43E6119D012065E6002F00DDDEE6229B022B00DCDAE6AEE61DB0F0BD004870473001002010B5034B0100186800F054FB10BDC0462C010020C9B282186A
:404F4000904204D003788B4202D00130F8E70020704770B5466A04000D00002E07D11020FFF7E2FF6062466086600660C660666AF368002B09D0636AAA00DB689B181868A1
:404F800000280ED002681A6017E021220421200000F0CAFA636AF060DB68002BEBD100200EE001210E00AE40721D9200200000F0BBFA0028F3D04560866000230361C3605B
:404FC00070BD70B5456A06000C00002D07D11020FFF7AAFF7062456085600560C560002C07D0726A6368D2689B00D3181A6822601C6070BDF7B5070008000C000D691E0072
:40500000002101921430019A0388013153439B190668360C56431A0C9446B4446246160C120494469BB2634408C08D42EBDC002E1BD0A3689D4212DB63683800591CFFF72B
:4050400088FF2100236901909A1C92000C310C30FEF768FC21003800FFF7B3FF019C2B1D9B00E31801355E6025612000FEBD00220300010C914201D103041032190E01D167
:4050800008321B02190F01D104321B01990F01D102329B001000002B03DB20205B0000D5501C70470722036810B501001A400CD001240020234223D10222134203D0E340BB
:4050C00020000B601CE09B0818E098B2002801D110221B0CD8B2002801D108321B0A180701D104321B09980701D102329B08D80704D45B082020002B02D0013210000B6076
:4051000010BD10B50C000121FFF723FF01234461036110BDF0B50B691400126989B00D00934201DA25000C002F692669AA68BB1969680193934200DD0131FFF70AFF020077
:40514000BB1914329B00D3189C46002113000290634501D202C3FBE71435BF00EB191434B6000593A31903950793079B9C4251D2208800281ED015000026039F08CF069585
:4051800004936B461B8A434319002B88CB1804999B19090C41432E68360C89191E0C89190E0C9BB209040B4308C5059BBB42E5D8069B5E6023681D0C1FD000211000136806
:4051C000039F04913E8801686E43090C7118049E9BB289190E043343036008CF86881B0C6B43090C9B195B18190C0491059906900430B942E6D806994B6004340432B4E75A
:4052000004235B429C4463461B68002B05D1019B013B0193019B002BF2DC029B019A18001A6109B0F0BD00000323F7B5134005000E001400002B08D02349013B9A00525830
:4052400000233100FFF7D6FE0600A310019338D06C6A002C07D11020FFF766FE6862446084600460C4606F6ABC68002C10D117492800FFF746FF0023B8600400036007E027
:40528000019B5B1001931CD02068002810D004000122019B1342F3D0310022002800FFF739FF070031002800FFF78BFE3E00E7E7220021002800FFF72DFF002320600360D5
:4052C000E5E73000FEBDC0467070000071020000F0B50C0017002369551185B0EB180193013300934968A3680290009A934202DA01315B00F9E70298FFF72BFE002302006D
:40530000060019001432AB4203DA980011500133F9E7EB43DB171D402300AD0055192269143392009A1894461F22174014D00132D21B0392002219682800B9400A4304C57B
:4053400004CB0399CA409C45F5D84260002A07D0019B0233009303E004CB04C59C45FBD8009B0298013B33612100FFF72AFE300005B0F0BD03690A6910B59B1A0400181E6B
:4053800012D1930014341431E218C918043A043913680868834204D083429B410120184302E09442F2D3002010BDF0B50C0085B00700110020001500FFF7DCFF061E07D189
:4053C00001003800FFF7C5FD01234661036155E000230193984204DA23002C001D000123019361683800FFF7B4FD019B26692F00C3601434B300E318020002932B6900255A
:4054000014379B00FB180393143208CC69469C4608CF0432009363468B808B885D19009B9BB2EB1A65460193009B2D0C190C019B691A1D14131F9C466B4649199B880D1475
:4054400009040B4361460B60039BBB42DDD8029913008C420BD202CC8BB25B191D14090C49190D149BB209040B4308C2EFE7043B1A68002A01D1013EF9E7066105B0F0BDE1
:40548000F7B51D000121089F1400FFF762FD2B036D0006001B0B6D0D02D08022520313430193002C18D068460094FFF7FBFD009C002809D0019B20211A00091A8A40C34035
:4054C00022437261019300E07461019CB461631E9C410134346107E001A8FFF7E3FD0124019B346173612030002D06D00B4BED1835232D183D60181A0BE0094BC018094B3C
:405500003860E3189B00F3185869FFF7B0FD6401201A099B18603000FEBDC046CDFBFFFFCEFBFFFFFFFFFF3F4A4370B51100140000F054F8051E03D022000021FEF7FBF924
:40554000280070BD70B50500002944D00C1F2368002B00DAE418280000F027FA1E4A13681100002B02D16360146031E0A3420DD92268A018834203D118685B688218226040
:4055800063600C6024E0A24203D813005A68002AF9D11E689819A0420BD12168711858181960824214D110685268411819605A600EE0A04202D90C232B6009E0216860188A
:4055C000824203D1106852684118216062605C60280000F0EBF970BDD8010020032370B5CD1C9D43083506000C2D01D20C2501E0002D01DBA94202D90C23336048E0300009
:4056000000F0D3F9234B1C681A002100002913D00B685B1B0DD40B2B02D90B60CC181EE08C4202D1636813601AE04B6863600C0016E00C004968E9E7174C2368002B03D182
:40564000300000F08BF920602900300000F086F9431C18D00323C41C9C43A0420DD12560300000F0A3F9200007220B30231D9043C31A0ED05A42E2500BE0211A300000F0AB
:405680006DF9431CEBD10C233000336000F08EF9002070BDD8010020D4010020F0B58E6885B007000C00039201939E4243D890238A89DB001A423ED00325096923680198F5
:4056C0005B1A029363695D43EB0F5D19029B6D1001331B18AB4200D91D00530510D529003800FFF77BFF061E14D0029A2169FEF719F9A289194B134080221343A38112E02D
:405700002A00380000F053F9061E0CD121693800FFF718FF0C23402201203B60A38940421343A38117E0029B2661F61826606561019EED1AA560019BB34200D21E003200B3
:405740000399206800F01CF90020A3689B1BA36023689E19266005B0F0BDC0467FFBFFFFF0B59FB0029005938B890F0016001B0610D50B69002B0DD14021FFF72FFF38607D
:405780003861002804D10C23029A01381360D8E040237B61002306AD6B6120336B761033AB7634002378002B03D1A31B049312D003E0252BF9D00134F4E7A31B3200390071
:4057C0000298FFF76BFF431C00D1B4E06A69049B944663446B612378002B00D1ABE00122002352426A6002A95432521801342B60EB60AB601370AB65534E21780522300091
:40580000FFF79CFB002807D00123801B83402A68013413432B60EFE72B68DA0604D55322202102A8121811701A0704D553222B2102A81218117022782A2A03D0099B0020F0
:405840000A210EE0059A111D12680591002A01DB099204E05242EA60022213432B6001340BE02278303A092A04D84B4301349B180120F6E7002800D0099323782E2B1ED1AC
:4058800063782A2B0AD1059B02341A1D1B680592002B01DA01235B42079310E000230A201A0001346B6021783039092904D84243013452180123F6E7002B00D00792234EC4
:4058C000217803223000FFF739FB002806D04023801B83402A68013413432B60217806221B48661C2976FFF729FB002812D0194B002B06D10722059B0733934308330593AE
:4059000014E005AB00933A00134B29000298FEF7B1F807E005AB00933A000F4B29000298FEF766FB0390039B013304D06B69039A9B186B6135E7BB890B985B0601D50120DC
:4059400040421FB0F0BDC046A8700000AE700000B2700000753A00009D560000002370B5064C050008002360FAF772FF431C03D12368002B00D02B6070BDC04608020020FC
:4059800010B5884202D98B18984201D3002305E09B1A013A08D3995C8154FAE7934203D0CC5CC4540133F9E710BD70477047F8B506000C001500002904D11100FFF70EFE92
:4059C000040018E0002A03D1FFF7BCFD2C0012E000F013F885420ED929003000FFF7FEFD071E07D021002A00FDF79CFF21003000FFF7A8FD3C002000F8BD0B1F1A68101F3F
:405A0000002A04DA891804390B68D0180438704702B4714649084900095C49008E4402BC7047C0468446101C62468C46191C634600E0C0461FB500F003FC002801D400211B
:405A4000C8421FBD10B500F057FB4042013010BD10B500F0F5FB002801DB002010BD012010BDC04610B500F0EBFB002801DD002010BD012010BDC04610B500F07DFB002858
:405A800001DC002010BD012010BDC04610B500F073FB002801DA002010BD012010BDC046F8B556465F464D464446F0B40F00FD0FAA4609037C002E005F00450F490A7F0D1F
:405AC0002943C5001803BC46400A570F640DDB0F3843D2009A4500D1AAE06646A61B002E00DCFFE06346002B39D10300134300D0D9E06B0709D00F232B40042B05D02B1D7C
:405B0000AB42AD416D4249191D000B0200D482E0CA4B01349C4200D1FEE00A005646C84BED081A405007640552020543120B640D002112030B0D1B056405120B1A43630894
:405B4000C04CF60714401C43640064083443280021003CBC90469946A246AB46F8BDB74B9C42C6D080231B041843382E00DDEBE01F2E00DD1EE120239B1B9C460300674649
:405B8000BB40984613004746F3403B436746BA40571EBA4113430200F240EB1A9D42B6411D008A1A7642911B0B0231D54A02560A002E00D1B4E03000FDF76AFE0300083BF6
:405BC0001F2B00DDB5E020222900D21AD1409E400A009D4032439C4200DDB1E01C1B631C1F2B00DDD5E0202114002800C91A8C40D8408D400443DA40681E85411100254332
:405C0000002476E74146314300D134E2310045466B0700D06FE756464807ED08C9080543864B9C4235D00A036405120B640D7FE76346E31A9B46002B00DC8BE06746002FC1
:405C40003CD07E4FBC4200D153E780273F0438435B46382B00DCF7E00243501E82410020D2B253194218AB4289411D00494289180B02CDD5714B01349C4200D13DE10120B8
:405C80006F4A6B080A4028401843D507054351082FE72B000B4300D1CBE180231B030B431A03120B44E7013E002E6DD1AE1AB5429B41091A5B42C91A350075E707001743D3
:405CC00000D116E701235B429C46E3445B46002B00D0E0E0AA18AA429B4109185B4259181500C5E7002E75D1661C7605760D012E00DCF3E0AE1AB0464545BF410E1A7F4233
:405D0000F61B370200D48FE0551BAA42B641411A76428E1B9A464BE756460022002507E72800FDF7B5FD20300300083B1F2B00DC49E72A002838824000259C4200DC4DE7CB
:405D40003F49E41A1140D4E60243501E8241D3B2002222E7002B00D0F3E0631C9C465B055B0D012B00DC9FE0344B9C4500D1C3E0AA180918AA42804140424118CD07520881
:405D8000154349086446B4E62C4B9C4200D0ECE6AFE611001F3CE1400C00202B00D17FE04021CB1A9A4015436A1E95410021254300242DE733000700203BDF403B00202E82
:405DC00070D04027BE1BB0400243501E824113430022E2E6002C4FD0184CA44500D1ABE08024240476422143382E00DDDFE01F2E00DD43E12027BC1BA1460C004F46BC40AF
:405E0000A0462C004746F4403C434F46BD406F1EBD41F1402C43151BAA429241411A5242891A64469A46BFE641464546314300D0BEE6002600240025F2E6C046FF07000056
:405E4000FFFF7FFFFFFF0F801F2B59DC2027FF1ABC46070063469F405B46B9461700DF40B8464F4643461F4363469A40531E9A415B463A43D840F4E60C002C435CD0F64396
:405E8000002E55D1551BAA42A441411A6442091B9A46644688E6964FBC4200D0D8E628E6002280E700208FE70B002B43002C00D0C2E0002B00D101E10300134300D118E675
:405EC000AB18AB42B6410918764271180A0200D409E1884A1D00114064460AE6002C5BD10E002E4300D08AE00100114300D1C2E0010015009A46FCE56446002100258FE6E0
:405F000020235B429C46DC4463460700DF405B46BC46202B00D1ACE040235F46DB1B98400243501E8241634613431A00002098E66F4CA44500D057E70100150064469A4610
:405F4000D7E5002C39D10C002C436ED0DB43002B1AD0674CA44568D0382B00DDA4E01F2B00DDAEE020240F00E41AA740B9462F00DF40B846A3464F46444627435C46A5407A
:405F80006C1EA541D9403D43AD1895429B4109185B42591864466BE60C002C4315D1010011437BD0010015009A46514CA1E50D43691E8D410021ECB22DE74D4CA44534D01E
:405FC000802424045B422143C6E7040014434ED0ED084C072C438025C9082D03294208D0C6082E4205D1D208410711430C009A463100620FC900E50011433D4C79E5060007
:40600000164300D175E5AE1AB0464545BF410E1A7F42F61B370200D4F4E5551BAA42B641411A7642891B9A4663E50100150064465FE5002200257BE5002B3BD00300134348
:4060400015D0ED084B072B438025C9082D03294207D0C4082C4204D141070B002100D2081343C9005A0F1143DD00214C41E5204C3FE5002054E700260025D1E534000F00C6
:40608000203CE7403C00202E2BD04027BE1BB1400D43691E8D4100212C43BCE6802100260903134C0025BBE50D43691E8D410021EDB269E7010015000D4C1AE501001500A0
:4060C00017E51C000F00203CE7403C00202B0CD04027FB1A99400D43691E8D410021254352E70021D4E71D0092E50021F3E7C046FF070000FFFF7FFFF0B55F4656464D466B
:406100004446F0B41F035C00DB0F9A46194B0E034D00C90F8046360B6D0D8B4691463F0B640D9D4219D0134B9C421BD00123A54206D018003CBC90469946A246AB46F0BD50
:40614000BE42F6D1C845F4D1D34510D0002DF0D1304303005A1E9341EBE7310001230143E7D1E0E73A430123002AE2D1DEE70023DFE7C046FF070000F0B55F46444656464C
:406180004D46F0B41F033C0B2C4F0E034D00A3465C008446360B6D0DC90F9046640DDB0FBD422BD0254FBC422ED0002D0ED130430700814678427841002C17D15F463A4333
:4061C00014D14B460020002B0AD006E0002C02D15846024301D099421AD00123484218433CBC90469946A246AB46F0BD0028F2D058425841012240421043F1E737000743FC
:40620000D0D002204042EBE75F461743CDD0F8E7A542E2DC05DB5E45DFD808D000205E45DED248424841012340421843D8E7C445D3D80020C445F4D3D2E7C046FF07000067
:40624000F0B55F464D4644465646F0B41C03240BA4462F4C0F034D005E00C90F80463F0B6D0D8B469146760DDB0FA54220D0284CA64222D0002D12D1384344424441002EA7
:4062800020D0002C0DD05C42634101245B421C4320003CBC90469946A246AB46F0BD002E17D05B4519D05B465C4201231C43EFE7390002240143EBD1D9E7614602241143B9
:4062C000E6D1D7E761460A43DBD100240028DFD0E9E761460A43E4D1E5E7B54203DD01225C421443D4E7B542CDDB6745DBD809D000246745CCD259464C42614101244942DB
:406300000C43C5E7C845CED80024C845F3D3BFE7FF070000F0B557464E464546E0B40E001100F20F9246C500420F180337037400400A4E0F7F0A3043CF4E17435A00640D5B
:40634000520DDB0FC900B24200D1E5E001267340A61AB446534500D1AFE0002E00DC0DE1002A3AD103000B4300D0E4E06B0709D00F232B40042B05D02B1DAB42AD416D4225
:406380007F191D003B0200D488E0BB4B01349C4200D110E13A00B94B51461A4001235007ED08520264050543120B640D0B400021280012030D0D120B64052D051543620865
:4063C000AF4CDB072C401443640064081C4321001CBC90469946A246F0BDA74B9C42C5D080231B0418436346382B00DDFDE01F2B00DD30E1624620239B1A02009A406646E3
:4064000090460A009940F24046464B1E99413243114363460200DA40691A8D429B410D00BA1A5B42D71A3B0235D57A02530A98464346002B00D1C4E04046FDF729FA0300B0
:40644000083B1F2B00DDC5E020222900D21A4746D1409F400A009D403A439C4200DDC0E01C1B631C1F2B00DDE4E0202114002800C91AD8408C408D400443DA40681E85411B
:4064800017002543002471E7424663461A4300D14CE2674645466B0700D069E7012351467807ED08FA080B40054373498C4238D012036405120B640D79E7002E00DC9AE044
:4064C000002A47D06C4A944200D14FE78022120410436246382A00DC08E10143481E81410022C9B24919D219A942BF410D007F42BF183A0200D442E15F4A0134944200D150
:406500004EE101205D4A69083A4028400843D507054357089A4629E706000E4300D017E714E72900114300D1F9E1802109030A431203120B3BE701235B429846C44463466D
:40654000002B72D1691A8D429B413F1A5B42FF1A0D0068E702000A4300D107E7012252429046C4446246002A00D0E6E06918A942B6413F187642F7190D00BAE7002E00D0DB
:4065800080E0621C5205520D012A00DCF9E06A1A91464D45B6413A1A7642921B9046120200D499E04D1BA9428941C71B49427A1A90469A463CE75246012300251340002246
:4065C000F5E62800FDF764F920300300083B1F2B00DC39E72A002838824000259C4200DC3EE7264FE41A1740C0E60143481E81410022C9B210E7002E00D0F1E0621C944684
:406600005205520D012A00DCA0E01B4A944500D1C5E06918A94292413F185242D2194908D5070D4357086446A0E6134B9C4200D0D9E69BE611001F3CE1400C00202B00D147
:4066400080E04021CB1A9A4015436A1E95410027254300241FE763460200203BDA406346202B71D0402366469B1B98400143481E814111430022CFE6FF070000FFFF7FFF20
:40668000FFFF0F80002C48D0CA4CA24200D1A2E07442A1468024240427434C46382C00DDDBE01F2C00DD44E14E462024A41B3E00A640A246B0464C462E00E640B446464609
:4066C000644626435446A5406C1EA54134002C434D46EF400D1B28E04A4643464D461A4300D0A5E6002300240025DEE61F2A5ADC66462022921B060096409146B046624604
:406700000E00D640424616434A4691404A1E9141020060463143C240E4E63C002C435AD0F443A146002C52D14D1BA9428941C71B49427F1A14009A4675E69E4A944200D08F
:40674000C7E613E600227FE700208FE7002C00D0C8E03B002B4300D10FE103000B4300D104E66918A9429B413F185B42DF193B0200D41AE1904B0D001F406446F6E59A464F
:4067800089E63A002A43002C5CD1002A75D102000A4300D1CAE007000D009A46E6E564460022002581E662460600203AD6406246B046202A00D1B7E040226646921B904020
:4067C00001434246481E8141114300228AE6794CA24200D061E707000D0014009A46C5E5002C41D13C002C4378D0F443A146002C20D0704CA24271D04C46382C00DDB2E09B
:406800001F2C00DDBCE02026341BA2463C005646B4404E46A0462C00F440A446444666463443A4465446A54064466E1EB54125434C46E7406D188D4289413F184942CF193C
:40684000140056E6002A2FD102000A4300D184E007000D009A46574C88E53D436F1EBD41ECB200270D1B60E7524CA24236D0744280263604A1463743BEE702000A4300D193
:4068800074E56A1A90464545B6413A1A7642921B9446120200D4F7E54D1BA9428941C71B49427F1A9A4661E502000A433AD0ED087C072C438025FA082D032A4208D0C708DA
:4068C0002F4205D145072C003A009A46C9080C43670FD200E5001743364C47E507000D00140043E53A002A4343D002000A4319D0ED087C072C438025FA082D032A4207D027
:40690000C6082E4204D147073C003200C9080C43D700620FE50017439A46264C26E50022002544E5234C21E5002049E700230025BBE54C463E00203CE6404C46B446202C3D
:4069400031D040244E46A61BB7403D436C1EA54164462C4300270D1BE7E6802200231203144C0025A1E53D436F1EBD410027EDB260E707000D000F4CF8E407000D00F5E40C
:406980004E463C00203EF440A0464C46202C0ED040244E46A41BA7403D436F1EBD4144460027254346E70027CFE70D0073E50027F2E7C046FF070000FFFF7FFF70B50E4E99
:4069C0000C031D0349005B00240B490D2D0B5B0DB14204D0084900208B4208D070BD04430120002CFAD1044900208B42F6D115432800451EA841F1E7FF0700000B0330B598
:406A0000134D1A0B4B005B0DC90F0024AB4211DD104CA34210DC8024640322430E4CE41A1F2C0CDD0D48C31ADA4013005C42002900D11C00200030BD094BCC18FAE7E040C5
:406A4000084CA44663449A4013000343EEE7C046FE0300001D0400003304000013040000FFFFFF7FEDFBFFFF70B5002830D0C317C4185C40C50F2000FCF70AFF174B184AFE
:406A80001B1AD21A1F2A18DD164AD21A9440002224035B05240B5B0D0021100024030A0D1205240B1443104A1B0514401C436400ED0764082C43210070BD210091400A0061
:406AC0000B21081AC4405B052403240B5B0DE3E70025002300240022DEE7C0461E0400003304000013040000FFFF0F8070B5051E28D0FCF7CDFE154B154A1B1AD21A1F2ADF
:406B000016DD2C00134A0025D21A94405A052403240B520D002124030B0D240B1B0523430D4C1205234013435B002800590870BD0B212C00081AC440954024035A05240B89
:406B4000520DE7E700220024E4E7C0461E0400003304000013040000FFFF0F80000000000D0A20202D2D20546573742053746F70706564202D2D200D0A00000054696D6524
:406B80002873292C20534F432870657263656E74292C204261742856292C205368756E742841292C20000000426174746572792054656D702025642C20000000526573693F
:406BC00073746F722054656D702025642C2000000D0A20496E697469616C697A65642E2E2E200A0D20456E746572204720746F20537461727420546573742C20456E746566
:406C000072205320746F2053746F70200D0A00000D0A20426567696E6E696E672074686520546573742E2E2E200D0A00256C752C200000002025332E35662C2000000000E6
:406C400025332E33662C200025642E25642C20000D0A204552524F52202D20486967682054656D7065726174757265206F6E20426174746572793A2025642E25642C206F74
:406C80006E20546865726D6973746F72202564200D0A00000D0A204552524F52202D20486967682054656D7065726174757265206F6E205265736973746F723A2025642E50
:406CC00025642C206F6E20546865726D6973746F72202564200D0A000D0A204552524F52202D2043656C6C20446973636861726765643A202566200D0A0000000D0A20455D
:406D000052524F52202D20496E636F72726563742043757272656E7420726561643A202566200D0A000000000D0A20544553542048414C544544202D20456E746572202722
:406D4000472720746F20526573756D65200D0A000000000001000000C0002050F800049003000200020002000002000E00000000010000000000000000000000B00400004F
:406D800001000000010000000200000F0200000F0200000F020000080200000902000009010000030200000502000004010000000200000202000003010000000200000060
:406DC000020000010100000001000000010000000200000F0200000F0200000F0200000802000009020000090100000302000005020000040100000002000002020000031F
:406E00000100000002000000020000010100000001000000010000002E2300005222000010230000E822000010230000DC22000010230000E82200005222000052220000F1
:406E4000DC220000E8220000942300009423000094230000162300005222000052220000FC220000E6220000FC220000DC220000FC220000E6220000522200005222000074
:406E8000DC220000E6220000942300009423000094230000A02300008C260000EA250000EA250000E82500007E2600007E26000074260000E82500007E26000074260000DA
:406EC0007E260000E82500008426000084260000842600000E270000A02D00006E2C0000742D0000642C0000742D00007E2D0000742D0000642C00006E2C00006E2C000065
:406F00007E2D0000642C00005A2C00005A2C00005A2C0000D02F0000CC3300008C3200008C3200008A320000A4330000A4330000963300008A320000A4330000963300007B
:406F4000A43300008A320000AC330000AC330000AC330000AC3500004300494E4600696E66004E414E006E616E003000303132333435363738394142434445460030313224
:406F80003334353637383961626364656600496E66696E697479004E614E00504F534958002E000000000000000000000000F03F00000000000024400000000000005940CE
:406FC0000000000000408F40000000000088C34000000000006AF8400000000080842E4100000000D01263410000000084D797410000000065CDCD41000000205FA0024286
:40700000000000E876483742000000A2941A6D42000040E59C30A2420000901EC4BCD64200003426F56B0C430080E03779C3414300A0D8855734764300C84E676DC1AB43DD
:40704000003D9160E458E143408CB5781DAF154450EFE2D6E41A4B4492D54D06CFF08044F64AE1C7022DB544B49DD9794378EA4405000000190000007D000000000000006C
:407080000080E03779C34143176E05B5B5B89346F5F93FE9034F384D321D30F94877825A3CBF737FDD4F1575232D302B2000686C4C0065666745464700000000F8B5C046AF
:4070C000F8BC08BC9E4670478D010000CD080000F8B5C046F8BC08BC9E46704765010000F0700000A8000020C0000000A80000000000000010020020FF000000010000002C
:407100000000E02EC05D00001800000000366E01040404000000000000000000000000000000000000000000000000000000000000000000586F0000000000000000000094
:4071400000000000000000000000000000000000000000000000000000000000000000000000000000000000000000000000000000000000CC000020A16F0000AD700000F6
:40718000AD700000AD700000AD700000AD700000AD700000AD700000AD700000AD700000FFFFFFFFFFFFFFFFFFFFFFFFFFFF000000000000000000000000000000000000F5
:4071C000000000000000000000000000000000000000000000000000000000000000000000000000000000000000000000000000000000000000000000000000000000008F
:40720000000000000000000000000000000000000000000000000000000000000000000000000000000000000000000000000000000000000000000000000000000000004E
